{
  "contractName": "BondingCurve",
  "abi": [
    {
      "constant": true,
      "inputs": [],
      "name": "tokenContract",
      "outputs": [
        {
          "name": "",
          "type": "address"
        }
      ],
      "payable": false,
      "stateMutability": "view",
      "type": "function",
      "signature": "0x55a373d6"
    },
    {
      "constant": false,
      "inputs": [],
      "name": "renounceOwnership",
      "outputs": [],
      "payable": false,
      "stateMutability": "nonpayable",
      "type": "function",
      "signature": "0x715018a6"
    },
    {
      "constant": true,
      "inputs": [],
      "name": "owner",
      "outputs": [
        {
          "name": "",
          "type": "address"
        }
      ],
      "payable": false,
      "stateMutability": "view",
      "type": "function",
      "signature": "0x8da5cb5b"
    },
    {
      "constant": true,
      "inputs": [],
      "name": "isOwner",
      "outputs": [
        {
          "name": "",
          "type": "bool"
        }
      ],
      "payable": false,
      "stateMutability": "view",
      "type": "function",
      "signature": "0x8f32d59b"
    },
    {
      "constant": true,
      "inputs": [],
      "name": "logicContract",
      "outputs": [
        {
          "name": "",
          "type": "address"
        }
      ],
      "payable": false,
      "stateMutability": "view",
      "type": "function",
      "signature": "0xcc0e97c9"
    },
    {
      "constant": false,
      "inputs": [
        {
          "name": "newOwner",
          "type": "address"
        }
      ],
      "name": "transferOwnership",
      "outputs": [],
      "payable": false,
      "stateMutability": "nonpayable",
      "type": "function",
      "signature": "0xf2fde38b"
    },
    {
      "inputs": [
        {
          "name": "_logicContract",
          "type": "address"
        },
        {
          "name": "_tokenContract",
          "type": "address"
        }
      ],
      "payable": false,
      "stateMutability": "nonpayable",
      "type": "constructor",
      "signature": "constructor"
    },
    {
      "payable": true,
      "stateMutability": "payable",
      "type": "fallback"
    },
    {
      "anonymous": false,
      "inputs": [
        {
          "indexed": false,
          "name": "byWhom",
          "type": "address"
        },
        {
          "indexed": true,
          "name": "oldContract",
          "type": "address"
        },
        {
          "indexed": false,
          "name": "newContract",
          "type": "address"
        }
      ],
      "name": "LogLogicContractChanged",
      "type": "event",
      "signature": "0x96002de4f06f59b8d5ccae43c64b445572e1d530c9bc98d201018f5ac4843dbb"
    },
    {
      "anonymous": false,
      "inputs": [
        {
          "indexed": false,
          "name": "byWhom",
          "type": "address"
        },
        {
          "indexed": true,
          "name": "oldContract",
          "type": "address"
        },
        {
          "indexed": false,
          "name": "newContract",
          "type": "address"
        }
      ],
      "name": "LogTokenContractChanged",
      "type": "event",
      "signature": "0x8e50965f27112954dcece2b6acec24689db20cd8a09e23837f4c5cf6bd6a29e8"
    },
    {
      "anonymous": false,
      "inputs": [
        {
          "indexed": false,
          "name": "amount",
          "type": "uint256"
        },
        {
          "indexed": true,
          "name": "account",
          "type": "address"
        }
      ],
      "name": "LogEthSent",
      "type": "event",
      "signature": "0xdf5983565e1f67d7cfa297d3729a3e95ec39dc41c53cfaf9f92bf23e9ad589bd"
    },
    {
      "anonymous": false,
      "inputs": [
        {
          "indexed": false,
          "name": "amount",
          "type": "uint256"
        },
        {
          "indexed": true,
          "name": "account",
          "type": "address"
        }
      ],
      "name": "LogEthReceived",
      "type": "event",
      "signature": "0x8a68b2fe3158c268b3e8da102cd572ce692127bcc589402f0e06e2bfc0c3a9cf"
    },
    {
      "anonymous": false,
      "inputs": [
        {
          "indexed": true,
          "name": "previousOwner",
          "type": "address"
        },
        {
          "indexed": true,
          "name": "newOwner",
          "type": "address"
        }
      ],
      "name": "OwnershipTransferred",
      "type": "event",
      "signature": "0x8be0079c531659141344cd1fd0a4f28419497f9722a3daafe3b4186f6b6457e0"
    },
    {
      "constant": false,
      "inputs": [
        {
          "name": "_amount",
          "type": "uint256"
        },
        {
          "name": "_account",
          "type": "address"
        }
      ],
      "name": "sendEth",
      "outputs": [],
      "payable": false,
      "stateMutability": "nonpayable",
      "type": "function",
      "signature": "0x34368602"
    },
    {
      "constant": false,
      "inputs": [
        {
          "name": "_logicContract",
          "type": "address"
        }
      ],
      "name": "setLogicContract",
      "outputs": [],
      "payable": false,
      "stateMutability": "nonpayable",
      "type": "function",
      "signature": "0x5aa4470f"
    },
    {
      "constant": false,
      "inputs": [
        {
          "name": "_tokenContract",
          "type": "address"
        }
      ],
      "name": "setTokenContract",
      "outputs": [],
      "payable": false,
      "stateMutability": "nonpayable",
      "type": "function",
      "signature": "0xbbcd5bbe"
    }
  ],
  "bytecode": "0x608060405234801561001057600080fd5b50604051604080610d8a8339810180604052810190808051906020019092919080519060200190929190505050336000806101000a81548173ffffffffffffffffffffffffffffffffffffffff021916908373ffffffffffffffffffffffffffffffffffffffff1602179055506000809054906101000a900473ffffffffffffffffffffffffffffffffffffffff1673ffffffffffffffffffffffffffffffffffffffff16600073ffffffffffffffffffffffffffffffffffffffff167f8be0079c531659141344cd1fd0a4f28419497f9722a3daafe3b4186f6b6457e060405160405180910390a361011182610130640100000000026401000000009004565b6101298161026c640100000000026401000000009004565b50506103ff565b60006101496103a8640100000000026401000000009004565b151561015457600080fd5b600260009054906101000a900473ffffffffffffffffffffffffffffffffffffffff16905081600260006101000a81548173ffffffffffffffffffffffffffffffffffffffff021916908373ffffffffffffffffffffffffffffffffffffffff1602179055508073ffffffffffffffffffffffffffffffffffffffff167f96002de4f06f59b8d5ccae43c64b445572e1d530c9bc98d201018f5ac4843dbb3384604051808373ffffffffffffffffffffffffffffffffffffffff1673ffffffffffffffffffffffffffffffffffffffff1681526020018273ffffffffffffffffffffffffffffffffffffffff1673ffffffffffffffffffffffffffffffffffffffff1681526020019250505060405180910390a25050565b60006102856103a8640100000000026401000000009004565b151561029057600080fd5b600160009054906101000a900473ffffffffffffffffffffffffffffffffffffffff16905081600160006101000a81548173ffffffffffffffffffffffffffffffffffffffff021916908373ffffffffffffffffffffffffffffffffffffffff1602179055508073ffffffffffffffffffffffffffffffffffffffff167f8e50965f27112954dcece2b6acec24689db20cd8a09e23837f4c5cf6bd6a29e83384604051808373ffffffffffffffffffffffffffffffffffffffff1673ffffffffffffffffffffffffffffffffffffffff1681526020018273ffffffffffffffffffffffffffffffffffffffff1673ffffffffffffffffffffffffffffffffffffffff1681526020019250505060405180910390a25050565b60008060009054906101000a900473ffffffffffffffffffffffffffffffffffffffff1673ffffffffffffffffffffffffffffffffffffffff163373ffffffffffffffffffffffffffffffffffffffff1614905090565b61097c8061040e6000396000f300608060405260043610610099576000357c0100000000000000000000000000000000000000000000000000000000900463ffffffff16806334368602146100e957806355a373d6146101365780635aa4470f1461018d578063715018a6146101d05780638da5cb5b146101e75780638f32d59b1461023e578063bbcd5bbe1461026d578063cc0e97c9146102b0578063f2fde38b14610307575b3373ffffffffffffffffffffffffffffffffffffffff167f8a68b2fe3158c268b3e8da102cd572ce692127bcc589402f0e06e2bfc0c3a9cf346040518082815260200191505060405180910390a2005b3480156100f557600080fd5b5061013460048036038101908080359060200190929190803573ffffffffffffffffffffffffffffffffffffffff16906020019092919050505061034a565b005b34801561014257600080fd5b5061014b61043f565b604051808273ffffffffffffffffffffffffffffffffffffffff1673ffffffffffffffffffffffffffffffffffffffff16815260200191505060405180910390f35b34801561019957600080fd5b506101ce600480360381019080803573ffffffffffffffffffffffffffffffffffffffff169060200190929190505050610465565b005b3480156101dc57600080fd5b506101e5610592565b005b3480156101f357600080fd5b506101fc610664565b604051808273ffffffffffffffffffffffffffffffffffffffff1673ffffffffffffffffffffffffffffffffffffffff16815260200191505060405180910390f35b34801561024a57600080fd5b5061025361068d565b604051808215151515815260200191505060405180910390f35b34801561027957600080fd5b506102ae600480360381019080803573ffffffffffffffffffffffffffffffffffffffff1690602001909291905050506106e4565b005b3480156102bc57600080fd5b506102c5610811565b604051808273ffffffffffffffffffffffffffffffffffffffff1673ffffffffffffffffffffffffffffffffffffffff16815260200191505060405180910390f35b34801561031357600080fd5b50610348600480360381019080803573ffffffffffffffffffffffffffffffffffffffff169060200190929190505050610837565b005b600260009054906101000a900473ffffffffffffffffffffffffffffffffffffffff1673ffffffffffffffffffffffffffffffffffffffff163373ffffffffffffffffffffffffffffffffffffffff161415156103a657600080fd5b8073ffffffffffffffffffffffffffffffffffffffff166108fc839081150290604051600060405180830381858888f193505050501580156103ec573d6000803e3d6000fd5b508073ffffffffffffffffffffffffffffffffffffffff167fdf5983565e1f67d7cfa297d3729a3e95ec39dc41c53cfaf9f92bf23e9ad589bd836040518082815260200191505060405180910390a25050565b600160009054906101000a900473ffffffffffffffffffffffffffffffffffffffff1681565b600061046f61068d565b151561047a57600080fd5b600260009054906101000a900473ffffffffffffffffffffffffffffffffffffffff16905081600260006101000a81548173ffffffffffffffffffffffffffffffffffffffff021916908373ffffffffffffffffffffffffffffffffffffffff1602179055508073ffffffffffffffffffffffffffffffffffffffff167f96002de4f06f59b8d5ccae43c64b445572e1d530c9bc98d201018f5ac4843dbb3384604051808373ffffffffffffffffffffffffffffffffffffffff1673ffffffffffffffffffffffffffffffffffffffff1681526020018273ffffffffffffffffffffffffffffffffffffffff1673ffffffffffffffffffffffffffffffffffffffff1681526020019250505060405180910390a25050565b61059a61068d565b15156105a557600080fd5b600073ffffffffffffffffffffffffffffffffffffffff166000809054906101000a900473ffffffffffffffffffffffffffffffffffffffff1673ffffffffffffffffffffffffffffffffffffffff167f8be0079c531659141344cd1fd0a4f28419497f9722a3daafe3b4186f6b6457e060405160405180910390a360008060006101000a81548173ffffffffffffffffffffffffffffffffffffffff021916908373ffffffffffffffffffffffffffffffffffffffff160217905550565b60008060009054906101000a900473ffffffffffffffffffffffffffffffffffffffff16905090565b60008060009054906101000a900473ffffffffffffffffffffffffffffffffffffffff1673ffffffffffffffffffffffffffffffffffffffff163373ffffffffffffffffffffffffffffffffffffffff1614905090565b60006106ee61068d565b15156106f957600080fd5b600160009054906101000a900473ffffffffffffffffffffffffffffffffffffffff16905081600160006101000a81548173ffffffffffffffffffffffffffffffffffffffff021916908373ffffffffffffffffffffffffffffffffffffffff1602179055508073ffffffffffffffffffffffffffffffffffffffff167f8e50965f27112954dcece2b6acec24689db20cd8a09e23837f4c5cf6bd6a29e83384604051808373ffffffffffffffffffffffffffffffffffffffff1673ffffffffffffffffffffffffffffffffffffffff1681526020018273ffffffffffffffffffffffffffffffffffffffff1673ffffffffffffffffffffffffffffffffffffffff1681526020019250505060405180910390a25050565b600260009054906101000a900473ffffffffffffffffffffffffffffffffffffffff1681565b61083f61068d565b151561084a57600080fd5b61085381610856565b50565b600073ffffffffffffffffffffffffffffffffffffffff168173ffffffffffffffffffffffffffffffffffffffff161415151561089257600080fd5b8073ffffffffffffffffffffffffffffffffffffffff166000809054906101000a900473ffffffffffffffffffffffffffffffffffffffff1673ffffffffffffffffffffffffffffffffffffffff167f8be0079c531659141344cd1fd0a4f28419497f9722a3daafe3b4186f6b6457e060405160405180910390a3806000806101000a81548173ffffffffffffffffffffffffffffffffffffffff021916908373ffffffffffffffffffffffffffffffffffffffff160217905550505600a165627a7a723058206740b2b092d7517e37c1457fd01219554b66c1237dfff4cd4ba1ca26a7135f7f0029",
  "source": "pragma solidity ^0.4.24;\n\nimport \"openzeppelin-solidity/contracts/ownership/Ownable.sol\";\n\ncontract BondingCurve is Ownable {\n\n    // Keep the balances of ERC20s\n    address public tokenContract;\n\n    // Where business logic resides\n    address public logicContract;\n\n\n    event LogLogicContractChanged\n    (\n        address byWhom,\n        address indexed oldContract,\n        address newContract\n    );\n\n    event LogTokenContractChanged\n    (\n        address byWhom,\n        address indexed oldContract,\n        address newContract\n    );\n\n    event LogEthSent(\n        uint256 amount,\n        address indexed account\n    );\n\n    event LogEthReceived(\n        uint256 amount,\n        address indexed account\n    );\n\n    \n    // Enforce tokenContract only calls\n    modifier onlyTokenContract() {\n        require(msg.sender == tokenContract);\n        _;\n    }\n\n    // Enforce logicContract only calls\n    modifier onlyLogicContract() {\n        require(msg.sender == logicContract);\n        _;\n    }\n\n    constructor(address _logicContract, address _tokenContract) public {\n        setLogicContract(_logicContract);\n        setTokenContract(_tokenContract);\n    }\n\n    /**\n    * @dev Send ETH _amount to _account\n    */\n    function sendEth(uint256 _amount, address _account) public onlyLogicContract {\n        _account.transfer(_amount);\n        emit LogEthSent(_amount, _account);\n    }\n\n    // payable function mints tokens to sender (donation), sends 90% to logic contract for chairty\n    /**\n     * @dev The fallback function - accepts all ETH as donations to bonding curve. Need this as\n     * logic contract transfers the ETH allocation here (i.e. can't use this fallback function to call\n     * donate() in Logic.sol)\n     */\n    function () public payable {\n        emit LogEthReceived(msg.value, msg.sender);\n    }\n\n    /**\n    * @dev Set the 'logicContract' to a different contract address\n    */\n    function setLogicContract(address _logicContract) public onlyOwner {\n        address oldContract = logicContract;\n        logicContract = _logicContract;\n        emit LogLogicContractChanged(msg.sender, oldContract, _logicContract);\n    }\n\n    /**\n    * @dev Set the 'tokenContract' to a different contract address\n    */\n    function setTokenContract(address _tokenContract) public onlyOwner {\n        address oldContract = tokenContract;\n        tokenContract = _tokenContract;\n        emit LogTokenContractChanged(msg.sender, oldContract, _tokenContract);\n    }\n\n    //allow freezing (only logicContract)\n}",
  "sourcePath": "/Users/david/Documents/Documents - David’s MacBook Pro/GitHub/BondedDonations/contracts/BondingCurve.sol",
  "compiler": {
    "name": "solc",
    "version": "0.4.25+commit.59dbf8f1.Emscripten.clang"
  },
  "schemaVersion": "3.0.0-beta.1",
  "updatedAt": "2018-10-30T01:42:08.245Z"
}