{
  "contractName": "BondingCurveVault",
  "abi": [
    {
      "constant": false,
      "inputs": [],
      "name": "renounceOwnership",
      "outputs": [],
      "payable": false,
      "stateMutability": "nonpayable",
      "type": "function",
      "signature": "0x715018a6"
    },
    {
      "constant": true,
      "inputs": [],
      "name": "owner",
      "outputs": [
        {
          "name": "",
          "type": "address"
        }
      ],
      "payable": false,
      "stateMutability": "view",
      "type": "function",
      "signature": "0x8da5cb5b"
    },
    {
      "constant": true,
      "inputs": [],
      "name": "isOwner",
      "outputs": [
        {
          "name": "",
          "type": "bool"
        }
      ],
      "payable": false,
      "stateMutability": "view",
      "type": "function",
      "signature": "0x8f32d59b"
    },
    {
      "constant": true,
      "inputs": [],
      "name": "logicContract",
      "outputs": [
        {
          "name": "",
          "type": "address"
        }
      ],
      "payable": false,
      "stateMutability": "view",
      "type": "function",
      "signature": "0xcc0e97c9"
    },
    {
      "constant": false,
      "inputs": [
        {
          "name": "newOwner",
          "type": "address"
        }
      ],
      "name": "transferOwnership",
      "outputs": [],
      "payable": false,
      "stateMutability": "nonpayable",
      "type": "function",
      "signature": "0xf2fde38b"
    },
    {
      "inputs": [
        {
          "name": "_logicContract",
          "type": "address"
        }
      ],
      "payable": false,
      "stateMutability": "nonpayable",
      "type": "constructor",
      "signature": "constructor"
    },
    {
      "payable": true,
      "stateMutability": "payable",
      "type": "fallback"
    },
    {
      "anonymous": false,
      "inputs": [
        {
          "indexed": false,
          "name": "byWhom",
          "type": "address"
        },
        {
          "indexed": true,
          "name": "oldContract",
          "type": "address"
        },
        {
          "indexed": false,
          "name": "newContract",
          "type": "address"
        }
      ],
      "name": "LogLogicContractChanged",
      "type": "event",
      "signature": "0x96002de4f06f59b8d5ccae43c64b445572e1d530c9bc98d201018f5ac4843dbb"
    },
    {
      "anonymous": false,
      "inputs": [
        {
          "indexed": false,
          "name": "amount",
          "type": "uint256"
        },
        {
          "indexed": true,
          "name": "account",
          "type": "address"
        }
      ],
      "name": "LogEthSent",
      "type": "event",
      "signature": "0xdf5983565e1f67d7cfa297d3729a3e95ec39dc41c53cfaf9f92bf23e9ad589bd"
    },
    {
      "anonymous": false,
      "inputs": [
        {
          "indexed": false,
          "name": "amount",
          "type": "uint256"
        },
        {
          "indexed": true,
          "name": "account",
          "type": "address"
        }
      ],
      "name": "LogEthReceived",
      "type": "event",
      "signature": "0x8a68b2fe3158c268b3e8da102cd572ce692127bcc589402f0e06e2bfc0c3a9cf"
    },
    {
      "anonymous": false,
      "inputs": [
        {
          "indexed": true,
          "name": "previousOwner",
          "type": "address"
        },
        {
          "indexed": true,
          "name": "newOwner",
          "type": "address"
        }
      ],
      "name": "OwnershipTransferred",
      "type": "event",
      "signature": "0x8be0079c531659141344cd1fd0a4f28419497f9722a3daafe3b4186f6b6457e0"
    },
    {
      "constant": false,
      "inputs": [
        {
          "name": "_amount",
          "type": "uint256"
        },
        {
          "name": "_account",
          "type": "address"
        }
      ],
      "name": "sendEth",
      "outputs": [],
      "payable": false,
      "stateMutability": "nonpayable",
      "type": "function",
      "signature": "0x34368602"
    },
    {
      "constant": false,
      "inputs": [
        {
          "name": "_logicContract",
          "type": "address"
        }
      ],
      "name": "setLogicContract",
      "outputs": [],
      "payable": false,
      "stateMutability": "nonpayable",
      "type": "function",
      "signature": "0x5aa4470f"
    }
  ],
  "bytecode": "0x608060405234801561001057600080fd5b50604051602080610a2883398101806040528101908080519060200190929190505050336000806101000a81548173ffffffffffffffffffffffffffffffffffffffff021916908373ffffffffffffffffffffffffffffffffffffffff1602179055506000809054906101000a900473ffffffffffffffffffffffffffffffffffffffff1673ffffffffffffffffffffffffffffffffffffffff16600073ffffffffffffffffffffffffffffffffffffffff167f8be0079c531659141344cd1fd0a4f28419497f9722a3daafe3b4186f6b6457e060405160405180910390a36101078161010d640100000000026401000000009004565b506102a0565b6000610126610249640100000000026401000000009004565b151561013157600080fd5b600160009054906101000a900473ffffffffffffffffffffffffffffffffffffffff16905081600160006101000a81548173ffffffffffffffffffffffffffffffffffffffff021916908373ffffffffffffffffffffffffffffffffffffffff1602179055508073ffffffffffffffffffffffffffffffffffffffff167f96002de4f06f59b8d5ccae43c64b445572e1d530c9bc98d201018f5ac4843dbb3384604051808373ffffffffffffffffffffffffffffffffffffffff1673ffffffffffffffffffffffffffffffffffffffff1681526020018273ffffffffffffffffffffffffffffffffffffffff1673ffffffffffffffffffffffffffffffffffffffff1681526020019250505060405180910390a25050565b60008060009054906101000a900473ffffffffffffffffffffffffffffffffffffffff1673ffffffffffffffffffffffffffffffffffffffff163373ffffffffffffffffffffffffffffffffffffffff1614905090565b610779806102af6000396000f300608060405260043610610083576000357c0100000000000000000000000000000000000000000000000000000000900463ffffffff16806334368602146100d35780635aa4470f14610120578063715018a6146101635780638da5cb5b1461017a5780638f32d59b146101d1578063cc0e97c914610200578063f2fde38b14610257575b3373ffffffffffffffffffffffffffffffffffffffff167f8a68b2fe3158c268b3e8da102cd572ce692127bcc589402f0e06e2bfc0c3a9cf346040518082815260200191505060405180910390a2005b3480156100df57600080fd5b5061011e60048036038101908080359060200190929190803573ffffffffffffffffffffffffffffffffffffffff16906020019092919050505061029a565b005b34801561012c57600080fd5b50610161600480360381019080803573ffffffffffffffffffffffffffffffffffffffff16906020019092919050505061038f565b005b34801561016f57600080fd5b506101786104bc565b005b34801561018657600080fd5b5061018f61058e565b604051808273ffffffffffffffffffffffffffffffffffffffff1673ffffffffffffffffffffffffffffffffffffffff16815260200191505060405180910390f35b3480156101dd57600080fd5b506101e66105b7565b604051808215151515815260200191505060405180910390f35b34801561020c57600080fd5b5061021561060e565b604051808273ffffffffffffffffffffffffffffffffffffffff1673ffffffffffffffffffffffffffffffffffffffff16815260200191505060405180910390f35b34801561026357600080fd5b50610298600480360381019080803573ffffffffffffffffffffffffffffffffffffffff169060200190929190505050610634565b005b600160009054906101000a900473ffffffffffffffffffffffffffffffffffffffff1673ffffffffffffffffffffffffffffffffffffffff163373ffffffffffffffffffffffffffffffffffffffff161415156102f657600080fd5b8073ffffffffffffffffffffffffffffffffffffffff166108fc839081150290604051600060405180830381858888f1935050505015801561033c573d6000803e3d6000fd5b508073ffffffffffffffffffffffffffffffffffffffff167fdf5983565e1f67d7cfa297d3729a3e95ec39dc41c53cfaf9f92bf23e9ad589bd836040518082815260200191505060405180910390a25050565b60006103996105b7565b15156103a457600080fd5b600160009054906101000a900473ffffffffffffffffffffffffffffffffffffffff16905081600160006101000a81548173ffffffffffffffffffffffffffffffffffffffff021916908373ffffffffffffffffffffffffffffffffffffffff1602179055508073ffffffffffffffffffffffffffffffffffffffff167f96002de4f06f59b8d5ccae43c64b445572e1d530c9bc98d201018f5ac4843dbb3384604051808373ffffffffffffffffffffffffffffffffffffffff1673ffffffffffffffffffffffffffffffffffffffff1681526020018273ffffffffffffffffffffffffffffffffffffffff1673ffffffffffffffffffffffffffffffffffffffff1681526020019250505060405180910390a25050565b6104c46105b7565b15156104cf57600080fd5b600073ffffffffffffffffffffffffffffffffffffffff166000809054906101000a900473ffffffffffffffffffffffffffffffffffffffff1673ffffffffffffffffffffffffffffffffffffffff167f8be0079c531659141344cd1fd0a4f28419497f9722a3daafe3b4186f6b6457e060405160405180910390a360008060006101000a81548173ffffffffffffffffffffffffffffffffffffffff021916908373ffffffffffffffffffffffffffffffffffffffff160217905550565b60008060009054906101000a900473ffffffffffffffffffffffffffffffffffffffff16905090565b60008060009054906101000a900473ffffffffffffffffffffffffffffffffffffffff1673ffffffffffffffffffffffffffffffffffffffff163373ffffffffffffffffffffffffffffffffffffffff1614905090565b600160009054906101000a900473ffffffffffffffffffffffffffffffffffffffff1681565b61063c6105b7565b151561064757600080fd5b61065081610653565b50565b600073ffffffffffffffffffffffffffffffffffffffff168173ffffffffffffffffffffffffffffffffffffffff161415151561068f57600080fd5b8073ffffffffffffffffffffffffffffffffffffffff166000809054906101000a900473ffffffffffffffffffffffffffffffffffffffff1673ffffffffffffffffffffffffffffffffffffffff167f8be0079c531659141344cd1fd0a4f28419497f9722a3daafe3b4186f6b6457e060405160405180910390a3806000806101000a81548173ffffffffffffffffffffffffffffffffffffffff021916908373ffffffffffffffffffffffffffffffffffffffff160217905550505600a165627a7a72305820dde57091fb942f459e64657ca278d685d39f3a54613a4a88aeddcffcda4e56000029",
  "source": "pragma solidity ^0.4.24;\n\nimport \"openzeppelin-solidity/contracts/ownership/Ownable.sol\";\n\ncontract BondingCurveVault is Ownable {\n\n    // Where business logic resides\n    address public logicContract;\n\n    event LogLogicContractChanged\n    (\n        address byWhom,\n        address indexed oldContract,\n        address newContract\n    );\n\n    event LogEthSent(\n        uint256 amount,\n        address indexed account\n    );\n\n    event LogEthReceived(\n        uint256 amount,\n        address indexed account\n    );\n\n    // Enforce logicContract only calls\n    modifier onlyLogicContract() {\n        require(msg.sender == logicContract);\n        _;\n    }\n\n    constructor(address _logicContract) public {\n        setLogicContract(_logicContract);\n    }\n\n    /**\n    * @dev Send ETH _amount to _account\n    */\n    function sendEth(uint256 _amount, address _account) public onlyLogicContract {\n        _account.transfer(_amount);\n        emit LogEthSent(_amount, _account);\n    }\n\n    // payable function mints tokens to sender (donation), sends 90% to logic contract for charity\n    /**\n     * @dev The fallback function - accepts all ETH as donations to bonding curve. Need this as\n     * logic contract transfers the ETH allocation here (i.e. can't use this fallback function to call\n     * donate() in Logic.sol)\n     */\n    function () public payable {\n        emit LogEthReceived(msg.value, msg.sender);\n    }\n\n    /**\n    * @dev Set the 'logicContract' to a different contract address\n    */\n    function setLogicContract(address _logicContract) public onlyOwner {\n        address oldContract = logicContract;\n        logicContract = _logicContract;\n        emit LogLogicContractChanged(msg.sender, oldContract, _logicContract);\n    }\n\n    //allow freezing (only logicContract)\n}",
  "sourcePath": "/Users/kirilivanov/DEV/BondedDonations/contracts/BondingCurveVault.sol",
  "compiler": {
    "name": "solc",
    "version": "0.4.25+commit.59dbf8f1.Emscripten.clang"
  },
  "schemaVersion": "3.0.0-beta.1",
  "updatedAt": "2018-11-20T21:38:27.767Z"
}