{
  "contractName": "DonationLogic",
  "abi": [
    {
      "constant": true,
      "inputs": [
        {
          "name": "_sellAmount",
          "type": "uint256"
        },
        {
          "name": "_tokenBalance",
          "type": "uint256"
        }
      ],
      "name": "calculateReturn",
      "outputs": [
        {
          "name": "",
          "type": "uint256"
        }
      ],
      "payable": false,
      "stateMutability": "view",
      "type": "function",
      "signature": "0x06dd4c4e"
    },
    {
      "constant": false,
      "inputs": [
        {
          "name": "_bondingVault",
          "type": "address"
        }
      ],
      "name": "setBondingVault",
      "outputs": [],
      "payable": false,
      "stateMutability": "nonpayable",
      "type": "function",
      "signature": "0x07c86f94"
    },
    {
      "constant": false,
      "inputs": [
        {
          "name": "_account",
          "type": "address"
        },
        {
          "name": "_amount",
          "type": "uint256"
        },
        {
          "name": "_ipfsHash",
          "type": "string"
        }
      ],
      "name": "award",
      "outputs": [],
      "payable": false,
      "stateMutability": "nonpayable",
      "type": "function",
      "signature": "0x0c7814f1"
    },
    {
      "constant": true,
      "inputs": [
        {
          "name": "_tokenHolder",
          "type": "address"
        }
      ],
      "name": "coolDownPeriod",
      "outputs": [
        {
          "name": "",
          "type": "uint256"
        }
      ],
      "payable": false,
      "stateMutability": "view",
      "type": "function",
      "signature": "0x132611f0"
    },
    {
      "constant": true,
      "inputs": [],
      "name": "tokenContract",
      "outputs": [
        {
          "name": "",
          "type": "address"
        }
      ],
      "payable": false,
      "stateMutability": "view",
      "type": "function",
      "signature": "0x55a373d6"
    },
    {
      "constant": false,
      "inputs": [
        {
          "name": "_tokenContract",
          "type": "address"
        },
        {
          "name": "_bondingVaultContract",
          "type": "address"
        }
      ],
      "name": "setTokenAndBondingVault",
      "outputs": [],
      "payable": false,
      "stateMutability": "nonpayable",
      "type": "function",
      "signature": "0x6a017b16"
    },
    {
      "constant": false,
      "inputs": [],
      "name": "renounceOwnership",
      "outputs": [],
      "payable": false,
      "stateMutability": "nonpayable",
      "type": "function",
      "signature": "0x715018a6"
    },
    {
      "constant": false,
      "inputs": [
        {
          "name": "_minEth",
          "type": "uint256"
        }
      ],
      "name": "setMinEth",
      "outputs": [],
      "payable": false,
      "stateMutability": "nonpayable",
      "type": "function",
      "signature": "0x854d9ed9"
    },
    {
      "constant": true,
      "inputs": [],
      "name": "owner",
      "outputs": [
        {
          "name": "",
          "type": "address"
        }
      ],
      "payable": false,
      "stateMutability": "view",
      "type": "function",
      "signature": "0x8da5cb5b"
    },
    {
      "constant": true,
      "inputs": [],
      "name": "isOwner",
      "outputs": [
        {
          "name": "",
          "type": "bool"
        }
      ],
      "payable": false,
      "stateMutability": "view",
      "type": "function",
      "signature": "0x8f32d59b"
    },
    {
      "constant": true,
      "inputs": [],
      "name": "kycEnabled",
      "outputs": [
        {
          "name": "",
          "type": "bool"
        }
      ],
      "payable": false,
      "stateMutability": "view",
      "type": "function",
      "signature": "0xa6fcb053"
    },
    {
      "constant": true,
      "inputs": [],
      "name": "charityAddress",
      "outputs": [
        {
          "name": "",
          "type": "address"
        }
      ],
      "payable": false,
      "stateMutability": "view",
      "type": "function",
      "signature": "0xafcf2fc4"
    },
    {
      "constant": true,
      "inputs": [],
      "name": "bondingVault",
      "outputs": [
        {
          "name": "",
          "type": "address"
        }
      ],
      "payable": false,
      "stateMutability": "view",
      "type": "function",
      "signature": "0xb67f8738"
    },
    {
      "constant": false,
      "inputs": [
        {
          "name": "_tokenContract",
          "type": "address"
        }
      ],
      "name": "setTokenContract",
      "outputs": [],
      "payable": false,
      "stateMutability": "nonpayable",
      "type": "function",
      "signature": "0xbbcd5bbe"
    },
    {
      "constant": false,
      "inputs": [
        {
          "name": "_amount",
          "type": "uint256"
        }
      ],
      "name": "sell",
      "outputs": [
        {
          "name": "",
          "type": "bool"
        }
      ],
      "payable": false,
      "stateMutability": "nonpayable",
      "type": "function",
      "signature": "0xe4849b32"
    },
    {
      "constant": true,
      "inputs": [],
      "name": "minEth",
      "outputs": [
        {
          "name": "",
          "type": "uint256"
        }
      ],
      "payable": false,
      "stateMutability": "view",
      "type": "function",
      "signature": "0xf1fb3ace"
    },
    {
      "constant": false,
      "inputs": [
        {
          "name": "newOwner",
          "type": "address"
        }
      ],
      "name": "transferOwnership",
      "outputs": [],
      "payable": false,
      "stateMutability": "nonpayable",
      "type": "function",
      "signature": "0xf2fde38b"
    },
    {
      "inputs": [
        {
          "name": "_charityAddress",
          "type": "address"
        }
      ],
      "payable": false,
      "stateMutability": "nonpayable",
      "type": "constructor",
      "signature": "constructor"
    },
    {
      "payable": true,
      "stateMutability": "payable",
      "type": "fallback"
    },
    {
      "anonymous": false,
      "inputs": [
        {
          "indexed": false,
          "name": "byWhom",
          "type": "address"
        },
        {
          "indexed": false,
          "name": "oldAddress",
          "type": "address"
        },
        {
          "indexed": false,
          "name": "newAddress",
          "type": "address"
        }
      ],
      "name": "LogCharityAddressChanged",
      "type": "event",
      "signature": "0xf516a178a831b8ee80532d0b16f0a1f07320bf62d7fb0367a8194011bc44fef5"
    },
    {
      "anonymous": false,
      "inputs": [
        {
          "indexed": false,
          "name": "byWhom",
          "type": "address"
        },
        {
          "indexed": false,
          "name": "amount",
          "type": "uint256"
        }
      ],
      "name": "LogDonationReceived",
      "type": "event",
      "signature": "0xde5c26dd3fd805828d78c07f1efc4c8972ca8efa32679f943954cbba78eccef0"
    },
    {
      "anonymous": false,
      "inputs": [
        {
          "indexed": false,
          "name": "amount",
          "type": "uint256"
        },
        {
          "indexed": true,
          "name": "account",
          "type": "address"
        }
      ],
      "name": "LogCharityAllocationSent",
      "type": "event",
      "signature": "0xcd2309e8e98adc2237be23f4a19fdf149d3046ddc76b6b16423932cb01324f9d"
    },
    {
      "anonymous": false,
      "inputs": [
        {
          "indexed": false,
          "name": "byWhom",
          "type": "address"
        },
        {
          "indexed": false,
          "name": "oldContract",
          "type": "address"
        },
        {
          "indexed": false,
          "name": "newContract",
          "type": "address"
        }
      ],
      "name": "LogTokenContractChanged",
      "type": "event",
      "signature": "0x8e50965f27112954dcece2b6acec24689db20cd8a09e23837f4c5cf6bd6a29e8"
    },
    {
      "anonymous": false,
      "inputs": [
        {
          "indexed": false,
          "name": "byWhom",
          "type": "address"
        },
        {
          "indexed": false,
          "name": "oldContract",
          "type": "address"
        },
        {
          "indexed": false,
          "name": "newContract",
          "type": "address"
        }
      ],
      "name": "LogBondingVaultChanged",
      "type": "event",
      "signature": "0x234aa0a04118cb90f26f79b5f7b16f8385cf79fb0420a60d26478d6998179750"
    },
    {
      "anonymous": false,
      "inputs": [
        {
          "indexed": false,
          "name": "byWhom",
          "type": "address"
        },
        {
          "indexed": false,
          "name": "oldAmount",
          "type": "uint256"
        },
        {
          "indexed": false,
          "name": "newAmount",
          "type": "uint256"
        }
      ],
      "name": "LogMinEthChanged",
      "type": "event",
      "signature": "0x1e1fdbd340901d436c69ac3496a4171ebc1b92ef074c5ff964c1b75398e1d28b"
    },
    {
      "anonymous": false,
      "inputs": [
        {
          "indexed": true,
          "name": "previousOwner",
          "type": "address"
        },
        {
          "indexed": true,
          "name": "newOwner",
          "type": "address"
        }
      ],
      "name": "OwnershipTransferred",
      "type": "event",
      "signature": "0x8be0079c531659141344cd1fd0a4f28419497f9722a3daafe3b4186f6b6457e0"
    },
    {
      "constant": false,
      "inputs": [],
      "name": "donate",
      "outputs": [],
      "payable": true,
      "stateMutability": "payable",
      "type": "function",
      "signature": "0xed88c68e"
    },
    {
      "constant": false,
      "inputs": [
        {
          "name": "_charityAddress",
          "type": "address"
        }
      ],
      "name": "setCharityAddress",
      "outputs": [],
      "payable": false,
      "stateMutability": "nonpayable",
      "type": "function",
      "signature": "0x0c9be46d"
    }
  ],
  "bytecode": "0x608060405234801561001057600080fd5b50604051602080611c7983398101806040528101908080519060200190929190505050336000806101000a81548173ffffffffffffffffffffffffffffffffffffffff021916908373ffffffffffffffffffffffffffffffffffffffff1602179055506000809054906101000a900473ffffffffffffffffffffffffffffffffffffffff1673ffffffffffffffffffffffffffffffffffffffff16600073ffffffffffffffffffffffffffffffffffffffff167f8be0079c531659141344cd1fd0a4f28419497f9722a3daafe3b4186f6b6457e060405160405180910390a380600460006101000a81548173ffffffffffffffffffffffffffffffffffffffff021916908373ffffffffffffffffffffffffffffffffffffffff16021790555050611b39806101406000396000f300608060405260043610610107576000357c0100000000000000000000000000000000000000000000000000000000900463ffffffff16806306dd4c4e1461023957806307c86f94146102845780630c7814f1146102c75780630c9be46d1461035a578063132611f01461039d57806355a373d6146103f45780636a017b161461044b578063715018a6146104ae578063854d9ed9146104c55780638da5cb5b146104f25780638f32d59b14610549578063a6fcb05314610578578063afcf2fc4146105a7578063b67f8738146105fe578063bbcd5bbe14610655578063e4849b3214610698578063ed88c68e146106dd578063f1fb3ace146106e7578063f2fde38b14610712575b600073ffffffffffffffffffffffffffffffffffffffff16600260009054906101000a900473ffffffffffffffffffffffffffffffffffffffff1673ffffffffffffffffffffffffffffffffffffffff16141515156101ce576040517f08c379a00000000000000000000000000000000000000000000000000000000081526004018080602001828103825260108152602001807f5661756c74206973206d697373696e670000000000000000000000000000000081525060200191505060405180910390fd5b600260009054906101000a900473ffffffffffffffffffffffffffffffffffffffff1673ffffffffffffffffffffffffffffffffffffffff166108fc349081150290604051600060405180830381858888f19350505050158015610236573d6000803e3d6000fd5b50005b34801561024557600080fd5b5061026e6004803603810190808035906020019092919080359060200190929190505050610755565b6040518082815260200191505060405180910390f35b34801561029057600080fd5b506102c5600480360381019080803573ffffffffffffffffffffffffffffffffffffffff1690602001909291905050506109f5565b005b3480156102d357600080fd5b50610358600480360381019080803573ffffffffffffffffffffffffffffffffffffffff16906020019092919080359060200190929190803590602001908201803590602001908080601f0160208091040260200160405190810160405280939291908181526020018383808284378201915050505050509192919290505050610b3f565b005b34801561036657600080fd5b5061039b600480360381019080803573ffffffffffffffffffffffffffffffffffffffff169060200190929190505050610c45565b005b3480156103a957600080fd5b506103de600480360381019080803573ffffffffffffffffffffffffffffffffffffffff169060200190929190505050610d8f565b6040518082815260200191505060405180910390f35b34801561040057600080fd5b50610409610d99565b604051808273ffffffffffffffffffffffffffffffffffffffff1673ffffffffffffffffffffffffffffffffffffffff16815260200191505060405180910390f35b34801561045757600080fd5b506104ac600480360381019080803573ffffffffffffffffffffffffffffffffffffffff169060200190929190803573ffffffffffffffffffffffffffffffffffffffff169060200190929190505050610dbf565b005b3480156104ba57600080fd5b506104c3610de8565b005b3480156104d157600080fd5b506104f060048036038101908080359060200190929190505050610eba565b005b3480156104fe57600080fd5b50610507610f52565b604051808273ffffffffffffffffffffffffffffffffffffffff1673ffffffffffffffffffffffffffffffffffffffff16815260200191505060405180910390f35b34801561055557600080fd5b5061055e610f7b565b604051808215151515815260200191505060405180910390f35b34801561058457600080fd5b5061058d610fd2565b604051808215151515815260200191505060405180910390f35b3480156105b357600080fd5b506105bc610fe5565b604051808273ffffffffffffffffffffffffffffffffffffffff1673ffffffffffffffffffffffffffffffffffffffff16815260200191505060405180910390f35b34801561060a57600080fd5b5061061361100b565b604051808273ffffffffffffffffffffffffffffffffffffffff1673ffffffffffffffffffffffffffffffffffffffff16815260200191505060405180910390f35b34801561066157600080fd5b50610696600480360381019080803573ffffffffffffffffffffffffffffffffffffffff169060200190929190505050611031565b005b3480156106a457600080fd5b506106c36004803603810190808035906020019092919050505061117b565b604051808215151515815260200191505060405180910390f35b6106e56115ca565b005b3480156106f357600080fd5b506106fc6118ab565b6040518082815260200191505060405180910390f35b34801561071e57600080fd5b50610753600480360381019080803573ffffffffffffffffffffffffffffffffffffffff1690602001909291905050506118b1565b005b60008060008060008060008888101515156107fe576040517f08c379a00000000000000000000000000000000000000000000000000000000081526004018080602001828103825260278152602001807f5573657220747279696e6720746f2073656c6c206d6f7265207468616e20746881526020017f657920686176650000000000000000000000000000000000000000000000000081525060400191505060405180910390fd5b600160009054906101000a900473ffffffffffffffffffffffffffffffffffffffff1673ffffffffffffffffffffffffffffffffffffffff16636c9c2faf6040518163ffffffff167c0100000000000000000000000000000000000000000000000000000000028152600401602060405180830381600087803b15801561088457600080fd5b505af1158015610898573d6000803e3d6000fd5b505050506040513d60208110156108ae57600080fd5b81019080805190602001909291905050509550670de0b6b3a7640000945060006108d733610d8f565b1115156109e457610903866108f5878b6118d090919063ffffffff16565b61190e90919063ffffffff16565b93506109518561094386610935896004026109278b8c61190e90919063ffffffff16565b61190e90919063ffffffff16565b61193890919063ffffffff16565b61190e90919063ffffffff16565b92506109c5856109b76109a689600260009054906101000a900473ffffffffffffffffffffffffffffffffffffffff1673ffffffffffffffffffffffffffffffffffffffff163161190e90919063ffffffff16565b86880a6118d090919063ffffffff16565b61190e90919063ffffffff16565b91506109da89836118d090919063ffffffff16565b90508096506109e9565b600096505b50505050505092915050565b60006109ff610f7b565b1515610a0a57600080fd5b600260009054906101000a900473ffffffffffffffffffffffffffffffffffffffff16905081600260006101000a81548173ffffffffffffffffffffffffffffffffffffffff021916908373ffffffffffffffffffffffffffffffffffffffff1602179055507f234aa0a04118cb90f26f79b5f7b16f8385cf79fb0420a60d26478d6998179750338284604051808473ffffffffffffffffffffffffffffffffffffffff1673ffffffffffffffffffffffffffffffffffffffff1681526020018373ffffffffffffffffffffffffffffffffffffffff1673ffffffffffffffffffffffffffffffffffffffff1681526020018273ffffffffffffffffffffffffffffffffffffffff1673ffffffffffffffffffffffffffffffffffffffff168152602001935050505060405180910390a15050565b600160009054906101000a900473ffffffffffffffffffffffffffffffffffffffff1673ffffffffffffffffffffffffffffffffffffffff166379c6506884846040518363ffffffff167c0100000000000000000000000000000000000000000000000000000000028152600401808373ffffffffffffffffffffffffffffffffffffffff1673ffffffffffffffffffffffffffffffffffffffff16815260200182815260200192505050602060405180830381600087803b158015610c0457600080fd5b505af1158015610c18573d6000803e3d6000fd5b505050506040513d6020811015610c2e57600080fd5b810190808051906020019092919050505050505050565b6000610c4f610f7b565b1515610c5a57600080fd5b600460009054906101000a900473ffffffffffffffffffffffffffffffffffffffff16905081600460006101000a81548173ffffffffffffffffffffffffffffffffffffffff021916908373ffffffffffffffffffffffffffffffffffffffff1602179055507ff516a178a831b8ee80532d0b16f0a1f07320bf62d7fb0367a8194011bc44fef5338284604051808473ffffffffffffffffffffffffffffffffffffffff1673ffffffffffffffffffffffffffffffffffffffff1681526020018373ffffffffffffffffffffffffffffffffffffffff1673ffffffffffffffffffffffffffffffffffffffff1681526020018273ffffffffffffffffffffffffffffffffffffffff1673ffffffffffffffffffffffffffffffffffffffff168152602001935050505060405180910390a15050565b6000809050919050565b600160009054906101000a900473ffffffffffffffffffffffffffffffffffffffff1681565b610dc7610f7b565b1515610dd257600080fd5b610ddb82611031565b610de4816109f5565b5050565b610df0610f7b565b1515610dfb57600080fd5b600073ffffffffffffffffffffffffffffffffffffffff166000809054906101000a900473ffffffffffffffffffffffffffffffffffffffff1673ffffffffffffffffffffffffffffffffffffffff167f8be0079c531659141344cd1fd0a4f28419497f9722a3daafe3b4186f6b6457e060405160405180910390a360008060006101000a81548173ffffffffffffffffffffffffffffffffffffffff021916908373ffffffffffffffffffffffffffffffffffffffff160217905550565b6000610ec4610f7b565b1515610ecf57600080fd5b6003549050816003819055507f1e1fdbd340901d436c69ac3496a4171ebc1b92ef074c5ff964c1b75398e1d28b338284604051808473ffffffffffffffffffffffffffffffffffffffff1673ffffffffffffffffffffffffffffffffffffffff168152602001838152602001828152602001935050505060405180910390a15050565b60008060009054906101000a900473ffffffffffffffffffffffffffffffffffffffff16905090565b60008060009054906101000a900473ffffffffffffffffffffffffffffffffffffffff1673ffffffffffffffffffffffffffffffffffffffff163373ffffffffffffffffffffffffffffffffffffffff1614905090565b600460149054906101000a900460ff1681565b600460009054906101000a900473ffffffffffffffffffffffffffffffffffffffff1681565b600260009054906101000a900473ffffffffffffffffffffffffffffffffffffffff1681565b600061103b610f7b565b151561104657600080fd5b600160009054906101000a900473ffffffffffffffffffffffffffffffffffffffff16905081600160006101000a81548173ffffffffffffffffffffffffffffffffffffffff021916908373ffffffffffffffffffffffffffffffffffffffff1602179055507f8e50965f27112954dcece2b6acec24689db20cd8a09e23837f4c5cf6bd6a29e8338284604051808473ffffffffffffffffffffffffffffffffffffffff1673ffffffffffffffffffffffffffffffffffffffff1681526020018373ffffffffffffffffffffffffffffffffffffffff1673ffffffffffffffffffffffffffffffffffffffff1681526020018273ffffffffffffffffffffffffffffffffffffffff1673ffffffffffffffffffffffffffffffffffffffff168152602001935050505060405180910390a15050565b6000806000600354600260009054906101000a900473ffffffffffffffffffffffffffffffffffffffff1673ffffffffffffffffffffffffffffffffffffffff163110151515611259576040517f08c379a00000000000000000000000000000000000000000000000000000000081526004018080602001828103825260288152602001807f4e6f7420656e6f7567682045544820696e20626f6e64696e67207661756c742081526020017f636f6e747261637400000000000000000000000000000000000000000000000081525060400191505060405180910390fd5b600160009054906101000a900473ffffffffffffffffffffffffffffffffffffffff1673ffffffffffffffffffffffffffffffffffffffff166370a08231336040518263ffffffff167c0100000000000000000000000000000000000000000000000000000000028152600401808273ffffffffffffffffffffffffffffffffffffffff1673ffffffffffffffffffffffffffffffffffffffff168152602001915050602060405180830381600087803b15801561131657600080fd5b505af115801561132a573d6000803e3d6000fd5b505050506040513d602081101561134057600080fd5b810190808051906020019092919050505091506000841180156113635750838210155b15156113fd576040517f08c379a00000000000000000000000000000000000000000000000000000000081526004018080602001828103825260398152602001807f416d6f756e74206e6565647320746f206265203e203020616e6420746f6b656e81526020017f42616c616e6365203e3d20616d6f756e7420746f2073656c6c0000000000000081525060400191505060405180910390fd5b6114078483610755565b9050600160009054906101000a900473ffffffffffffffffffffffffffffffffffffffff1673ffffffffffffffffffffffffffffffffffffffff16639dc29fac33866040518363ffffffff167c0100000000000000000000000000000000000000000000000000000000028152600401808373ffffffffffffffffffffffffffffffffffffffff1673ffffffffffffffffffffffffffffffffffffffff16815260200182815260200192505050600060405180830381600087803b1580156114ce57600080fd5b505af11580156114e2573d6000803e3d6000fd5b50505050600260009054906101000a900473ffffffffffffffffffffffffffffffffffffffff1673ffffffffffffffffffffffffffffffffffffffff16633436860282336040518363ffffffff167c0100000000000000000000000000000000000000000000000000000000028152600401808381526020018273ffffffffffffffffffffffffffffffffffffffff1673ffffffffffffffffffffffffffffffffffffffff16815260200192505050600060405180830381600087803b1580156115ab57600080fd5b505af11580156115bf573d6000803e3d6000fd5b505050505050919050565b60008060008073ffffffffffffffffffffffffffffffffffffffff16600460009054906101000a900473ffffffffffffffffffffffffffffffffffffffff1673ffffffffffffffffffffffffffffffffffffffff16141515156116bb576040517f08c379a00000000000000000000000000000000000000000000000000000000081526004018080602001828103825260248152602001807f436861726974792061646472657373206973206e6f742073657420636f72726581526020017f63746c790000000000000000000000000000000000000000000000000000000081525060400191505060405180910390fd5b600034111515611733576040517f08c379a000000000000000000000000000000000000000000000000000000000815260040180806020018281038252601f8152602001807f4d75737420696e636c75646520736f6d652045544820746f20646f6e6174650081525060200191505060405180910390fd5b6064925061174b605a346118d090919063ffffffff16565b9150611784836117768461176887346118d090919063ffffffff16565b61193890919063ffffffff16565b61190e90919063ffffffff16565b90506117a161179c848461190e90919063ffffffff16565b611959565b3073ffffffffffffffffffffffffffffffffffffffff166108fc829081150290604051600060405180830381858888f193505050501580156117e7573d6000803e3d6000fd5b5061183b33611800600a346118d090919063ffffffff16565b6040805190810160405280601181526020017f446f6e6174696f6e207265636569766564000000000000000000000000000000815250610b3f565b7fde5c26dd3fd805828d78c07f1efc4c8972ca8efa32679f943954cbba78eccef03334604051808373ffffffffffffffffffffffffffffffffffffffff1673ffffffffffffffffffffffffffffffffffffffff1681526020018281526020019250505060405180910390a1505050565b60035481565b6118b9610f7b565b15156118c457600080fd5b6118cd81611a13565b50565b60008060008414156118e55760009150611907565b82840290508284828115156118f657fe5b0414151561190357600080fd5b8091505b5092915050565b60008060008311151561192057600080fd5b828481151561192b57fe5b0490508091505092915050565b60008083831115151561194a57600080fd5b82840390508091505092915050565b600460009054906101000a900473ffffffffffffffffffffffffffffffffffffffff1673ffffffffffffffffffffffffffffffffffffffff166108fc829081150290604051600060405180830381858888f193505050501580156119c1573d6000803e3d6000fd5b503373ffffffffffffffffffffffffffffffffffffffff167fcd2309e8e98adc2237be23f4a19fdf149d3046ddc76b6b16423932cb01324f9d826040518082815260200191505060405180910390a250565b600073ffffffffffffffffffffffffffffffffffffffff168173ffffffffffffffffffffffffffffffffffffffff1614151515611a4f57600080fd5b8073ffffffffffffffffffffffffffffffffffffffff166000809054906101000a900473ffffffffffffffffffffffffffffffffffffffff1673ffffffffffffffffffffffffffffffffffffffff167f8be0079c531659141344cd1fd0a4f28419497f9722a3daafe3b4186f6b6457e060405160405180910390a3806000806101000a81548173ffffffffffffffffffffffffffffffffffffffff021916908373ffffffffffffffffffffffffffffffffffffffff160217905550505600a165627a7a72305820bb387324abb2b3ef5e48af357ec7224932843fa509847b0e43f0a4fd3a09f4ec0029",
  "source": "pragma solidity ^0.4.24;\n\nimport \"./Logic.sol\";\n\n\n/**\n * @title Proof of Concept contract for Donation customization of Bonding Curve Logic\n */\ncontract DonationLogic is Logic {\n\n    // Charity address\n    address public charityAddress;\n\n    // KYC flag\n    bool public kycEnabled;\n\n    event LogCharityAddressChanged\n    (\n        address byWhom,\n        address oldAddress,\n        address newAddress\n    );\n\n    event LogDonationReceived\n    (\n        address byWhom,\n        uint256 amount\n    );\n\n    event LogCharityAllocationSent(\n        uint256 amount,\n        address indexed account\n    );\n\n    modifier kycCheck() {\n        if (kycEnabled) {\n            // require whitelisted address (see Bloom docs?)\n        }\n        _;\n    }\n\n    constructor(address _charityAddress) public {\n        charityAddress = _charityAddress;\n    }\n\n    /**\n    * @dev donation function splits ETH, 90% to charityAddress, 10% to fund bonding curve\n    */\n    function donate() public payable {\n        require(charityAddress != address(0), \"Charity address is not set correctly\");\n        require(msg.value > 0, \"Must include some ETH to donate\");\n\n        // Make ETH distributions\n        uint256 multiplier = 100;\n        uint256 charityAllocation = (msg.value).mul(90); // 90% with multiplier\n        uint256 bondingAllocation = (msg.value.mul(multiplier)).sub(charityAllocation).div(multiplier);\n        sendToCharity(charityAllocation.div(multiplier));\n\n        //fund the Logic with ETH calling fallback function\n        address(this).transfer(bondingAllocation);\n\n        // Mint the tokens - 10:1 ratio (e.g. for every 1 ETH sent, you get 10 tokens)\n        super.award(msg.sender, (msg.value).mul(10),  'Donation received');\n        emit LogDonationReceived(msg.sender, msg.value);\n    }\n\n    // TODO: - DAI integration: buy DAI with ETH, store in charityAddress\n    function sendToCharity(uint256 _amount) internal {\n        // this should auto convert to DAI\n        // look into OasisDEX or Bancor on-chain tx\n        charityAddress.transfer(_amount);\n        emit LogCharityAllocationSent(_amount, msg.sender);\n    }\n\n    // KYC logic - stretch goals\n    // add donator to whitelist\n    // see Bloom docs\n\n    // only owner\n\n    /**\n    * @dev Set the 'charityAddress' to a different contract address\n    */\n    function setCharityAddress(address _charityAddress) public onlyOwner {\n        address oldAddress = charityAddress;\n        charityAddress = _charityAddress;\n        emit LogCharityAddressChanged(msg.sender, oldAddress, _charityAddress);\n    }\n\n}",
  "sourcePath": "/Users/kirilivanov/DEV/BondedDonations/contracts/DonationLogic.sol",
  "compiler": {
    "name": "solc",
    "version": "0.4.25+commit.59dbf8f1.Emscripten.clang"
  },
  "schemaVersion": "3.0.0-beta.1",
  "updatedAt": "2018-11-05T15:51:28.952Z"
}