{
  "contractName": "DonationLogic",
  "abi": [
    {
      "constant": true,
      "inputs": [
        {
          "name": "_sellAmount",
          "type": "uint256"
        },
        {
          "name": "_tokenBalance",
          "type": "uint256"
        }
      ],
      "name": "calculateReturn",
      "outputs": [
        {
          "name": "finalPrice",
          "type": "uint256"
        },
        {
          "name": "redeemableEth",
          "type": "uint256"
        }
      ],
      "payable": false,
      "stateMutability": "view",
      "type": "function",
      "signature": "0x06dd4c4e"
    },
    {
      "constant": false,
      "inputs": [
        {
          "name": "_bondingVault",
          "type": "address"
        }
      ],
      "name": "setBondingVault",
      "outputs": [],
      "payable": false,
      "stateMutability": "nonpayable",
      "type": "function",
      "signature": "0x07c86f94"
    },
    {
      "constant": false,
      "inputs": [
        {
          "name": "_account",
          "type": "address"
        },
        {
          "name": "_amount",
          "type": "uint256"
        },
        {
          "name": "_ipfsHash",
          "type": "string"
        }
      ],
      "name": "award",
      "outputs": [],
      "payable": false,
      "stateMutability": "nonpayable",
      "type": "function",
      "signature": "0x0c7814f1"
    },
    {
      "constant": true,
      "inputs": [
        {
          "name": "_tokenHolder",
          "type": "address"
        }
      ],
      "name": "coolDownPeriod",
      "outputs": [
        {
          "name": "",
          "type": "uint256"
        }
      ],
      "payable": false,
      "stateMutability": "view",
      "type": "function",
      "signature": "0x132611f0"
    },
    {
      "constant": true,
      "inputs": [],
      "name": "tokenContract",
      "outputs": [
        {
          "name": "",
          "type": "address"
        }
      ],
      "payable": false,
      "stateMutability": "view",
      "type": "function",
      "signature": "0x55a373d6"
    },
    {
      "constant": false,
      "inputs": [
        {
          "name": "_tokenContract",
          "type": "address"
        },
        {
          "name": "_bondingVaultContract",
          "type": "address"
        }
      ],
      "name": "setTokenAndBondingVault",
      "outputs": [],
      "payable": false,
      "stateMutability": "nonpayable",
      "type": "function",
      "signature": "0x6a017b16"
    },
    {
      "constant": false,
      "inputs": [],
      "name": "renounceOwnership",
      "outputs": [],
      "payable": false,
      "stateMutability": "nonpayable",
      "type": "function",
      "signature": "0x715018a6"
    },
    {
      "constant": false,
      "inputs": [],
      "name": "sponsor",
      "outputs": [],
      "payable": true,
      "stateMutability": "payable",
      "type": "function",
      "signature": "0x77c93662"
    },
    {
      "constant": false,
      "inputs": [
        {
          "name": "_minEth",
          "type": "uint256"
        }
      ],
      "name": "setMinEth",
      "outputs": [],
      "payable": false,
      "stateMutability": "nonpayable",
      "type": "function",
      "signature": "0x854d9ed9"
    },
    {
      "constant": true,
      "inputs": [],
      "name": "owner",
      "outputs": [
        {
          "name": "",
          "type": "address"
        }
      ],
      "payable": false,
      "stateMutability": "view",
      "type": "function",
      "signature": "0x8da5cb5b"
    },
    {
      "constant": true,
      "inputs": [],
      "name": "isOwner",
      "outputs": [
        {
          "name": "",
          "type": "bool"
        }
      ],
      "payable": false,
      "stateMutability": "view",
      "type": "function",
      "signature": "0x8f32d59b"
    },
    {
      "constant": true,
      "inputs": [],
      "name": "kycEnabled",
      "outputs": [
        {
          "name": "",
          "type": "bool"
        }
      ],
      "payable": false,
      "stateMutability": "view",
      "type": "function",
      "signature": "0xa6fcb053"
    },
    {
      "constant": true,
      "inputs": [],
      "name": "charityAddress",
      "outputs": [
        {
          "name": "",
          "type": "address"
        }
      ],
      "payable": false,
      "stateMutability": "view",
      "type": "function",
      "signature": "0xafcf2fc4"
    },
    {
      "constant": true,
      "inputs": [],
      "name": "bondingVault",
      "outputs": [
        {
          "name": "",
          "type": "address"
        }
      ],
      "payable": false,
      "stateMutability": "view",
      "type": "function",
      "signature": "0xb67f8738"
    },
    {
      "constant": true,
      "inputs": [],
      "name": "exponentContract",
      "outputs": [
        {
          "name": "",
          "type": "address"
        }
      ],
      "payable": false,
      "stateMutability": "view",
      "type": "function",
      "signature": "0xbb2e199a"
    },
    {
      "constant": false,
      "inputs": [
        {
          "name": "_tokenContract",
          "type": "address"
        }
      ],
      "name": "setTokenContract",
      "outputs": [],
      "payable": false,
      "stateMutability": "nonpayable",
      "type": "function",
      "signature": "0xbbcd5bbe"
    },
    {
      "constant": false,
      "inputs": [
        {
          "name": "_amount",
          "type": "uint256"
        }
      ],
      "name": "sell",
      "outputs": [
        {
          "name": "",
          "type": "bool"
        }
      ],
      "payable": false,
      "stateMutability": "nonpayable",
      "type": "function",
      "signature": "0xe4849b32"
    },
    {
      "constant": false,
      "inputs": [],
      "name": "sweepVault",
      "outputs": [],
      "payable": false,
      "stateMutability": "nonpayable",
      "type": "function",
      "signature": "0xe6f1c1e5"
    },
    {
      "constant": true,
      "inputs": [],
      "name": "minEth",
      "outputs": [
        {
          "name": "",
          "type": "uint256"
        }
      ],
      "payable": false,
      "stateMutability": "view",
      "type": "function",
      "signature": "0xf1fb3ace"
    },
    {
      "constant": false,
      "inputs": [
        {
          "name": "newOwner",
          "type": "address"
        }
      ],
      "name": "transferOwnership",
      "outputs": [],
      "payable": false,
      "stateMutability": "nonpayable",
      "type": "function",
      "signature": "0xf2fde38b"
    },
    {
      "constant": false,
      "inputs": [
        {
          "name": "_exponentContract",
          "type": "address"
        }
      ],
      "name": "setExponentContract",
      "outputs": [],
      "payable": false,
      "stateMutability": "nonpayable",
      "type": "function",
      "signature": "0xff410451"
    },
    {
      "inputs": [
        {
          "name": "_charityAddress",
          "type": "address"
        }
      ],
      "payable": false,
      "stateMutability": "nonpayable",
      "type": "constructor",
      "signature": "constructor"
    },
    {
      "payable": true,
      "stateMutability": "payable",
      "type": "fallback"
    },
    {
      "anonymous": false,
      "inputs": [
        {
          "indexed": false,
          "name": "byWhom",
          "type": "address"
        },
        {
          "indexed": false,
          "name": "oldAddress",
          "type": "address"
        },
        {
          "indexed": false,
          "name": "newAddress",
          "type": "address"
        }
      ],
      "name": "LogCharityAddressChanged",
      "type": "event",
      "signature": "0xf516a178a831b8ee80532d0b16f0a1f07320bf62d7fb0367a8194011bc44fef5"
    },
    {
      "anonymous": false,
      "inputs": [
        {
          "indexed": false,
          "name": "byWhom",
          "type": "address"
        },
        {
          "indexed": false,
          "name": "amount",
          "type": "uint256"
        }
      ],
      "name": "LogDonationReceived",
      "type": "event",
      "signature": "0xde5c26dd3fd805828d78c07f1efc4c8972ca8efa32679f943954cbba78eccef0"
    },
    {
      "anonymous": false,
      "inputs": [
        {
          "indexed": false,
          "name": "amount",
          "type": "uint256"
        },
        {
          "indexed": true,
          "name": "account",
          "type": "address"
        }
      ],
      "name": "LogCharityAllocationSent",
      "type": "event",
      "signature": "0xcd2309e8e98adc2237be23f4a19fdf149d3046ddc76b6b16423932cb01324f9d"
    },
    {
      "anonymous": false,
      "inputs": [
        {
          "indexed": false,
          "name": "byWhom",
          "type": "address"
        },
        {
          "indexed": false,
          "name": "price",
          "type": "uint256"
        },
        {
          "indexed": false,
          "name": "amountOfEth",
          "type": "uint256"
        }
      ],
      "name": "LogTokenSell",
      "type": "event",
      "signature": "0xe8b430f755940e4008739f3cb076b2a37d0385a4e5d33ede4c7e9e799604a964"
    },
    {
      "anonymous": false,
      "inputs": [
        {
          "indexed": false,
          "name": "byWhom",
          "type": "address"
        },
        {
          "indexed": false,
          "name": "oldContract",
          "type": "address"
        },
        {
          "indexed": false,
          "name": "newContract",
          "type": "address"
        }
      ],
      "name": "LogTokenContractChanged",
      "type": "event",
      "signature": "0x8e50965f27112954dcece2b6acec24689db20cd8a09e23837f4c5cf6bd6a29e8"
    },
    {
      "anonymous": false,
      "inputs": [
        {
          "indexed": false,
          "name": "byWhom",
          "type": "address"
        },
        {
          "indexed": false,
          "name": "oldContract",
          "type": "address"
        },
        {
          "indexed": false,
          "name": "newContract",
          "type": "address"
        }
      ],
      "name": "LogBondingVaultChanged",
      "type": "event",
      "signature": "0x234aa0a04118cb90f26f79b5f7b16f8385cf79fb0420a60d26478d6998179750"
    },
    {
      "anonymous": false,
      "inputs": [
        {
          "indexed": false,
          "name": "byWhom",
          "type": "address"
        },
        {
          "indexed": false,
          "name": "oldContract",
          "type": "address"
        },
        {
          "indexed": false,
          "name": "newContract",
          "type": "address"
        }
      ],
      "name": "LogExponentContractChanged",
      "type": "event",
      "signature": "0xde2d7ee36d35406c0f7bbfbb750ff8532021d0b3dfd8eb987953c84b75babf7d"
    },
    {
      "anonymous": false,
      "inputs": [
        {
          "indexed": false,
          "name": "byWhom",
          "type": "address"
        },
        {
          "indexed": false,
          "name": "oldAmount",
          "type": "uint256"
        },
        {
          "indexed": false,
          "name": "newAmount",
          "type": "uint256"
        }
      ],
      "name": "LogMinEthChanged",
      "type": "event",
      "signature": "0x1e1fdbd340901d436c69ac3496a4171ebc1b92ef074c5ff964c1b75398e1d28b"
    },
    {
      "anonymous": false,
      "inputs": [
        {
          "indexed": true,
          "name": "previousOwner",
          "type": "address"
        },
        {
          "indexed": true,
          "name": "newOwner",
          "type": "address"
        }
      ],
      "name": "OwnershipTransferred",
      "type": "event",
      "signature": "0x8be0079c531659141344cd1fd0a4f28419497f9722a3daafe3b4186f6b6457e0"
    },
    {
      "constant": false,
      "inputs": [],
      "name": "donate",
      "outputs": [],
      "payable": true,
      "stateMutability": "payable",
      "type": "function",
      "signature": "0xed88c68e"
    },
    {
      "constant": false,
      "inputs": [
        {
          "name": "_charityAddress",
          "type": "address"
        }
      ],
      "name": "setCharityAddress",
      "outputs": [],
      "payable": false,
      "stateMutability": "nonpayable",
      "type": "function",
      "signature": "0x0c9be46d"
    }
  ],
  "bytecode": "0x608060405234801561001057600080fd5b506040516020806124fc83398101806040528101908080519060200190929190505050336000806101000a81548173ffffffffffffffffffffffffffffffffffffffff021916908373ffffffffffffffffffffffffffffffffffffffff1602179055506000809054906101000a900473ffffffffffffffffffffffffffffffffffffffff1673ffffffffffffffffffffffffffffffffffffffff16600073ffffffffffffffffffffffffffffffffffffffff167f8be0079c531659141344cd1fd0a4f28419497f9722a3daafe3b4186f6b6457e060405160405180910390a380600560006101000a81548173ffffffffffffffffffffffffffffffffffffffff021916908373ffffffffffffffffffffffffffffffffffffffff160217905550506123bc806101406000396000f300608060405260043610610133576000357c0100000000000000000000000000000000000000000000000000000000900463ffffffff16806306dd4c4e1461013857806307c86f941461018a5780630c7814f1146101cd5780630c9be46d14610260578063132611f0146102a357806355a373d6146102fa5780636a017b1614610351578063715018a6146103b457806377c93662146103cb578063854d9ed9146103d55780638da5cb5b146104025780638f32d59b14610459578063a6fcb05314610488578063afcf2fc4146104b7578063b67f87381461050e578063bb2e199a14610565578063bbcd5bbe146105bc578063e4849b32146105ff578063e6f1c1e514610644578063ed88c68e1461065b578063f1fb3ace14610665578063f2fde38b14610690578063ff410451146106d3575b600080fd5b34801561014457600080fd5b5061016d6004803603810190808035906020019092919080359060200190929190505050610716565b604051808381526020018281526020019250505060405180910390f35b34801561019657600080fd5b506101cb600480360381019080803573ffffffffffffffffffffffffffffffffffffffff169060200190929190505050610bcd565b005b3480156101d957600080fd5b5061025e600480360381019080803573ffffffffffffffffffffffffffffffffffffffff16906020019092919080359060200190929190803590602001908201803590602001908080601f0160208091040260200160405190810160405280939291908181526020018383808284378201915050505050509192919290505050610d17565b005b34801561026c57600080fd5b506102a1600480360381019080803573ffffffffffffffffffffffffffffffffffffffff169060200190929190505050610e1d565b005b3480156102af57600080fd5b506102e4600480360381019080803573ffffffffffffffffffffffffffffffffffffffff169060200190929190505050610f67565b6040518082815260200191505060405180910390f35b34801561030657600080fd5b5061030f610f71565b604051808273ffffffffffffffffffffffffffffffffffffffff1673ffffffffffffffffffffffffffffffffffffffff16815260200191505060405180910390f35b34801561035d57600080fd5b506103b2600480360381019080803573ffffffffffffffffffffffffffffffffffffffff169060200190929190803573ffffffffffffffffffffffffffffffffffffffff169060200190929190505050610f97565b005b3480156103c057600080fd5b506103c9610fc0565b005b6103d3611092565b005b3480156103e157600080fd5b50610400600480360381019080803590602001909291905050506111c4565b005b34801561040e57600080fd5b5061041761125c565b604051808273ffffffffffffffffffffffffffffffffffffffff1673ffffffffffffffffffffffffffffffffffffffff16815260200191505060405180910390f35b34801561046557600080fd5b5061046e611285565b604051808215151515815260200191505060405180910390f35b34801561049457600080fd5b5061049d6112dc565b604051808215151515815260200191505060405180910390f35b3480156104c357600080fd5b506104cc6112ef565b604051808273ffffffffffffffffffffffffffffffffffffffff1673ffffffffffffffffffffffffffffffffffffffff16815260200191505060405180910390f35b34801561051a57600080fd5b50610523611315565b604051808273ffffffffffffffffffffffffffffffffffffffff1673ffffffffffffffffffffffffffffffffffffffff16815260200191505060405180910390f35b34801561057157600080fd5b5061057a61133b565b604051808273ffffffffffffffffffffffffffffffffffffffff1673ffffffffffffffffffffffffffffffffffffffff16815260200191505060405180910390f35b3480156105c857600080fd5b506105fd600480360381019080803573ffffffffffffffffffffffffffffffffffffffff169060200190929190505050611361565b005b34801561060b57600080fd5b5061062a600480360381019080803590602001909291905050506114ab565b604051808215151515815260200191505060405180910390f35b34801561065057600080fd5b50610659611971565b005b610663611cab565b005b34801561067157600080fd5b5061067a611fc2565b6040518082815260200191505060405180910390f35b34801561069c57600080fd5b506106d1600480360381019080803573ffffffffffffffffffffffffffffffffffffffff169060200190929190505050611fc8565b005b3480156106df57600080fd5b50610714600480360381019080803573ffffffffffffffffffffffffffffffffffffffff169060200190929190505050611fe7565b005b60008060008060008060008060008073ffffffffffffffffffffffffffffffffffffffff16600360009054906101000a900473ffffffffffffffffffffffffffffffffffffffff1673ffffffffffffffffffffffffffffffffffffffff1614151515610810576040517f08c379a000000000000000000000000000000000000000000000000000000000815260040180806020018281038252602d8152602001807f6578706f6e656e74436f6e7472616374206d7573742062652073657420746f2081526020017f76616c696420616464726573730000000000000000000000000000000000000081525060400191505060405180910390fd5b8a8a101515156108ae576040517f08c379a00000000000000000000000000000000000000000000000000000000081526004018080602001828103825260278152602001807f5573657220747279696e6720746f2073656c6c206d6f7265207468616e20746881526020017f657920686176650000000000000000000000000000000000000000000000000081525060400191505060405180910390fd5b600160009054906101000a900473ffffffffffffffffffffffffffffffffffffffff1673ffffffffffffffffffffffffffffffffffffffff16636c9c2faf6040518163ffffffff167c0100000000000000000000000000000000000000000000000000000000028152600401602060405180830381600087803b15801561093457600080fd5b505af1158015610948573d6000803e3d6000fd5b505050506040513d602081101561095e57600080fd5b81019080805190602001909291905050509650600260009054906101000a900473ffffffffffffffffffffffffffffffffffffffff1673ffffffffffffffffffffffffffffffffffffffff16319550670de0b6b3a7640000945060006109c333610f67565b111515610bb1576109f3876109e56305f5e1008d61215390919063ffffffff16565b61219190919063ffffffff16565b9350600360009054906101000a900473ffffffffffffffffffffffffffffffffffffffff1673ffffffffffffffffffffffffffffffffffffffff166332833d5185600180600a6040518563ffffffff167c0100000000000000000000000000000000000000000000000000000000028152600401808581526020018481526020018363ffffffff1681526020018263ffffffff1681526020019450505050506040805180830381600087803b158015610aab57600080fd5b505af1158015610abf573d6000803e3d6000fd5b505050506040513d6040811015610ad557600080fd5b81019080805190602001909291908051906020019092919050505092509250610b5085610b42610b208a610b128a8c61215390919063ffffffff16565b61219190919063ffffffff16565b610b3460088861219190919063ffffffff16565b61215390919063ffffffff16565b61219190919063ffffffff16565b9050610b7d8260ff1660020a610b6f878461215390919063ffffffff16565b61219190919063ffffffff16565b9850610ba485610b968d8c61215390919063ffffffff16565b61219190919063ffffffff16565b9750888898509850610bbf565b600080819150809050985098505b505050505050509250929050565b6000610bd7611285565b1515610be257600080fd5b600260009054906101000a900473ffffffffffffffffffffffffffffffffffffffff16905081600260006101000a81548173ffffffffffffffffffffffffffffffffffffffff021916908373ffffffffffffffffffffffffffffffffffffffff1602179055507f234aa0a04118cb90f26f79b5f7b16f8385cf79fb0420a60d26478d6998179750338284604051808473ffffffffffffffffffffffffffffffffffffffff1673ffffffffffffffffffffffffffffffffffffffff1681526020018373ffffffffffffffffffffffffffffffffffffffff1673ffffffffffffffffffffffffffffffffffffffff1681526020018273ffffffffffffffffffffffffffffffffffffffff1673ffffffffffffffffffffffffffffffffffffffff168152602001935050505060405180910390a15050565b600160009054906101000a900473ffffffffffffffffffffffffffffffffffffffff1673ffffffffffffffffffffffffffffffffffffffff166379c6506884846040518363ffffffff167c0100000000000000000000000000000000000000000000000000000000028152600401808373ffffffffffffffffffffffffffffffffffffffff1673ffffffffffffffffffffffffffffffffffffffff16815260200182815260200192505050602060405180830381600087803b158015610ddc57600080fd5b505af1158015610df0573d6000803e3d6000fd5b505050506040513d6020811015610e0657600080fd5b810190808051906020019092919050505050505050565b6000610e27611285565b1515610e3257600080fd5b600560009054906101000a900473ffffffffffffffffffffffffffffffffffffffff16905081600560006101000a81548173ffffffffffffffffffffffffffffffffffffffff021916908373ffffffffffffffffffffffffffffffffffffffff1602179055507ff516a178a831b8ee80532d0b16f0a1f07320bf62d7fb0367a8194011bc44fef5338284604051808473ffffffffffffffffffffffffffffffffffffffff1673ffffffffffffffffffffffffffffffffffffffff1681526020018373ffffffffffffffffffffffffffffffffffffffff1673ffffffffffffffffffffffffffffffffffffffff1681526020018273ffffffffffffffffffffffffffffffffffffffff1673ffffffffffffffffffffffffffffffffffffffff168152602001935050505060405180910390a15050565b6000809050919050565b600160009054906101000a900473ffffffffffffffffffffffffffffffffffffffff1681565b610f9f611285565b1515610faa57600080fd5b610fb382611361565b610fbc81610bcd565b5050565b610fc8611285565b1515610fd357600080fd5b600073ffffffffffffffffffffffffffffffffffffffff166000809054906101000a900473ffffffffffffffffffffffffffffffffffffffff1673ffffffffffffffffffffffffffffffffffffffff167f8be0079c531659141344cd1fd0a4f28419497f9722a3daafe3b4186f6b6457e060405160405180910390a360008060006101000a81548173ffffffffffffffffffffffffffffffffffffffff021916908373ffffffffffffffffffffffffffffffffffffffff160217905550565b600073ffffffffffffffffffffffffffffffffffffffff16600260009054906101000a900473ffffffffffffffffffffffffffffffffffffffff1673ffffffffffffffffffffffffffffffffffffffff1614151515611159576040517f08c379a00000000000000000000000000000000000000000000000000000000081526004018080602001828103825260108152602001807f5661756c74206973206d697373696e670000000000000000000000000000000081525060200191505060405180910390fd5b600260009054906101000a900473ffffffffffffffffffffffffffffffffffffffff1673ffffffffffffffffffffffffffffffffffffffff166108fc349081150290604051600060405180830381858888f193505050501580156111c1573d6000803e3d6000fd5b50565b60006111ce611285565b15156111d957600080fd5b6004549050816004819055507f1e1fdbd340901d436c69ac3496a4171ebc1b92ef074c5ff964c1b75398e1d28b338284604051808473ffffffffffffffffffffffffffffffffffffffff1673ffffffffffffffffffffffffffffffffffffffff168152602001838152602001828152602001935050505060405180910390a15050565b60008060009054906101000a900473ffffffffffffffffffffffffffffffffffffffff16905090565b60008060009054906101000a900473ffffffffffffffffffffffffffffffffffffffff1673ffffffffffffffffffffffffffffffffffffffff163373ffffffffffffffffffffffffffffffffffffffff1614905090565b600560149054906101000a900460ff1681565b600560009054906101000a900473ffffffffffffffffffffffffffffffffffffffff1681565b600260009054906101000a900473ffffffffffffffffffffffffffffffffffffffff1681565b600360009054906101000a900473ffffffffffffffffffffffffffffffffffffffff1681565b600061136b611285565b151561137657600080fd5b600160009054906101000a900473ffffffffffffffffffffffffffffffffffffffff16905081600160006101000a81548173ffffffffffffffffffffffffffffffffffffffff021916908373ffffffffffffffffffffffffffffffffffffffff1602179055507f8e50965f27112954dcece2b6acec24689db20cd8a09e23837f4c5cf6bd6a29e8338284604051808473ffffffffffffffffffffffffffffffffffffffff1673ffffffffffffffffffffffffffffffffffffffff1681526020018373ffffffffffffffffffffffffffffffffffffffff1673ffffffffffffffffffffffffffffffffffffffff1681526020018273ffffffffffffffffffffffffffffffffffffffff1673ffffffffffffffffffffffffffffffffffffffff168152602001935050505060405180910390a15050565b600080600080600454600260009054906101000a900473ffffffffffffffffffffffffffffffffffffffff1673ffffffffffffffffffffffffffffffffffffffff16311015151561158a576040517f08c379a00000000000000000000000000000000000000000000000000000000081526004018080602001828103825260288152602001807f4e6f7420656e6f7567682045544820696e20626f6e64696e67207661756c742081526020017f636f6e747261637400000000000000000000000000000000000000000000000081525060400191505060405180910390fd5b600160009054906101000a900473ffffffffffffffffffffffffffffffffffffffff1673ffffffffffffffffffffffffffffffffffffffff166370a08231336040518263ffffffff167c0100000000000000000000000000000000000000000000000000000000028152600401808273ffffffffffffffffffffffffffffffffffffffff1673ffffffffffffffffffffffffffffffffffffffff168152602001915050602060405180830381600087803b15801561164757600080fd5b505af115801561165b573d6000803e3d6000fd5b505050506040513d602081101561167157600080fd5b810190808051906020019092919050505092506000851180156116945750848310155b151561172e576040517f08c379a00000000000000000000000000000000000000000000000000000000081526004018080602001828103825260398152602001807f416d6f756e74206e6565647320746f206265203e203020616e6420746f6b656e81526020017f42616c616e6365203e3d20616d6f756e7420746f2073656c6c0000000000000081525060400191505060405180910390fd5b6117388584610716565b91509150600160009054906101000a900473ffffffffffffffffffffffffffffffffffffffff1673ffffffffffffffffffffffffffffffffffffffff16639dc29fac33876040518363ffffffff167c0100000000000000000000000000000000000000000000000000000000028152600401808373ffffffffffffffffffffffffffffffffffffffff1673ffffffffffffffffffffffffffffffffffffffff16815260200182815260200192505050600060405180830381600087803b15801561180157600080fd5b505af1158015611815573d6000803e3d6000fd5b50505050600260009054906101000a900473ffffffffffffffffffffffffffffffffffffffff1673ffffffffffffffffffffffffffffffffffffffff16633436860282336040518363ffffffff167c0100000000000000000000000000000000000000000000000000000000028152600401808381526020018273ffffffffffffffffffffffffffffffffffffffff1673ffffffffffffffffffffffffffffffffffffffff16815260200192505050600060405180830381600087803b1580156118de57600080fd5b505af11580156118f2573d6000803e3d6000fd5b505050507fe8b430f755940e4008739f3cb076b2a37d0385a4e5d33ede4c7e9e799604a964338383604051808473ffffffffffffffffffffffffffffffffffffffff1673ffffffffffffffffffffffffffffffffffffffff168152602001838152602001828152602001935050505060405180910390a1505050919050565b611979611285565b151561198457600080fd5b6000600160009054906101000a900473ffffffffffffffffffffffffffffffffffffffff1673ffffffffffffffffffffffffffffffffffffffff16636c9c2faf6040518163ffffffff167c0100000000000000000000000000000000000000000000000000000000028152600401602060405180830381600087803b158015611a0c57600080fd5b505af1158015611a20573d6000803e3d6000fd5b505050506040513d6020811015611a3657600080fd5b8101908080519060200190929190505050141515611ae2576040517f08c379a000000000000000000000000000000000000000000000000000000000815260040180806020018281038252602d8152602001807f537765657020617661696c61626c65206f6e6c79206966206e6f206d696e746581526020017f6420746f6b656e73206c6566740000000000000000000000000000000000000081525060400191505060405180910390fd5b6000600260009054906101000a900473ffffffffffffffffffffffffffffffffffffffff1673ffffffffffffffffffffffffffffffffffffffff1631111515611b93576040517f08c379a000000000000000000000000000000000000000000000000000000000815260040180806020018281038252600e8152602001807f5661756c7420697320656d70747900000000000000000000000000000000000081525060200191505060405180910390fd5b600260009054906101000a900473ffffffffffffffffffffffffffffffffffffffff1673ffffffffffffffffffffffffffffffffffffffff166334368602600260009054906101000a900473ffffffffffffffffffffffffffffffffffffffff1673ffffffffffffffffffffffffffffffffffffffff1631336040518363ffffffff167c0100000000000000000000000000000000000000000000000000000000028152600401808381526020018273ffffffffffffffffffffffffffffffffffffffff1673ffffffffffffffffffffffffffffffffffffffff16815260200192505050600060405180830381600087803b158015611c9157600080fd5b505af1158015611ca5573d6000803e3d6000fd5b50505050565b60008060008073ffffffffffffffffffffffffffffffffffffffff16600560009054906101000a900473ffffffffffffffffffffffffffffffffffffffff1673ffffffffffffffffffffffffffffffffffffffff1614151515611d9c576040517f08c379a00000000000000000000000000000000000000000000000000000000081526004018080602001828103825260248152602001807f436861726974792061646472657373206973206e6f742073657420636f72726581526020017f63746c790000000000000000000000000000000000000000000000000000000081525060400191505060405180910390fd5b600034111515611e14576040517f08c379a000000000000000000000000000000000000000000000000000000000815260040180806020018281038252601f8152602001807f4d75737420696e636c75646520736f6d652045544820746f20646f6e6174650081525060200191505060405180910390fd5b60649250611e2c605a3461215390919063ffffffff16565b9150611e6583611e5784611e49873461215390919063ffffffff16565b6121bb90919063ffffffff16565b61219190919063ffffffff16565b9050611e82611e7d848461219190919063ffffffff16565b6121dc565b3073ffffffffffffffffffffffffffffffffffffffff166377c93662826040518263ffffffff167c01000000000000000000000000000000000000000000000000000000000281526004016000604051808303818588803b158015611ee657600080fd5b505af1158015611efa573d6000803e3d6000fd5b5050505050611f5233611f17600a3461215390919063ffffffff16565b6040805190810160405280601181526020017f446f6e6174696f6e207265636569766564000000000000000000000000000000815250610d17565b7fde5c26dd3fd805828d78c07f1efc4c8972ca8efa32679f943954cbba78eccef03334604051808373ffffffffffffffffffffffffffffffffffffffff1673ffffffffffffffffffffffffffffffffffffffff1681526020018281526020019250505060405180910390a1505050565b60045481565b611fd0611285565b1515611fdb57600080fd5b611fe481612296565b50565b6000611ff1611285565b1515611ffc57600080fd5b600360009054906101000a900473ffffffffffffffffffffffffffffffffffffffff16905081600360006101000a81548173ffffffffffffffffffffffffffffffffffffffff021916908373ffffffffffffffffffffffffffffffffffffffff1602179055507fde2d7ee36d35406c0f7bbfbb750ff8532021d0b3dfd8eb987953c84b75babf7d3382600360009054906101000a900473ffffffffffffffffffffffffffffffffffffffff16604051808473ffffffffffffffffffffffffffffffffffffffff1673ffffffffffffffffffffffffffffffffffffffff1681526020018373ffffffffffffffffffffffffffffffffffffffff1673ffffffffffffffffffffffffffffffffffffffff1681526020018273ffffffffffffffffffffffffffffffffffffffff1673ffffffffffffffffffffffffffffffffffffffff168152602001935050505060405180910390a15050565b6000806000841415612168576000915061218a565b828402905082848281151561217957fe5b0414151561218657600080fd5b8091505b5092915050565b6000806000831115156121a357600080fd5b82848115156121ae57fe5b0490508091505092915050565b6000808383111515156121cd57600080fd5b82840390508091505092915050565b600560009054906101000a900473ffffffffffffffffffffffffffffffffffffffff1673ffffffffffffffffffffffffffffffffffffffff166108fc829081150290604051600060405180830381858888f19350505050158015612244573d6000803e3d6000fd5b503373ffffffffffffffffffffffffffffffffffffffff167fcd2309e8e98adc2237be23f4a19fdf149d3046ddc76b6b16423932cb01324f9d826040518082815260200191505060405180910390a250565b600073ffffffffffffffffffffffffffffffffffffffff168173ffffffffffffffffffffffffffffffffffffffff16141515156122d257600080fd5b8073ffffffffffffffffffffffffffffffffffffffff166000809054906101000a900473ffffffffffffffffffffffffffffffffffffffff1673ffffffffffffffffffffffffffffffffffffffff167f8be0079c531659141344cd1fd0a4f28419497f9722a3daafe3b4186f6b6457e060405160405180910390a3806000806101000a81548173ffffffffffffffffffffffffffffffffffffffff021916908373ffffffffffffffffffffffffffffffffffffffff160217905550505600a165627a7a723058202f6c60a51a71a7bfd20d5e0fdd639fb72b9ec6013dc09b64350b15f5b15353470029",
  "source": "pragma solidity ^0.4.24;\n\nimport \"./Logic.sol\";\n\n/**\n * @title Proof of Concept contract for Donation customization of Bonding Curve Logic\n */\n \ncontract DonationLogic is Logic {\n\n    // Charity address\n    address public charityAddress;\n\n    // KYC flag\n    bool public kycEnabled;\n\n    event LogCharityAddressChanged\n    (\n        address byWhom,\n        address oldAddress,\n        address newAddress\n    );\n\n    event LogDonationReceived\n    (\n        address byWhom,\n        uint256 amount\n    );\n\n    event LogCharityAllocationSent(\n        uint256 amount,\n        address indexed account\n    );\n\n    modifier kycCheck() {\n        if (kycEnabled) {\n            // require whitelisted address (see Bloom docs?)\n        }\n        _;\n    }\n\n    constructor(address _charityAddress) public {\n        charityAddress = _charityAddress;\n    }\n\n    /**\n    * @dev donation function splits ETH, 90% to charityAddress, 10% to fund bonding curve\n    */\n    function donate() public payable {\n        require(charityAddress != address(0), \"Charity address is not set correctly\");\n        require(msg.value > 0, \"Must include some ETH to donate\");\n\n        // Make ETH distributions\n        uint256 multiplier = 100;\n        uint256 charityAllocation = (msg.value).mul(90); // 90% with multiplier\n        uint256 bondingAllocation = (msg.value.mul(multiplier)).sub(charityAllocation).div(multiplier);\n        sendToCharity(charityAllocation.div(multiplier));\n\n        //fund the Logic with ETH calling fallback function\n        //TODO Test if charity + bonding amounts are still less than total msg.value due to rounding\n        this.sponsor.value(bondingAllocation)();\n\n        // Mint the tokens - 10:1 ratio (e.g. for every 1 ETH sent, you get 10 tokens)\n        super.award(msg.sender, (msg.value).mul(10),  'Donation received');\n        emit LogDonationReceived(msg.sender, msg.value);\n    }\n\n    // TODO: - DAI integration: buy DAI with ETH, store in charityAddress\n    function sendToCharity(uint256 _amount) internal {\n        // this should auto convert to DAI\n        // look into OasisDEX or Bancor on-chain tx\n        charityAddress.transfer(_amount);\n        emit LogCharityAllocationSent(_amount, msg.sender);\n    }\n\n    // KYC logic - stretch goals\n    // add donator to whitelist\n    // see Bloom docs\n\n    // only owner\n\n    /**\n    * @dev Set the 'charityAddress' to a different contract address\n    */\n    function setCharityAddress(address _charityAddress) public onlyOwner {\n        address oldAddress = charityAddress;\n        charityAddress = _charityAddress;\n        emit LogCharityAddressChanged(msg.sender, oldAddress, _charityAddress);\n    }\n\n}",
  "sourcePath": "/Users/kirilivanov/DEV/BondedDonations/contracts/DonationLogic.sol",
  "compiler": {
    "name": "solc",
    "version": "0.4.25+commit.59dbf8f1.Emscripten.clang"
  },
  "schemaVersion": "3.0.0-beta.1",
  "updatedAt": "2018-11-20T21:38:27.769Z"
}