{
  "contractName": "Logic",
  "abi": [
    {
      "constant": true,
      "inputs": [],
      "name": "tokenContract",
      "outputs": [
        {
          "name": "",
          "type": "address"
        }
      ],
      "payable": false,
      "stateMutability": "view",
      "type": "function",
      "signature": "0x55a373d6"
    },
    {
      "constant": false,
      "inputs": [],
      "name": "renounceOwnership",
      "outputs": [],
      "payable": false,
      "stateMutability": "nonpayable",
      "type": "function",
      "signature": "0x715018a6"
    },
    {
      "constant": true,
      "inputs": [],
      "name": "owner",
      "outputs": [
        {
          "name": "",
          "type": "address"
        }
      ],
      "payable": false,
      "stateMutability": "view",
      "type": "function",
      "signature": "0x8da5cb5b"
    },
    {
      "constant": true,
      "inputs": [],
      "name": "isOwner",
      "outputs": [
        {
          "name": "",
          "type": "bool"
        }
      ],
      "payable": false,
      "stateMutability": "view",
      "type": "function",
      "signature": "0x8f32d59b"
    },
    {
      "constant": true,
      "inputs": [],
      "name": "kycEnabled",
      "outputs": [
        {
          "name": "",
          "type": "bool"
        }
      ],
      "payable": false,
      "stateMutability": "view",
      "type": "function",
      "signature": "0xa6fcb053"
    },
    {
      "constant": true,
      "inputs": [],
      "name": "charityAddress",
      "outputs": [
        {
          "name": "",
          "type": "address"
        }
      ],
      "payable": false,
      "stateMutability": "view",
      "type": "function",
      "signature": "0xafcf2fc4"
    },
    {
      "constant": true,
      "inputs": [],
      "name": "bondingContract",
      "outputs": [
        {
          "name": "",
          "type": "address"
        }
      ],
      "payable": false,
      "stateMutability": "view",
      "type": "function",
      "signature": "0xe999720f"
    },
    {
      "constant": true,
      "inputs": [],
      "name": "minEth",
      "outputs": [
        {
          "name": "",
          "type": "uint256"
        }
      ],
      "payable": false,
      "stateMutability": "view",
      "type": "function",
      "signature": "0xf1fb3ace"
    },
    {
      "constant": false,
      "inputs": [
        {
          "name": "newOwner",
          "type": "address"
        }
      ],
      "name": "transferOwnership",
      "outputs": [],
      "payable": false,
      "stateMutability": "nonpayable",
      "type": "function",
      "signature": "0xf2fde38b"
    },
    {
      "payable": true,
      "stateMutability": "payable",
      "type": "fallback"
    },
    {
      "anonymous": false,
      "inputs": [
        {
          "indexed": false,
          "name": "byWhom",
          "type": "address"
        },
        {
          "indexed": false,
          "name": "oldContract",
          "type": "address"
        },
        {
          "indexed": false,
          "name": "newContract",
          "type": "address"
        }
      ],
      "name": "LogTokenContractChanged",
      "type": "event",
      "signature": "0x8e50965f27112954dcece2b6acec24689db20cd8a09e23837f4c5cf6bd6a29e8"
    },
    {
      "anonymous": false,
      "inputs": [
        {
          "indexed": false,
          "name": "byWhom",
          "type": "address"
        },
        {
          "indexed": false,
          "name": "oldContract",
          "type": "address"
        },
        {
          "indexed": false,
          "name": "newContract",
          "type": "address"
        }
      ],
      "name": "LogBondingContractChanged",
      "type": "event",
      "signature": "0xb76fee6ff92052ea3e489e660761c1506aac7bc3d6af37a4dba8eb06bc9afd81"
    },
    {
      "anonymous": false,
      "inputs": [
        {
          "indexed": false,
          "name": "byWhom",
          "type": "address"
        },
        {
          "indexed": false,
          "name": "oldAmount",
          "type": "uint256"
        },
        {
          "indexed": false,
          "name": "newAmount",
          "type": "uint256"
        }
      ],
      "name": "LogMinEthChanged",
      "type": "event",
      "signature": "0x1e1fdbd340901d436c69ac3496a4171ebc1b92ef074c5ff964c1b75398e1d28b"
    },
    {
      "anonymous": false,
      "inputs": [
        {
          "indexed": false,
          "name": "byWhom",
          "type": "address"
        },
        {
          "indexed": false,
          "name": "oldAddress",
          "type": "address"
        },
        {
          "indexed": false,
          "name": "newAddress",
          "type": "address"
        }
      ],
      "name": "LogCharityAddressChanged",
      "type": "event",
      "signature": "0xf516a178a831b8ee80532d0b16f0a1f07320bf62d7fb0367a8194011bc44fef5"
    },
    {
      "anonymous": false,
      "inputs": [
        {
          "indexed": false,
          "name": "byWhom",
          "type": "address"
        },
        {
          "indexed": false,
          "name": "amount",
          "type": "uint256"
        }
      ],
      "name": "LogDonationReceived",
      "type": "event",
      "signature": "0xde5c26dd3fd805828d78c07f1efc4c8972ca8efa32679f943954cbba78eccef0"
    },
    {
      "anonymous": false,
      "inputs": [
        {
          "indexed": false,
          "name": "amount",
          "type": "uint256"
        },
        {
          "indexed": true,
          "name": "account",
          "type": "address"
        }
      ],
      "name": "LogCharityAllocationSent",
      "type": "event",
      "signature": "0xcd2309e8e98adc2237be23f4a19fdf149d3046ddc76b6b16423932cb01324f9d"
    },
    {
      "anonymous": false,
      "inputs": [
        {
          "indexed": true,
          "name": "previousOwner",
          "type": "address"
        },
        {
          "indexed": true,
          "name": "newOwner",
          "type": "address"
        }
      ],
      "name": "OwnershipTransferred",
      "type": "event",
      "signature": "0x8be0079c531659141344cd1fd0a4f28419497f9722a3daafe3b4186f6b6457e0"
    },
    {
      "constant": false,
      "inputs": [],
      "name": "donate",
      "outputs": [
        {
          "name": "",
          "type": "bool"
        }
      ],
      "payable": true,
      "stateMutability": "payable",
      "type": "function",
      "signature": "0xed88c68e"
    },
    {
      "constant": false,
      "inputs": [
        {
          "name": "_amount",
          "type": "uint256"
        }
      ],
      "name": "sell",
      "outputs": [
        {
          "name": "",
          "type": "bool"
        }
      ],
      "payable": false,
      "stateMutability": "nonpayable",
      "type": "function",
      "signature": "0xe4849b32"
    },
    {
      "constant": true,
      "inputs": [
        {
          "name": "_sellAmount",
          "type": "uint256"
        },
        {
          "name": "_tokenBalance",
          "type": "uint256"
        }
      ],
      "name": "calculateReturn",
      "outputs": [
        {
          "name": "",
          "type": "uint256"
        }
      ],
      "payable": false,
      "stateMutability": "view",
      "type": "function",
      "signature": "0x06dd4c4e"
    },
    {
      "constant": true,
      "inputs": [
        {
          "name": "_tokenHolder",
          "type": "address"
        }
      ],
      "name": "coolDownPeriod",
      "outputs": [
        {
          "name": "",
          "type": "uint256"
        }
      ],
      "payable": false,
      "stateMutability": "view",
      "type": "function",
      "signature": "0x132611f0"
    },
    {
      "constant": false,
      "inputs": [
        {
          "name": "_tokenContract",
          "type": "address"
        },
        {
          "name": "_bondingContract",
          "type": "address"
        }
      ],
      "name": "setTokenAndBondingContract",
      "outputs": [],
      "payable": false,
      "stateMutability": "nonpayable",
      "type": "function",
      "signature": "0x56125a95"
    },
    {
      "constant": false,
      "inputs": [
        {
          "name": "_tokenContract",
          "type": "address"
        }
      ],
      "name": "setTokenContract",
      "outputs": [],
      "payable": false,
      "stateMutability": "nonpayable",
      "type": "function",
      "signature": "0xbbcd5bbe"
    },
    {
      "constant": false,
      "inputs": [
        {
          "name": "_bondingContract",
          "type": "address"
        }
      ],
      "name": "setBondingContract",
      "outputs": [],
      "payable": false,
      "stateMutability": "nonpayable",
      "type": "function",
      "signature": "0xeecaab06"
    },
    {
      "constant": false,
      "inputs": [
        {
          "name": "_minEth",
          "type": "uint256"
        }
      ],
      "name": "setMinEth",
      "outputs": [],
      "payable": false,
      "stateMutability": "nonpayable",
      "type": "function",
      "signature": "0x854d9ed9"
    },
    {
      "constant": false,
      "inputs": [
        {
          "name": "_charityAddress",
          "type": "address"
        }
      ],
      "name": "setCharityAddress",
      "outputs": [],
      "payable": false,
      "stateMutability": "nonpayable",
      "type": "function",
      "signature": "0x0c9be46d"
    }
  ],
  "bytecode": "0x6080604052336000806101000a81548173ffffffffffffffffffffffffffffffffffffffff021916908373ffffffffffffffffffffffffffffffffffffffff1602179055506000809054906101000a900473ffffffffffffffffffffffffffffffffffffffff1673ffffffffffffffffffffffffffffffffffffffff16600073ffffffffffffffffffffffffffffffffffffffff167f8be0079c531659141344cd1fd0a4f28419497f9722a3daafe3b4186f6b6457e060405160405180910390a3611989806100cf6000396000f3006080604052600436106100fc576000357c0100000000000000000000000000000000000000000000000000000000900463ffffffff16806306dd4c4e146101a05780630c9be46d146101eb578063132611f01461022e57806355a373d61461028557806356125a95146102dc578063715018a61461033f578063854d9ed9146103565780638da5cb5b146103835780638f32d59b146103da578063a6fcb05314610409578063afcf2fc414610438578063bbcd5bbe1461048f578063e4849b32146104d2578063e999720f14610517578063ed88c68e1461056e578063eecaab0614610590578063f1fb3ace146105d3578063f2fde38b146105fe575b610104610641565b151561019e576040517f08c379a00000000000000000000000000000000000000000000000000000000081526004018080602001828103825260268152602001807f446f6e6174696f6e20646964206e6f7420636f6d706c6574652073756363657381526020017f7366756c6c79000000000000000000000000000000000000000000000000000081525060400191505060405180910390fd5b005b3480156101ac57600080fd5b506101d56004803603810190808035906020019092919080359060200190929190505050610a0e565b6040518082815260200191505060405180910390f35b3480156101f757600080fd5b5061022c600480360381019080803573ffffffffffffffffffffffffffffffffffffffff169060200190929190505050610c2c565b005b34801561023a57600080fd5b5061026f600480360381019080803573ffffffffffffffffffffffffffffffffffffffff169060200190929190505050610d76565b6040518082815260200191505060405180910390f35b34801561029157600080fd5b5061029a610d80565b604051808273ffffffffffffffffffffffffffffffffffffffff1673ffffffffffffffffffffffffffffffffffffffff16815260200191505060405180910390f35b3480156102e857600080fd5b5061033d600480360381019080803573ffffffffffffffffffffffffffffffffffffffff169060200190929190803573ffffffffffffffffffffffffffffffffffffffff169060200190929190505050610da6565b005b34801561034b57600080fd5b50610354610dcf565b005b34801561036257600080fd5b5061038160048036038101908080359060200190929190505050610ea1565b005b34801561038f57600080fd5b50610398610f39565b604051808273ffffffffffffffffffffffffffffffffffffffff1673ffffffffffffffffffffffffffffffffffffffff16815260200191505060405180910390f35b3480156103e657600080fd5b506103ef610f62565b604051808215151515815260200191505060405180910390f35b34801561041557600080fd5b5061041e610fb9565b604051808215151515815260200191505060405180910390f35b34801561044457600080fd5b5061044d610fcc565b604051808273ffffffffffffffffffffffffffffffffffffffff1673ffffffffffffffffffffffffffffffffffffffff16815260200191505060405180910390f35b34801561049b57600080fd5b506104d0600480360381019080803573ffffffffffffffffffffffffffffffffffffffff169060200190929190505050610ff2565b005b3480156104de57600080fd5b506104fd6004803603810190808035906020019092919050505061113c565b604051808215151515815260200191505060405180910390f35b34801561052357600080fd5b5061052c61158b565b604051808273ffffffffffffffffffffffffffffffffffffffff1673ffffffffffffffffffffffffffffffffffffffff16815260200191505060405180910390f35b610576610641565b604051808215151515815260200191505060405180910390f35b34801561059c57600080fd5b506105d1600480360381019080803573ffffffffffffffffffffffffffffffffffffffff1690602001909291905050506115b1565b005b3480156105df57600080fd5b506105e86116fb565b6040518082815260200191505060405180910390f35b34801561060a57600080fd5b5061063f600480360381019080803573ffffffffffffffffffffffffffffffffffffffff169060200190929190505050611701565b005b60008060008060008073ffffffffffffffffffffffffffffffffffffffff16600360009054906101000a900473ffffffffffffffffffffffffffffffffffffffff1673ffffffffffffffffffffffffffffffffffffffff1614151515610735576040517f08c379a00000000000000000000000000000000000000000000000000000000081526004018080602001828103825260248152602001807f436861726974792061646472657373206973206e6f742073657420636f72726581526020017f63746c790000000000000000000000000000000000000000000000000000000081525060400191505060405180910390fd5b6000341115156107ad576040517f08c379a000000000000000000000000000000000000000000000000000000000815260040180806020018281038252601f8152602001807f4d75737420696e636c75646520736f6d652045544820746f20646f6e6174650081525060200191505060405180910390fd5b606493506107c5605a3461172090919063ffffffff16565b92506107fe846107f0856107e2883461172090919063ffffffff16565b61175e90919063ffffffff16565b61177f90919063ffffffff16565b915061081b610816858561177f90919063ffffffff16565b6117a9565b600260009054906101000a900473ffffffffffffffffffffffffffffffffffffffff1673ffffffffffffffffffffffffffffffffffffffff166108fc839081150290604051600060405180830381858888f19350505050158015610883573d6000803e3d6000fd5b50600160009054906101000a900473ffffffffffffffffffffffffffffffffffffffff1673ffffffffffffffffffffffffffffffffffffffff166379c65068336108d7600a3461172090919063ffffffff16565b6040518363ffffffff167c0100000000000000000000000000000000000000000000000000000000028152600401808373ffffffffffffffffffffffffffffffffffffffff1673ffffffffffffffffffffffffffffffffffffffff16815260200182815260200192505050602060405180830381600087803b15801561095c57600080fd5b505af1158015610970573d6000803e3d6000fd5b505050506040513d602081101561098657600080fd5b810190808051906020019092919050505090507fde5c26dd3fd805828d78c07f1efc4c8972ca8efa32679f943954cbba78eccef03334604051808373ffffffffffffffffffffffffffffffffffffffff1673ffffffffffffffffffffffffffffffffffffffff1681526020018281526020019250505060405180910390a18094505050505090565b600080600080858510151515610ab2576040517f08c379a00000000000000000000000000000000000000000000000000000000081526004018080602001828103825260278152602001807f5573657220747279696e6720746f2073656c6c206d6f7265207468616e20746881526020017f657920686176650000000000000000000000000000000000000000000000000081525060400191505060405180910390fd5b600160009054906101000a900473ffffffffffffffffffffffffffffffffffffffff1673ffffffffffffffffffffffffffffffffffffffff16636c9c2faf6040518163ffffffff167c0100000000000000000000000000000000000000000000000000000000028152600401602060405180830381600087803b158015610b3857600080fd5b505af1158015610b4c573d6000803e3d6000fd5b505050506040513d6020811015610b6257600080fd5b81019080805190602001909291905050509250670de0b6b3a764000091506000610b8b33610d76565b111515610c1e57610c1482610c06600260009054906101000a900473ffffffffffffffffffffffffffffffffffffffff1673ffffffffffffffffffffffffffffffffffffffff1631610bf887610bea888d61172090919063ffffffff16565b61177f90919063ffffffff16565b61172090919063ffffffff16565b61177f90919063ffffffff16565b9050809350610c23565b600093505b50505092915050565b6000610c36610f62565b1515610c4157600080fd5b600360009054906101000a900473ffffffffffffffffffffffffffffffffffffffff16905081600360006101000a81548173ffffffffffffffffffffffffffffffffffffffff021916908373ffffffffffffffffffffffffffffffffffffffff1602179055507ff516a178a831b8ee80532d0b16f0a1f07320bf62d7fb0367a8194011bc44fef5338284604051808473ffffffffffffffffffffffffffffffffffffffff1673ffffffffffffffffffffffffffffffffffffffff1681526020018373ffffffffffffffffffffffffffffffffffffffff1673ffffffffffffffffffffffffffffffffffffffff1681526020018273ffffffffffffffffffffffffffffffffffffffff1673ffffffffffffffffffffffffffffffffffffffff168152602001935050505060405180910390a15050565b6000809050919050565b600160009054906101000a900473ffffffffffffffffffffffffffffffffffffffff1681565b610dae610f62565b1515610db957600080fd5b610dc282610ff2565b610dcb816115b1565b5050565b610dd7610f62565b1515610de257600080fd5b600073ffffffffffffffffffffffffffffffffffffffff166000809054906101000a900473ffffffffffffffffffffffffffffffffffffffff1673ffffffffffffffffffffffffffffffffffffffff167f8be0079c531659141344cd1fd0a4f28419497f9722a3daafe3b4186f6b6457e060405160405180910390a360008060006101000a81548173ffffffffffffffffffffffffffffffffffffffff021916908373ffffffffffffffffffffffffffffffffffffffff160217905550565b6000610eab610f62565b1515610eb657600080fd5b6004549050816004819055507f1e1fdbd340901d436c69ac3496a4171ebc1b92ef074c5ff964c1b75398e1d28b338284604051808473ffffffffffffffffffffffffffffffffffffffff1673ffffffffffffffffffffffffffffffffffffffff168152602001838152602001828152602001935050505060405180910390a15050565b60008060009054906101000a900473ffffffffffffffffffffffffffffffffffffffff16905090565b60008060009054906101000a900473ffffffffffffffffffffffffffffffffffffffff1673ffffffffffffffffffffffffffffffffffffffff163373ffffffffffffffffffffffffffffffffffffffff1614905090565b600360149054906101000a900460ff1681565b600360009054906101000a900473ffffffffffffffffffffffffffffffffffffffff1681565b6000610ffc610f62565b151561100757600080fd5b600160009054906101000a900473ffffffffffffffffffffffffffffffffffffffff16905081600160006101000a81548173ffffffffffffffffffffffffffffffffffffffff021916908373ffffffffffffffffffffffffffffffffffffffff1602179055507f8e50965f27112954dcece2b6acec24689db20cd8a09e23837f4c5cf6bd6a29e8338284604051808473ffffffffffffffffffffffffffffffffffffffff1673ffffffffffffffffffffffffffffffffffffffff1681526020018373ffffffffffffffffffffffffffffffffffffffff1673ffffffffffffffffffffffffffffffffffffffff1681526020018273ffffffffffffffffffffffffffffffffffffffff1673ffffffffffffffffffffffffffffffffffffffff168152602001935050505060405180910390a15050565b6000806000600454600260009054906101000a900473ffffffffffffffffffffffffffffffffffffffff1673ffffffffffffffffffffffffffffffffffffffff16311015151561121a576040517f08c379a00000000000000000000000000000000000000000000000000000000081526004018080602001828103825260228152602001807f4e6f7420656e6f7567682045544820696e20626f6e64696e6720636f6e74726181526020017f637400000000000000000000000000000000000000000000000000000000000081525060400191505060405180910390fd5b600160009054906101000a900473ffffffffffffffffffffffffffffffffffffffff1673ffffffffffffffffffffffffffffffffffffffff166370a08231336040518263ffffffff167c0100000000000000000000000000000000000000000000000000000000028152600401808273ffffffffffffffffffffffffffffffffffffffff1673ffffffffffffffffffffffffffffffffffffffff168152602001915050602060405180830381600087803b1580156112d757600080fd5b505af11580156112eb573d6000803e3d6000fd5b505050506040513d602081101561130157600080fd5b810190808051906020019092919050505091506000841180156113245750838210155b15156113be576040517f08c379a00000000000000000000000000000000000000000000000000000000081526004018080602001828103825260398152602001807f416d6f756e74206e6565647320746f206265203e203020616e6420746f6b656e81526020017f42616c616e6365203e3d20616d6f756e7420746f2073656c6c0000000000000081525060400191505060405180910390fd5b6113c88483610a0e565b9050600160009054906101000a900473ffffffffffffffffffffffffffffffffffffffff1673ffffffffffffffffffffffffffffffffffffffff16639dc29fac33866040518363ffffffff167c0100000000000000000000000000000000000000000000000000000000028152600401808373ffffffffffffffffffffffffffffffffffffffff1673ffffffffffffffffffffffffffffffffffffffff16815260200182815260200192505050600060405180830381600087803b15801561148f57600080fd5b505af11580156114a3573d6000803e3d6000fd5b50505050600260009054906101000a900473ffffffffffffffffffffffffffffffffffffffff1673ffffffffffffffffffffffffffffffffffffffff16633436860282336040518363ffffffff167c0100000000000000000000000000000000000000000000000000000000028152600401808381526020018273ffffffffffffffffffffffffffffffffffffffff1673ffffffffffffffffffffffffffffffffffffffff16815260200192505050600060405180830381600087803b15801561156c57600080fd5b505af1158015611580573d6000803e3d6000fd5b505050505050919050565b600260009054906101000a900473ffffffffffffffffffffffffffffffffffffffff1681565b60006115bb610f62565b15156115c657600080fd5b600260009054906101000a900473ffffffffffffffffffffffffffffffffffffffff16905081600260006101000a81548173ffffffffffffffffffffffffffffffffffffffff021916908373ffffffffffffffffffffffffffffffffffffffff1602179055507fb76fee6ff92052ea3e489e660761c1506aac7bc3d6af37a4dba8eb06bc9afd81338284604051808473ffffffffffffffffffffffffffffffffffffffff1673ffffffffffffffffffffffffffffffffffffffff1681526020018373ffffffffffffffffffffffffffffffffffffffff1673ffffffffffffffffffffffffffffffffffffffff1681526020018273ffffffffffffffffffffffffffffffffffffffff1673ffffffffffffffffffffffffffffffffffffffff168152602001935050505060405180910390a15050565b60045481565b611709610f62565b151561171457600080fd5b61171d81611863565b50565b60008060008414156117355760009150611757565b828402905082848281151561174657fe5b0414151561175357600080fd5b8091505b5092915050565b60008083831115151561177057600080fd5b82840390508091505092915050565b60008060008311151561179157600080fd5b828481151561179c57fe5b0490508091505092915050565b600360009054906101000a900473ffffffffffffffffffffffffffffffffffffffff1673ffffffffffffffffffffffffffffffffffffffff166108fc829081150290604051600060405180830381858888f19350505050158015611811573d6000803e3d6000fd5b503373ffffffffffffffffffffffffffffffffffffffff167fcd2309e8e98adc2237be23f4a19fdf149d3046ddc76b6b16423932cb01324f9d826040518082815260200191505060405180910390a250565b600073ffffffffffffffffffffffffffffffffffffffff168173ffffffffffffffffffffffffffffffffffffffff161415151561189f57600080fd5b8073ffffffffffffffffffffffffffffffffffffffff166000809054906101000a900473ffffffffffffffffffffffffffffffffffffffff1673ffffffffffffffffffffffffffffffffffffffff167f8be0079c531659141344cd1fd0a4f28419497f9722a3daafe3b4186f6b6457e060405160405180910390a3806000806101000a81548173ffffffffffffffffffffffffffffffffffffffff021916908373ffffffffffffffffffffffffffffffffffffffff160217905550505600a165627a7a72305820461cae12d698c4069737e6b577cadfeacd276a6d7de6a5ee90b2acc95f3f90ec0029",
  "source": "pragma solidity ^0.4.24;\n\nimport \"openzeppelin-solidity/contracts/ownership/Ownable.sol\";\nimport \"openzeppelin-solidity/contracts/math/SafeMath.sol\";\nimport \"./BondingCurve.sol\";\nimport \"./Token.sol\";\n\ncontract Logic is Ownable {\n    using SafeMath for uint256;\n\n    // Keep the balances of ERC20s\n    address public tokenContract;\n\n    // Bonding curve ETH\n    address public bondingContract;\n\n    // Charity address\n    address public charityAddress;\n\n    // KYC flag\n    bool public kycEnabled;\n\n    // Minimum ETH balance for valid bonding curve\n    uint256 public minEth;\n\n    event LogTokenContractChanged\n    (\n        address byWhom,\n        address oldContract,\n        address newContract\n    );\n\n    event LogBondingContractChanged\n    (\n        address byWhom,\n        address oldContract,\n        address newContract\n    );\n\n    event LogMinEthChanged\n    (\n        address byWhom,\n        uint256 oldAmount,\n        uint256 newAmount\n    );\n\n    event LogCharityAddressChanged\n    (\n        address byWhom,\n        address oldAddress,\n        address newAddress\n    );\n\n    event LogDonationReceived\n    (\n        address byWhom,\n        uint256 amount\n    );\n\n    event LogCharityAllocationSent(\n        uint256 amount,\n        address indexed account\n    );\n\n    modifier kycCheck() {\n        if (kycEnabled) {\n            // require whitelisted address (see Bloom docs?)\n        }\n        _;\n    }\n\n    modifier minimumBondingBalance() {\n        require(bondingContract.balance >= minEth, \"Not enough ETH in bonding contract\");\n        _;\n    }\n\n    /**\n    * @dev The fallback function - should call 'donate' function in Logic contract\n    */\n    function () public payable {\n        // Not working yet\n        require(donate(), \"Donation did not complete successfully\");\n    }\n\n    /**\n    * @dev donation function splits ETH, 90% to charityAddress, 10% to fund bonding curve\n    */\n    function donate() public payable returns (bool) {\n        require(charityAddress != address(0), \"Charity address is not set correctly\");\n        require(msg.value > 0, \"Must include some ETH to donate\");\n\n        // Make ETH distributions\n        uint256 multiplier = 100;\n        uint256 charityAllocation = (msg.value).mul(90); // 90% with multiplier\n        uint256 bondingAllocation = (msg.value.mul(multiplier)).sub(charityAllocation).div(multiplier);\n        sendToCharity(charityAllocation.div(multiplier));\n\n        // sendToCharity(0.9 ether);\n        // uint256 bondingAllocation = 0.1 ether;\n        bondingContract.transfer(bondingAllocation);\n\n        // Mint the tokens - 10:1 ratio (e.g. for every 1 ETH sent, you get 10 tokens)\n        bool minting = Token(tokenContract).mintToken(msg.sender, (msg.value).mul(10));\n        emit LogDonationReceived(msg.sender, msg.value);\n\n        return minting;\n    }\n    \n    // TODO: - DAI integration: buy DAI with ETH, store in charityAddress\n    function sendToCharity(uint256 _amount) internal {\n        // this should auto convert to DAI\n        charityAddress.transfer(_amount);\n        emit LogCharityAllocationSent(_amount, msg.sender);\n    }\n\n    /**\n    * @dev sell function for selling tokens to bonding curve\n    */\n    function sell(uint256 _amount) public minimumBondingBalance returns (bool) {\n        uint256 tokenBalanceOfSender = Token(tokenContract).balanceOf(msg.sender);\n        require(_amount > 0 && tokenBalanceOfSender >= _amount, \"Amount needs to be > 0 and tokenBalance >= amount to sell\");\n\n        // calculate sell return\n        uint256 amountOfEth = calculateReturn(_amount, tokenBalanceOfSender);\n\n        // burn tokens\n        Token(tokenContract).burn(msg.sender, _amount);\n\n        // sendEth to msg.sender from bonding curve\n        BondingCurve(bondingContract).sendEth(amountOfEth, msg.sender);\n    }\n\n    /**\n    * @dev calculate how much ETH should be returned for a certain amount of tokens\n    */\n    function calculateReturn(uint256 _sellAmount, uint256 _tokenBalance) public view returns (uint256) {\n        require(_tokenBalance >= _sellAmount, \"User trying to sell more than they have\");\n        uint256 supply = Token(tokenContract).getSupply();\n\n        // For EVM accuracy\n        uint256 multiplier = 10**18;\n\n        if (coolDownPeriod(msg.sender) <= 0) {\n            // price = ((tokens i have or # I want to sell) / (total token supply)) * ETH in contract\n            // using a multiplier due to EVM constraints\n            uint256 redeemableEth = (_sellAmount.mul(multiplier).div(supply).mul(bondingContract.balance)).div(multiplier);\n            return redeemableEth;\n        } else {\n            return 0;\n        }\n    }\n\n    // !! TODO: - set cooldown time period before selling\n    // returns uint256 in number of hours\n    function coolDownPeriod(address _tokenHolder) public view returns (uint256) {\n        // something like today - (day of buying + 7 days)\n        // todo when minting tokens\n        return 0;\n    }\n\n    // KYC logic - stretch goals\n    // add donator to whitelist\n    // see Bloom docs\n\n    // only owner\n\n    /**\n    * @dev Set both the 'logicContract' and 'bondingContract' to different contract addresses in 1 tx\n    */\n    function setTokenAndBondingContract(address _tokenContract, address _bondingContract) public onlyOwner {\n        setTokenContract(_tokenContract);\n        setBondingContract(_bondingContract);\n    }\n\n    /**\n    * @dev Set the 'logicContract' to a different contract address\n    */\n    function setTokenContract(address _tokenContract) public onlyOwner {\n        address oldContract = tokenContract;\n        tokenContract = _tokenContract;\n        emit LogTokenContractChanged(msg.sender, oldContract, _tokenContract);\n    }\n\n    /**\n    * @dev Set the 'bondingContract' to a different contract address\n    */\n    function setBondingContract(address _bondingContract) public onlyOwner {\n        address oldContract = bondingContract;\n        bondingContract = _bondingContract;\n        emit LogBondingContractChanged(msg.sender, oldContract, _bondingContract);\n    }\n\n    /**\n    * @dev Set the 'minEth' amount\n    */\n    function setMinEth(uint256 _minEth) public onlyOwner {\n        uint256 oldAmount = minEth;\n        minEth = _minEth;\n        emit LogMinEthChanged(msg.sender, oldAmount, _minEth);\n    }\n\n    /**\n    * @dev Set the 'charityAddress' to a different contract address\n    */\n    function setCharityAddress(address _charityAddress) public onlyOwner {\n        address oldAddress = charityAddress;\n        charityAddress = _charityAddress;\n        emit LogCharityAddressChanged(msg.sender, oldAddress, _charityAddress);\n    }\n\n    //allow freezing of everything\n\n}",
  "sourcePath": "/Users/david/Documents/Documents - David’s MacBook Pro/GitHub/BondedDonations/contracts/Logic.sol",
  "compiler": {
    "name": "solc",
    "version": "0.4.25+commit.59dbf8f1.Emscripten.clang"
  },
  "schemaVersion": "3.0.0-beta.1",
  "updatedAt": "2018-10-27T23:58:34.917Z"
}