{
  "contractName": "Logic",
  "abi": [
    {
      "constant": true,
      "inputs": [],
      "name": "tokenContract",
      "outputs": [
        {
          "name": "",
          "type": "address"
        }
      ],
      "payable": false,
      "stateMutability": "view",
      "type": "function"
    },
    {
      "constant": false,
      "inputs": [],
      "name": "renounceOwnership",
      "outputs": [],
      "payable": false,
      "stateMutability": "nonpayable",
      "type": "function"
    },
    {
      "constant": true,
      "inputs": [],
      "name": "owner",
      "outputs": [
        {
          "name": "",
          "type": "address"
        }
      ],
      "payable": false,
      "stateMutability": "view",
      "type": "function"
    },
    {
      "constant": true,
      "inputs": [],
      "name": "isOwner",
      "outputs": [
        {
          "name": "",
          "type": "bool"
        }
      ],
      "payable": false,
      "stateMutability": "view",
      "type": "function"
    },
    {
      "constant": true,
      "inputs": [],
      "name": "bondingVault",
      "outputs": [
        {
          "name": "",
          "type": "address"
        }
      ],
      "payable": false,
      "stateMutability": "view",
      "type": "function"
    },
    {
      "constant": true,
      "inputs": [],
      "name": "exponentContract",
      "outputs": [
        {
          "name": "",
          "type": "address"
        }
      ],
      "payable": false,
      "stateMutability": "view",
      "type": "function"
    },
    {
      "constant": true,
      "inputs": [],
      "name": "minEth",
      "outputs": [
        {
          "name": "",
          "type": "uint256"
        }
      ],
      "payable": false,
      "stateMutability": "view",
      "type": "function"
    },
    {
      "constant": false,
      "inputs": [
        {
          "name": "newOwner",
          "type": "address"
        }
      ],
      "name": "transferOwnership",
      "outputs": [],
      "payable": false,
      "stateMutability": "nonpayable",
      "type": "function"
    },
    {
      "payable": true,
      "stateMutability": "payable",
      "type": "fallback"
    },
    {
      "anonymous": false,
      "inputs": [
        {
          "indexed": false,
          "name": "byWhom",
          "type": "address"
        },
        {
          "indexed": false,
          "name": "price",
          "type": "uint256"
        },
        {
          "indexed": false,
          "name": "amountOfEth",
          "type": "uint256"
        }
      ],
      "name": "LogTokenSell",
      "type": "event"
    },
    {
      "anonymous": false,
      "inputs": [
        {
          "indexed": false,
          "name": "byWhom",
          "type": "address"
        },
        {
          "indexed": false,
          "name": "oldContract",
          "type": "address"
        },
        {
          "indexed": false,
          "name": "newContract",
          "type": "address"
        }
      ],
      "name": "LogTokenContractChanged",
      "type": "event"
    },
    {
      "anonymous": false,
      "inputs": [
        {
          "indexed": false,
          "name": "byWhom",
          "type": "address"
        },
        {
          "indexed": false,
          "name": "oldContract",
          "type": "address"
        },
        {
          "indexed": false,
          "name": "newContract",
          "type": "address"
        }
      ],
      "name": "LogBondingVaultChanged",
      "type": "event"
    },
    {
      "anonymous": false,
      "inputs": [
        {
          "indexed": false,
          "name": "byWhom",
          "type": "address"
        },
        {
          "indexed": false,
          "name": "oldContract",
          "type": "address"
        },
        {
          "indexed": false,
          "name": "newContract",
          "type": "address"
        }
      ],
      "name": "LogExponentContractChanged",
      "type": "event"
    },
    {
      "anonymous": false,
      "inputs": [
        {
          "indexed": false,
          "name": "byWhom",
          "type": "address"
        },
        {
          "indexed": false,
          "name": "oldAmount",
          "type": "uint256"
        },
        {
          "indexed": false,
          "name": "newAmount",
          "type": "uint256"
        }
      ],
      "name": "LogMinEthChanged",
      "type": "event"
    },
    {
      "anonymous": false,
      "inputs": [
        {
          "indexed": true,
          "name": "previousOwner",
          "type": "address"
        },
        {
          "indexed": true,
          "name": "newOwner",
          "type": "address"
        }
      ],
      "name": "OwnershipTransferred",
      "type": "event"
    },
    {
      "constant": false,
      "inputs": [],
      "name": "sponsor",
      "outputs": [],
      "payable": true,
      "stateMutability": "payable",
      "type": "function"
    },
    {
      "constant": false,
      "inputs": [
        {
          "name": "_account",
          "type": "address"
        },
        {
          "name": "_amount",
          "type": "uint256"
        },
        {
          "name": "_ipfsHash",
          "type": "string"
        }
      ],
      "name": "award",
      "outputs": [],
      "payable": false,
      "stateMutability": "nonpayable",
      "type": "function"
    },
    {
      "constant": false,
      "inputs": [
        {
          "name": "_amount",
          "type": "uint256"
        }
      ],
      "name": "sell",
      "outputs": [
        {
          "name": "",
          "type": "bool"
        }
      ],
      "payable": false,
      "stateMutability": "nonpayable",
      "type": "function"
    },
    {
      "constant": true,
      "inputs": [
        {
          "name": "_sellAmount",
          "type": "uint256"
        },
        {
          "name": "_tokenBalance",
          "type": "uint256"
        }
      ],
      "name": "calculateReturn",
      "outputs": [
        {
          "name": "finalPrice",
          "type": "uint256"
        },
        {
          "name": "redeemableEth",
          "type": "uint256"
        }
      ],
      "payable": false,
      "stateMutability": "view",
      "type": "function"
    },
    {
      "constant": false,
      "inputs": [],
      "name": "sweepVault",
      "outputs": [],
      "payable": false,
      "stateMutability": "nonpayable",
      "type": "function"
    },
    {
      "constant": true,
      "inputs": [
        {
          "name": "_tokenHolder",
          "type": "address"
        }
      ],
      "name": "coolDownPeriod",
      "outputs": [
        {
          "name": "",
          "type": "uint256"
        }
      ],
      "payable": false,
      "stateMutability": "view",
      "type": "function"
    },
    {
      "constant": false,
      "inputs": [
        {
          "name": "_tokenContract",
          "type": "address"
        },
        {
          "name": "_bondingVaultContract",
          "type": "address"
        }
      ],
      "name": "setTokenAndBondingVault",
      "outputs": [],
      "payable": false,
      "stateMutability": "nonpayable",
      "type": "function"
    },
    {
      "constant": false,
      "inputs": [
        {
          "name": "_tokenContract",
          "type": "address"
        }
      ],
      "name": "setTokenContract",
      "outputs": [],
      "payable": false,
      "stateMutability": "nonpayable",
      "type": "function"
    },
    {
      "constant": false,
      "inputs": [
        {
          "name": "_bondingVault",
          "type": "address"
        }
      ],
      "name": "setBondingVault",
      "outputs": [],
      "payable": false,
      "stateMutability": "nonpayable",
      "type": "function"
    },
    {
      "constant": false,
      "inputs": [
        {
          "name": "_exponentContract",
          "type": "address"
        }
      ],
      "name": "setExponentContract",
      "outputs": [],
      "payable": false,
      "stateMutability": "nonpayable",
      "type": "function"
    },
    {
      "constant": false,
      "inputs": [
        {
          "name": "_minEth",
          "type": "uint256"
        }
      ],
      "name": "setMinEth",
      "outputs": [],
      "payable": false,
      "stateMutability": "nonpayable",
      "type": "function"
    }
  ],
  "bytecode": "0x6080604052336000806101000a81548173ffffffffffffffffffffffffffffffffffffffff021916908373ffffffffffffffffffffffffffffffffffffffff1602179055506000809054906101000a900473ffffffffffffffffffffffffffffffffffffffff1673ffffffffffffffffffffffffffffffffffffffff16600073ffffffffffffffffffffffffffffffffffffffff167f8be0079c531659141344cd1fd0a4f28419497f9722a3daafe3b4186f6b6457e060405160405180910390a3611d48806100cf6000396000f300608060405260043610610107576000357c0100000000000000000000000000000000000000000000000000000000900463ffffffff16806306dd4c4e1461010c57806307c86f941461015e5780630c7814f1146101a1578063132611f01461023457806355a373d61461028b5780636a017b16146102e2578063715018a61461034557806377c936621461035c578063854d9ed9146103665780638da5cb5b146103935780638f32d59b146103ea578063b67f873814610419578063bb2e199a14610470578063bbcd5bbe146104c7578063e4849b321461050a578063e6f1c1e51461054f578063f1fb3ace14610566578063f2fde38b14610591578063ff410451146105d4575b600080fd5b34801561011857600080fd5b506101416004803603810190808035906020019092919080359060200190929190505050610617565b604051808381526020018281526020019250505060405180910390f35b34801561016a57600080fd5b5061019f600480360381019080803573ffffffffffffffffffffffffffffffffffffffff169060200190929190505050610ace565b005b3480156101ad57600080fd5b50610232600480360381019080803573ffffffffffffffffffffffffffffffffffffffff16906020019092919080359060200190929190803590602001908201803590602001908080601f0160208091040260200160405190810160405280939291908181526020018383808284378201915050505050509192919290505050610c18565b005b34801561024057600080fd5b50610275600480360381019080803573ffffffffffffffffffffffffffffffffffffffff169060200190929190505050610d1e565b6040518082815260200191505060405180910390f35b34801561029757600080fd5b506102a0610d28565b604051808273ffffffffffffffffffffffffffffffffffffffff1673ffffffffffffffffffffffffffffffffffffffff16815260200191505060405180910390f35b3480156102ee57600080fd5b50610343600480360381019080803573ffffffffffffffffffffffffffffffffffffffff169060200190929190803573ffffffffffffffffffffffffffffffffffffffff169060200190929190505050610d4e565b005b34801561035157600080fd5b5061035a610d77565b005b610364610e49565b005b34801561037257600080fd5b5061039160048036038101908080359060200190929190505050610f7b565b005b34801561039f57600080fd5b506103a8611013565b604051808273ffffffffffffffffffffffffffffffffffffffff1673ffffffffffffffffffffffffffffffffffffffff16815260200191505060405180910390f35b3480156103f657600080fd5b506103ff61103c565b604051808215151515815260200191505060405180910390f35b34801561042557600080fd5b5061042e611093565b604051808273ffffffffffffffffffffffffffffffffffffffff1673ffffffffffffffffffffffffffffffffffffffff16815260200191505060405180910390f35b34801561047c57600080fd5b506104856110b9565b604051808273ffffffffffffffffffffffffffffffffffffffff1673ffffffffffffffffffffffffffffffffffffffff16815260200191505060405180910390f35b3480156104d357600080fd5b50610508600480360381019080803573ffffffffffffffffffffffffffffffffffffffff1690602001909291905050506110df565b005b34801561051657600080fd5b5061053560048036038101908080359060200190929190505050611229565b604051808215151515815260200191505060405180910390f35b34801561055b57600080fd5b506105646116ef565b005b34801561057257600080fd5b5061057b611a29565b6040518082815260200191505060405180910390f35b34801561059d57600080fd5b506105d2600480360381019080803573ffffffffffffffffffffffffffffffffffffffff169060200190929190505050611a2f565b005b3480156105e057600080fd5b50610615600480360381019080803573ffffffffffffffffffffffffffffffffffffffff169060200190929190505050611a4e565b005b60008060008060008060008060008073ffffffffffffffffffffffffffffffffffffffff16600360009054906101000a900473ffffffffffffffffffffffffffffffffffffffff1673ffffffffffffffffffffffffffffffffffffffff1614151515610711576040517f08c379a000000000000000000000000000000000000000000000000000000000815260040180806020018281038252602d8152602001807f6578706f6e656e74436f6e7472616374206d7573742062652073657420746f2081526020017f76616c696420616464726573730000000000000000000000000000000000000081525060400191505060405180910390fd5b8a8a101515156107af576040517f08c379a00000000000000000000000000000000000000000000000000000000081526004018080602001828103825260278152602001807f5573657220747279696e6720746f2073656c6c206d6f7265207468616e20746881526020017f657920686176650000000000000000000000000000000000000000000000000081525060400191505060405180910390fd5b600160009054906101000a900473ffffffffffffffffffffffffffffffffffffffff1673ffffffffffffffffffffffffffffffffffffffff16636c9c2faf6040518163ffffffff167c0100000000000000000000000000000000000000000000000000000000028152600401602060405180830381600087803b15801561083557600080fd5b505af1158015610849573d6000803e3d6000fd5b505050506040513d602081101561085f57600080fd5b81019080805190602001909291905050509650600260009054906101000a900473ffffffffffffffffffffffffffffffffffffffff1673ffffffffffffffffffffffffffffffffffffffff16319550670de0b6b3a7640000945060006108c433610d1e565b111515610ab2576108f4876108e66305f5e1008d611bba90919063ffffffff16565b611bf890919063ffffffff16565b9350600360009054906101000a900473ffffffffffffffffffffffffffffffffffffffff1673ffffffffffffffffffffffffffffffffffffffff166332833d5185600180600a6040518563ffffffff167c0100000000000000000000000000000000000000000000000000000000028152600401808581526020018481526020018363ffffffff1681526020018263ffffffff1681526020019450505050506040805180830381600087803b1580156109ac57600080fd5b505af11580156109c0573d6000803e3d6000fd5b505050506040513d60408110156109d657600080fd5b81019080805190602001909291908051906020019092919050505092509250610a5185610a43610a218a610a138a8c611bba90919063ffffffff16565b611bf890919063ffffffff16565b610a35600888611bf890919063ffffffff16565b611bba90919063ffffffff16565b611bf890919063ffffffff16565b9050610a7e8260ff1660020a610a708784611bba90919063ffffffff16565b611bf890919063ffffffff16565b9850610aa585610a978d8c611bba90919063ffffffff16565b611bf890919063ffffffff16565b9750888898509850610ac0565b600080819150809050985098505b505050505050509250929050565b6000610ad861103c565b1515610ae357600080fd5b600260009054906101000a900473ffffffffffffffffffffffffffffffffffffffff16905081600260006101000a81548173ffffffffffffffffffffffffffffffffffffffff021916908373ffffffffffffffffffffffffffffffffffffffff1602179055507f234aa0a04118cb90f26f79b5f7b16f8385cf79fb0420a60d26478d6998179750338284604051808473ffffffffffffffffffffffffffffffffffffffff1673ffffffffffffffffffffffffffffffffffffffff1681526020018373ffffffffffffffffffffffffffffffffffffffff1673ffffffffffffffffffffffffffffffffffffffff1681526020018273ffffffffffffffffffffffffffffffffffffffff1673ffffffffffffffffffffffffffffffffffffffff168152602001935050505060405180910390a15050565b600160009054906101000a900473ffffffffffffffffffffffffffffffffffffffff1673ffffffffffffffffffffffffffffffffffffffff166379c6506884846040518363ffffffff167c0100000000000000000000000000000000000000000000000000000000028152600401808373ffffffffffffffffffffffffffffffffffffffff1673ffffffffffffffffffffffffffffffffffffffff16815260200182815260200192505050602060405180830381600087803b158015610cdd57600080fd5b505af1158015610cf1573d6000803e3d6000fd5b505050506040513d6020811015610d0757600080fd5b810190808051906020019092919050505050505050565b6000809050919050565b600160009054906101000a900473ffffffffffffffffffffffffffffffffffffffff1681565b610d5661103c565b1515610d6157600080fd5b610d6a826110df565b610d7381610ace565b5050565b610d7f61103c565b1515610d8a57600080fd5b600073ffffffffffffffffffffffffffffffffffffffff166000809054906101000a900473ffffffffffffffffffffffffffffffffffffffff1673ffffffffffffffffffffffffffffffffffffffff167f8be0079c531659141344cd1fd0a4f28419497f9722a3daafe3b4186f6b6457e060405160405180910390a360008060006101000a81548173ffffffffffffffffffffffffffffffffffffffff021916908373ffffffffffffffffffffffffffffffffffffffff160217905550565b600073ffffffffffffffffffffffffffffffffffffffff16600260009054906101000a900473ffffffffffffffffffffffffffffffffffffffff1673ffffffffffffffffffffffffffffffffffffffff1614151515610f10576040517f08c379a00000000000000000000000000000000000000000000000000000000081526004018080602001828103825260108152602001807f5661756c74206973206d697373696e670000000000000000000000000000000081525060200191505060405180910390fd5b600260009054906101000a900473ffffffffffffffffffffffffffffffffffffffff1673ffffffffffffffffffffffffffffffffffffffff166108fc349081150290604051600060405180830381858888f19350505050158015610f78573d6000803e3d6000fd5b50565b6000610f8561103c565b1515610f9057600080fd5b6004549050816004819055507f1e1fdbd340901d436c69ac3496a4171ebc1b92ef074c5ff964c1b75398e1d28b338284604051808473ffffffffffffffffffffffffffffffffffffffff1673ffffffffffffffffffffffffffffffffffffffff168152602001838152602001828152602001935050505060405180910390a15050565b60008060009054906101000a900473ffffffffffffffffffffffffffffffffffffffff16905090565b60008060009054906101000a900473ffffffffffffffffffffffffffffffffffffffff1673ffffffffffffffffffffffffffffffffffffffff163373ffffffffffffffffffffffffffffffffffffffff1614905090565b600260009054906101000a900473ffffffffffffffffffffffffffffffffffffffff1681565b600360009054906101000a900473ffffffffffffffffffffffffffffffffffffffff1681565b60006110e961103c565b15156110f457600080fd5b600160009054906101000a900473ffffffffffffffffffffffffffffffffffffffff16905081600160006101000a81548173ffffffffffffffffffffffffffffffffffffffff021916908373ffffffffffffffffffffffffffffffffffffffff1602179055507f8e50965f27112954dcece2b6acec24689db20cd8a09e23837f4c5cf6bd6a29e8338284604051808473ffffffffffffffffffffffffffffffffffffffff1673ffffffffffffffffffffffffffffffffffffffff1681526020018373ffffffffffffffffffffffffffffffffffffffff1673ffffffffffffffffffffffffffffffffffffffff1681526020018273ffffffffffffffffffffffffffffffffffffffff1673ffffffffffffffffffffffffffffffffffffffff168152602001935050505060405180910390a15050565b600080600080600454600260009054906101000a900473ffffffffffffffffffffffffffffffffffffffff1673ffffffffffffffffffffffffffffffffffffffff163110151515611308576040517f08c379a00000000000000000000000000000000000000000000000000000000081526004018080602001828103825260288152602001807f4e6f7420656e6f7567682045544820696e20626f6e64696e67207661756c742081526020017f636f6e747261637400000000000000000000000000000000000000000000000081525060400191505060405180910390fd5b600160009054906101000a900473ffffffffffffffffffffffffffffffffffffffff1673ffffffffffffffffffffffffffffffffffffffff166370a08231336040518263ffffffff167c0100000000000000000000000000000000000000000000000000000000028152600401808273ffffffffffffffffffffffffffffffffffffffff1673ffffffffffffffffffffffffffffffffffffffff168152602001915050602060405180830381600087803b1580156113c557600080fd5b505af11580156113d9573d6000803e3d6000fd5b505050506040513d60208110156113ef57600080fd5b810190808051906020019092919050505092506000851180156114125750848310155b15156114ac576040517f08c379a00000000000000000000000000000000000000000000000000000000081526004018080602001828103825260398152602001807f416d6f756e74206e6565647320746f206265203e203020616e6420746f6b656e81526020017f42616c616e6365203e3d20616d6f756e7420746f2073656c6c0000000000000081525060400191505060405180910390fd5b6114b68584610617565b91509150600160009054906101000a900473ffffffffffffffffffffffffffffffffffffffff1673ffffffffffffffffffffffffffffffffffffffff16639dc29fac33876040518363ffffffff167c0100000000000000000000000000000000000000000000000000000000028152600401808373ffffffffffffffffffffffffffffffffffffffff1673ffffffffffffffffffffffffffffffffffffffff16815260200182815260200192505050600060405180830381600087803b15801561157f57600080fd5b505af1158015611593573d6000803e3d6000fd5b50505050600260009054906101000a900473ffffffffffffffffffffffffffffffffffffffff1673ffffffffffffffffffffffffffffffffffffffff16633436860282336040518363ffffffff167c0100000000000000000000000000000000000000000000000000000000028152600401808381526020018273ffffffffffffffffffffffffffffffffffffffff1673ffffffffffffffffffffffffffffffffffffffff16815260200192505050600060405180830381600087803b15801561165c57600080fd5b505af1158015611670573d6000803e3d6000fd5b505050507fe8b430f755940e4008739f3cb076b2a37d0385a4e5d33ede4c7e9e799604a964338383604051808473ffffffffffffffffffffffffffffffffffffffff1673ffffffffffffffffffffffffffffffffffffffff168152602001838152602001828152602001935050505060405180910390a1505050919050565b6116f761103c565b151561170257600080fd5b6000600160009054906101000a900473ffffffffffffffffffffffffffffffffffffffff1673ffffffffffffffffffffffffffffffffffffffff16636c9c2faf6040518163ffffffff167c0100000000000000000000000000000000000000000000000000000000028152600401602060405180830381600087803b15801561178a57600080fd5b505af115801561179e573d6000803e3d6000fd5b505050506040513d60208110156117b457600080fd5b8101908080519060200190929190505050141515611860576040517f08c379a000000000000000000000000000000000000000000000000000000000815260040180806020018281038252602d8152602001807f537765657020617661696c61626c65206f6e6c79206966206e6f206d696e746581526020017f6420746f6b656e73206c6566740000000000000000000000000000000000000081525060400191505060405180910390fd5b6000600260009054906101000a900473ffffffffffffffffffffffffffffffffffffffff1673ffffffffffffffffffffffffffffffffffffffff1631111515611911576040517f08c379a000000000000000000000000000000000000000000000000000000000815260040180806020018281038252600e8152602001807f5661756c7420697320656d70747900000000000000000000000000000000000081525060200191505060405180910390fd5b600260009054906101000a900473ffffffffffffffffffffffffffffffffffffffff1673ffffffffffffffffffffffffffffffffffffffff166334368602600260009054906101000a900473ffffffffffffffffffffffffffffffffffffffff1673ffffffffffffffffffffffffffffffffffffffff1631336040518363ffffffff167c0100000000000000000000000000000000000000000000000000000000028152600401808381526020018273ffffffffffffffffffffffffffffffffffffffff1673ffffffffffffffffffffffffffffffffffffffff16815260200192505050600060405180830381600087803b158015611a0f57600080fd5b505af1158015611a23573d6000803e3d6000fd5b50505050565b60045481565b611a3761103c565b1515611a4257600080fd5b611a4b81611c22565b50565b6000611a5861103c565b1515611a6357600080fd5b600360009054906101000a900473ffffffffffffffffffffffffffffffffffffffff16905081600360006101000a81548173ffffffffffffffffffffffffffffffffffffffff021916908373ffffffffffffffffffffffffffffffffffffffff1602179055507fde2d7ee36d35406c0f7bbfbb750ff8532021d0b3dfd8eb987953c84b75babf7d3382600360009054906101000a900473ffffffffffffffffffffffffffffffffffffffff16604051808473ffffffffffffffffffffffffffffffffffffffff1673ffffffffffffffffffffffffffffffffffffffff1681526020018373ffffffffffffffffffffffffffffffffffffffff1673ffffffffffffffffffffffffffffffffffffffff1681526020018273ffffffffffffffffffffffffffffffffffffffff1673ffffffffffffffffffffffffffffffffffffffff168152602001935050505060405180910390a15050565b6000806000841415611bcf5760009150611bf1565b8284029050828482811515611be057fe5b04141515611bed57600080fd5b8091505b5092915050565b600080600083111515611c0a57600080fd5b8284811515611c1557fe5b0490508091505092915050565b600073ffffffffffffffffffffffffffffffffffffffff168173ffffffffffffffffffffffffffffffffffffffff1614151515611c5e57600080fd5b8073ffffffffffffffffffffffffffffffffffffffff166000809054906101000a900473ffffffffffffffffffffffffffffffffffffffff1673ffffffffffffffffffffffffffffffffffffffff167f8be0079c531659141344cd1fd0a4f28419497f9722a3daafe3b4186f6b6457e060405160405180910390a3806000806101000a81548173ffffffffffffffffffffffffffffffffffffffff021916908373ffffffffffffffffffffffffffffffffffffffff160217905550505600a165627a7a7230582081037a04e08941d68c15af9d7fae4c00647b6393c727fc052e8b526e69a84a7f0029",
  "source": "pragma solidity ^0.4.24;\n\nimport \"openzeppelin-solidity/contracts/ownership/Ownable.sol\";\nimport \"openzeppelin-solidity/contracts/math/SafeMath.sol\";\n\nimport \"./VaultInterface.sol\";\nimport \"./TokenInterface.sol\";\nimport \"./FractionalExponents.sol\";\n\ncontract Logic is Ownable {\n    using SafeMath for uint256;\n\n    // Keep the balances of ERC20s\n    address public tokenContract;\n\n    // Bonding curve ETH\n    address public bondingVault;\n\n    // Contract that handles fractional exponents\n    address public exponentContract;\n\n    // Minimum ETH balance for valid bonding curve\n    uint256 public minEth;\n\n    event LogTokenSell\n    (\n        address byWhom,\n        uint256 price,\n        uint256 amountOfEth\n    );\n\n    event LogTokenContractChanged\n    (\n        address byWhom,\n        address oldContract,\n        address newContract\n    );\n\n    event LogBondingVaultChanged\n    (\n        address byWhom,\n        address oldContract,\n        address newContract\n    );\n\n    event LogExponentContractChanged\n    (\n        address byWhom,\n        address oldContract,\n        address newContract\n    );\n\n    event LogMinEthChanged\n    (\n        address byWhom,\n        uint256 oldAmount,\n        uint256 newAmount\n    );\n\n    modifier minimumBondingBalance() {\n        require(bondingVault.balance >= minEth, \"Not enough ETH in bonding vault contract\");\n        _;\n    }\n\n    /**\n     * @dev No fallback is allowed, use sponsor() to fund the Bonding Curve\n     */\n    function () public payable {\n        revert();\n    }\n\n    /**\n     * @dev Sponsoring the Bonding Curve with ETH. Note: this will not mint the tokens in return\n     * TODO: To take from Khana Framework\n     */\n    function sponsor() public payable {\n        require(bondingVault != address(0), \"Vault is missing\");\n        bondingVault.transfer(msg.value);\n    }\n\n    /**\n    * @dev this is a 'general' award method for the Bonding Curve, to be taken from Khana Framework.\n    * TODO: This method is supposed to be called by authorized accounts only (i.e. 'admins')\n    * which might be not a case for custmomizations, like 'Donations' where an 'external' action (donation) must be awarded.\n    * For such cases the sub-contract must be added to the authorized accounts list\n    */\n    function award(\n        address _account,\n        uint256 _amount,\n        string _ipfsHash\n    )\n    public\n    {\n        TokenInterface(tokenContract).mintToken(_account, _amount);\n    }\n\n    /**\n    * @dev sell function for selling tokens to bonding curve\n    */\n    function sell(uint256 _amount) public minimumBondingBalance returns (bool) {\n        uint256 tokenBalanceOfSender = TokenInterface(tokenContract).balanceOf(msg.sender);\n        require(_amount > 0 && tokenBalanceOfSender >= _amount, \"Amount needs to be > 0 and tokenBalance >= amount to sell\");\n\n        // calculate sell return\n        (uint256 price, uint256 amountOfEth) = calculateReturn(_amount, tokenBalanceOfSender);\n\n        // burn tokens\n        TokenInterface(tokenContract).burn(msg.sender, _amount);\n\n        // sendEth to msg.sender from bonding curve\n        VaultInterface(bondingVault).sendEth(amountOfEth, msg.sender);\n\n        emit LogTokenSell(msg.sender, price, amountOfEth);\n    }\n\n    /**\n     * @dev calculate how much ETH should be returned for a certain amount of tokens\n     * @notice using version 2.1 of Khana formula - see documentation for more details\n     * @notice the first returned value (finalPrice) includes the 10^18 multiplier.\n    */\n    function calculateReturn(\n        uint256 _sellAmount, \n        uint256 _tokenBalance\n    ) \n        public \n        view \n        returns (\n            uint256 finalPrice, \n            uint256 redeemableEth\n        ) \n    {\n        require(exponentContract != address(0), \"exponentContract must be set to valid address\");\n        require(_tokenBalance >= _sellAmount, \"User trying to sell more than they have\");\n        uint256 tokenSupply = TokenInterface(tokenContract).getSupply();\n        uint256 ethInVault = bondingVault.balance;\n\n        // For EVM accuracy\n        uint256 multiplier = 10**18;\n\n        if (coolDownPeriod(msg.sender) <= 0) {\n            // a = (Sp.10^8)\n            uint256 portionE8 = (_tokenBalance.mul(10**8).div(tokenSupply));\n\n            // b = a^1/10\n            (uint256 exponentResult, uint8 precision) = FractionalExponents(exponentContract).power(portionE8, 1, 1, 10);\n\n            // b/8 * (funds backing curve / token supply)\n            uint256 interimPrice = (exponentResult.div(8)).mul(ethInVault.mul(multiplier).div(tokenSupply)).div(multiplier);\n\n            // get final price (with multiplier)\n            finalPrice = (interimPrice.mul(multiplier)).div(2**uint256(precision));\n            \n            // redeemable ETH (without multiplier)\n            redeemableEth = finalPrice.mul(_sellAmount).div(multiplier);\n            return (finalPrice, redeemableEth);\n        } else {\n            return (0,0);\n        }\n    }\n\n    /**\n    * @dev Owner can withdraw the remaining ETH balance as long as no minted tokens left\n    */\n    function sweepVault() public onlyOwner {\n        require(TokenInterface(tokenContract).getSupply() == 0, 'Sweep available only if no minted tokens left');\n        require(bondingVault.balance > 0, 'Vault is empty');\n        VaultInterface(bondingVault).sendEth(bondingVault.balance, msg.sender);\n    }\n\n    // !! TODO: - set cooldown time period before selling\n    // returns uint256 in number of hours\n    function coolDownPeriod(address _tokenHolder) public view returns (uint256) {\n        // something like today - (day of buying + 7 days)\n        // todo when minting tokens\n        return 0;\n    }\n\n    /**\n    * @dev Set both the 'logicContract' and 'bondingVault' to different contract addresses in 1 tx\n    */\n    function setTokenAndBondingVault(address _tokenContract, address _bondingVaultContract) public onlyOwner {\n        setTokenContract(_tokenContract);\n        setBondingVault(_bondingVaultContract);\n    }\n\n    /**\n    * @dev Set the 'logicContract' to a different contract address\n    */\n    function setTokenContract(address _tokenContract) public onlyOwner {\n        address oldContract = tokenContract;\n        tokenContract = _tokenContract;\n        emit LogTokenContractChanged(msg.sender, oldContract, _tokenContract);\n    }\n\n    /**\n    * @dev Set the 'bondingVault' to a different contract address\n    */\n    function setBondingVault(address _bondingVault) public onlyOwner {\n        address oldContract = bondingVault;\n        bondingVault = _bondingVault;\n        emit LogBondingVaultChanged(msg.sender, oldContract, _bondingVault);\n    }\n\n    /**\n    * @dev Set the 'exponentContract' which calculates fractional exponents\n    */\n    function setExponentContract(address _exponentContract) public onlyOwner {\n        address oldContract = exponentContract;\n        exponentContract = _exponentContract;\n        emit LogExponentContractChanged(msg.sender, oldContract, exponentContract);\n    }\n\n    /**\n    * @dev Set the 'minEth' amount\n    */\n    function setMinEth(uint256 _minEth) public onlyOwner {\n        uint256 oldAmount = minEth;\n        minEth = _minEth;\n        emit LogMinEthChanged(msg.sender, oldAmount, _minEth);\n    }\n}",
  "sourcePath": "/Users/kirilivanov/DEV/BondedDonations/contracts/Logic.sol",
  "compiler": {
    "name": "solc",
    "version": "0.4.25+commit.59dbf8f1.Emscripten.clang"
  },
  "schemaVersion": "3.0.0-beta.1",
  "updatedAt": "2018-11-20T21:12:00.188Z"
}