{
  "contractName": "Logic",
  "abi": [
    {
      "constant": true,
      "inputs": [],
      "name": "tokenContract",
      "outputs": [
        {
          "name": "",
          "type": "address"
        }
      ],
      "payable": false,
      "stateMutability": "view",
      "type": "function",
      "signature": "0x55a373d6"
    },
    {
      "constant": false,
      "inputs": [],
      "name": "renounceOwnership",
      "outputs": [],
      "payable": false,
      "stateMutability": "nonpayable",
      "type": "function",
      "signature": "0x715018a6"
    },
    {
      "constant": true,
      "inputs": [],
      "name": "owner",
      "outputs": [
        {
          "name": "",
          "type": "address"
        }
      ],
      "payable": false,
      "stateMutability": "view",
      "type": "function",
      "signature": "0x8da5cb5b"
    },
    {
      "constant": true,
      "inputs": [],
      "name": "isOwner",
      "outputs": [
        {
          "name": "",
          "type": "bool"
        }
      ],
      "payable": false,
      "stateMutability": "view",
      "type": "function",
      "signature": "0x8f32d59b"
    },
    {
      "constant": true,
      "inputs": [],
      "name": "kycEnabled",
      "outputs": [
        {
          "name": "",
          "type": "bool"
        }
      ],
      "payable": false,
      "stateMutability": "view",
      "type": "function",
      "signature": "0xa6fcb053"
    },
    {
      "constant": true,
      "inputs": [],
      "name": "charityAddress",
      "outputs": [
        {
          "name": "",
          "type": "address"
        }
      ],
      "payable": false,
      "stateMutability": "view",
      "type": "function",
      "signature": "0xafcf2fc4"
    },
    {
      "constant": true,
      "inputs": [],
      "name": "bondingContract",
      "outputs": [
        {
          "name": "",
          "type": "address"
        }
      ],
      "payable": false,
      "stateMutability": "view",
      "type": "function",
      "signature": "0xe999720f"
    },
    {
      "constant": true,
      "inputs": [],
      "name": "minEth",
      "outputs": [
        {
          "name": "",
          "type": "uint256"
        }
      ],
      "payable": false,
      "stateMutability": "view",
      "type": "function",
      "signature": "0xf1fb3ace"
    },
    {
      "constant": false,
      "inputs": [
        {
          "name": "newOwner",
          "type": "address"
        }
      ],
      "name": "transferOwnership",
      "outputs": [],
      "payable": false,
      "stateMutability": "nonpayable",
      "type": "function",
      "signature": "0xf2fde38b"
    },
    {
      "anonymous": false,
      "inputs": [
        {
          "indexed": false,
          "name": "byWhom",
          "type": "address"
        },
        {
          "indexed": false,
          "name": "oldContract",
          "type": "address"
        },
        {
          "indexed": false,
          "name": "newContract",
          "type": "address"
        }
      ],
      "name": "LogTokenContractChanged",
      "type": "event",
      "signature": "0x8e50965f27112954dcece2b6acec24689db20cd8a09e23837f4c5cf6bd6a29e8"
    },
    {
      "anonymous": false,
      "inputs": [
        {
          "indexed": false,
          "name": "byWhom",
          "type": "address"
        },
        {
          "indexed": false,
          "name": "oldContract",
          "type": "address"
        },
        {
          "indexed": false,
          "name": "newContract",
          "type": "address"
        }
      ],
      "name": "LogBondingContractChanged",
      "type": "event",
      "signature": "0xb76fee6ff92052ea3e489e660761c1506aac7bc3d6af37a4dba8eb06bc9afd81"
    },
    {
      "anonymous": false,
      "inputs": [
        {
          "indexed": false,
          "name": "byWhom",
          "type": "address"
        },
        {
          "indexed": false,
          "name": "oldAmount",
          "type": "uint256"
        },
        {
          "indexed": false,
          "name": "newAmount",
          "type": "uint256"
        }
      ],
      "name": "LogMinEthChanged",
      "type": "event",
      "signature": "0x1e1fdbd340901d436c69ac3496a4171ebc1b92ef074c5ff964c1b75398e1d28b"
    },
    {
      "anonymous": false,
      "inputs": [
        {
          "indexed": false,
          "name": "byWhom",
          "type": "address"
        },
        {
          "indexed": false,
          "name": "oldAddress",
          "type": "address"
        },
        {
          "indexed": false,
          "name": "newAddress",
          "type": "address"
        }
      ],
      "name": "LogCharityAddressChanged",
      "type": "event",
      "signature": "0xf516a178a831b8ee80532d0b16f0a1f07320bf62d7fb0367a8194011bc44fef5"
    },
    {
      "anonymous": false,
      "inputs": [
        {
          "indexed": false,
          "name": "byWhom",
          "type": "address"
        },
        {
          "indexed": false,
          "name": "amount",
          "type": "uint256"
        }
      ],
      "name": "LogDonationReceived",
      "type": "event",
      "signature": "0xde5c26dd3fd805828d78c07f1efc4c8972ca8efa32679f943954cbba78eccef0"
    },
    {
      "anonymous": false,
      "inputs": [
        {
          "indexed": false,
          "name": "amount",
          "type": "uint256"
        },
        {
          "indexed": true,
          "name": "account",
          "type": "address"
        }
      ],
      "name": "LogCharityAllocationSent",
      "type": "event",
      "signature": "0xcd2309e8e98adc2237be23f4a19fdf149d3046ddc76b6b16423932cb01324f9d"
    },
    {
      "anonymous": false,
      "inputs": [
        {
          "indexed": true,
          "name": "previousOwner",
          "type": "address"
        },
        {
          "indexed": true,
          "name": "newOwner",
          "type": "address"
        }
      ],
      "name": "OwnershipTransferred",
      "type": "event",
      "signature": "0x8be0079c531659141344cd1fd0a4f28419497f9722a3daafe3b4186f6b6457e0"
    },
    {
      "constant": false,
      "inputs": [],
      "name": "donate",
      "outputs": [
        {
          "name": "",
          "type": "bool"
        }
      ],
      "payable": true,
      "stateMutability": "payable",
      "type": "function",
      "signature": "0xed88c68e"
    },
    {
      "constant": false,
      "inputs": [
        {
          "name": "_amount",
          "type": "uint256"
        }
      ],
      "name": "sell",
      "outputs": [
        {
          "name": "",
          "type": "bool"
        }
      ],
      "payable": false,
      "stateMutability": "nonpayable",
      "type": "function",
      "signature": "0xe4849b32"
    },
    {
      "constant": true,
      "inputs": [
        {
          "name": "_sellAmount",
          "type": "uint256"
        },
        {
          "name": "_tokenBalance",
          "type": "uint256"
        }
      ],
      "name": "calculateReturn",
      "outputs": [
        {
          "name": "",
          "type": "uint256"
        }
      ],
      "payable": false,
      "stateMutability": "view",
      "type": "function",
      "signature": "0x06dd4c4e"
    },
    {
      "constant": true,
      "inputs": [
        {
          "name": "_tokenHolder",
          "type": "address"
        }
      ],
      "name": "coolDownPeriod",
      "outputs": [
        {
          "name": "",
          "type": "uint256"
        }
      ],
      "payable": false,
      "stateMutability": "view",
      "type": "function",
      "signature": "0x132611f0"
    },
    {
      "constant": false,
      "inputs": [
        {
          "name": "_tokenContract",
          "type": "address"
        },
        {
          "name": "_bondingContract",
          "type": "address"
        }
      ],
      "name": "setTokenAndBondingContract",
      "outputs": [],
      "payable": false,
      "stateMutability": "nonpayable",
      "type": "function",
      "signature": "0x56125a95"
    },
    {
      "constant": false,
      "inputs": [
        {
          "name": "_tokenContract",
          "type": "address"
        }
      ],
      "name": "setTokenContract",
      "outputs": [],
      "payable": false,
      "stateMutability": "nonpayable",
      "type": "function",
      "signature": "0xbbcd5bbe"
    },
    {
      "constant": false,
      "inputs": [
        {
          "name": "_bondingContract",
          "type": "address"
        }
      ],
      "name": "setBondingContract",
      "outputs": [],
      "payable": false,
      "stateMutability": "nonpayable",
      "type": "function",
      "signature": "0xeecaab06"
    },
    {
      "constant": false,
      "inputs": [
        {
          "name": "_minEth",
          "type": "uint256"
        }
      ],
      "name": "setMinEth",
      "outputs": [],
      "payable": false,
      "stateMutability": "nonpayable",
      "type": "function",
      "signature": "0x854d9ed9"
    },
    {
      "constant": false,
      "inputs": [
        {
          "name": "_charityAddress",
          "type": "address"
        }
      ],
      "name": "setCharityAddress",
      "outputs": [],
      "payable": false,
      "stateMutability": "nonpayable",
      "type": "function",
      "signature": "0x0c9be46d"
    }
  ],
  "bytecode": "0x6080604052336000806101000a81548173ffffffffffffffffffffffffffffffffffffffff021916908373ffffffffffffffffffffffffffffffffffffffff1602179055506000809054906101000a900473ffffffffffffffffffffffffffffffffffffffff1673ffffffffffffffffffffffffffffffffffffffff16600073ffffffffffffffffffffffffffffffffffffffff167f8be0079c531659141344cd1fd0a4f28419497f9722a3daafe3b4186f6b6457e060405160405180910390a361196a806100cf6000396000f3006080604052600436106100fc576000357c0100000000000000000000000000000000000000000000000000000000900463ffffffff16806306dd4c4e146101015780630c9be46d1461014c578063132611f01461018f57806355a373d6146101e657806356125a951461023d578063715018a6146102a0578063854d9ed9146102b75780638da5cb5b146102e45780638f32d59b1461033b578063a6fcb0531461036a578063afcf2fc414610399578063bbcd5bbe146103f0578063e4849b3214610433578063e999720f14610478578063ed88c68e146104cf578063eecaab06146104f1578063f1fb3ace14610534578063f2fde38b1461055f575b600080fd5b34801561010d57600080fd5b5061013660048036038101908080359060200190929190803590602001909291905050506105a2565b6040518082815260200191505060405180910390f35b34801561015857600080fd5b5061018d600480360381019080803573ffffffffffffffffffffffffffffffffffffffff169060200190929190505050610840565b005b34801561019b57600080fd5b506101d0600480360381019080803573ffffffffffffffffffffffffffffffffffffffff16906020019092919050505061098a565b6040518082815260200191505060405180910390f35b3480156101f257600080fd5b506101fb610994565b604051808273ffffffffffffffffffffffffffffffffffffffff1673ffffffffffffffffffffffffffffffffffffffff16815260200191505060405180910390f35b34801561024957600080fd5b5061029e600480360381019080803573ffffffffffffffffffffffffffffffffffffffff169060200190929190803573ffffffffffffffffffffffffffffffffffffffff1690602001909291905050506109ba565b005b3480156102ac57600080fd5b506102b56109e3565b005b3480156102c357600080fd5b506102e260048036038101908080359060200190929190505050610ab5565b005b3480156102f057600080fd5b506102f9610b4d565b604051808273ffffffffffffffffffffffffffffffffffffffff1673ffffffffffffffffffffffffffffffffffffffff16815260200191505060405180910390f35b34801561034757600080fd5b50610350610b76565b604051808215151515815260200191505060405180910390f35b34801561037657600080fd5b5061037f610bcd565b604051808215151515815260200191505060405180910390f35b3480156103a557600080fd5b506103ae610be0565b604051808273ffffffffffffffffffffffffffffffffffffffff1673ffffffffffffffffffffffffffffffffffffffff16815260200191505060405180910390f35b3480156103fc57600080fd5b50610431600480360381019080803573ffffffffffffffffffffffffffffffffffffffff169060200190929190505050610c06565b005b34801561043f57600080fd5b5061045e60048036038101908080359060200190929190505050610d50565b604051808215151515815260200191505060405180910390f35b34801561048457600080fd5b5061048d61119f565b604051808273ffffffffffffffffffffffffffffffffffffffff1673ffffffffffffffffffffffffffffffffffffffff16815260200191505060405180910390f35b6104d76111c5565b604051808215151515815260200191505060405180910390f35b3480156104fd57600080fd5b50610532600480360381019080803573ffffffffffffffffffffffffffffffffffffffff169060200190929190505050611592565b005b34801561054057600080fd5b506105496116dc565b6040518082815260200191505060405180910390f35b34801561056b57600080fd5b506105a0600480360381019080803573ffffffffffffffffffffffffffffffffffffffff1690602001909291905050506116e2565b005b600080600080600080600088881015151561064b576040517f08c379a00000000000000000000000000000000000000000000000000000000081526004018080602001828103825260278152602001807f5573657220747279696e6720746f2073656c6c206d6f7265207468616e20746881526020017f657920686176650000000000000000000000000000000000000000000000000081525060400191505060405180910390fd5b600160009054906101000a900473ffffffffffffffffffffffffffffffffffffffff1673ffffffffffffffffffffffffffffffffffffffff16636c9c2faf6040518163ffffffff167c0100000000000000000000000000000000000000000000000000000000028152600401602060405180830381600087803b1580156106d157600080fd5b505af11580156106e5573d6000803e3d6000fd5b505050506040513d60208110156106fb57600080fd5b81019080805190602001909291905050509550670de0b6b3a7640000945060006107243361098a565b11151561082f5761075086610742878b61170190919063ffffffff16565b61173f90919063ffffffff16565b935061079c8561078e8661078060046107728b8c61173f90919063ffffffff16565b61173f90919063ffffffff16565b61176990919063ffffffff16565b61173f90919063ffffffff16565b9250610810856108026107f189600260009054906101000a900473ffffffffffffffffffffffffffffffffffffffff1673ffffffffffffffffffffffffffffffffffffffff163161173f90919063ffffffff16565b86880a61170190919063ffffffff16565b61173f90919063ffffffff16565b9150610825898361170190919063ffffffff16565b9050809650610834565b600096505b50505050505092915050565b600061084a610b76565b151561085557600080fd5b600360009054906101000a900473ffffffffffffffffffffffffffffffffffffffff16905081600360006101000a81548173ffffffffffffffffffffffffffffffffffffffff021916908373ffffffffffffffffffffffffffffffffffffffff1602179055507ff516a178a831b8ee80532d0b16f0a1f07320bf62d7fb0367a8194011bc44fef5338284604051808473ffffffffffffffffffffffffffffffffffffffff1673ffffffffffffffffffffffffffffffffffffffff1681526020018373ffffffffffffffffffffffffffffffffffffffff1673ffffffffffffffffffffffffffffffffffffffff1681526020018273ffffffffffffffffffffffffffffffffffffffff1673ffffffffffffffffffffffffffffffffffffffff168152602001935050505060405180910390a15050565b6000809050919050565b600160009054906101000a900473ffffffffffffffffffffffffffffffffffffffff1681565b6109c2610b76565b15156109cd57600080fd5b6109d682610c06565b6109df81611592565b5050565b6109eb610b76565b15156109f657600080fd5b600073ffffffffffffffffffffffffffffffffffffffff166000809054906101000a900473ffffffffffffffffffffffffffffffffffffffff1673ffffffffffffffffffffffffffffffffffffffff167f8be0079c531659141344cd1fd0a4f28419497f9722a3daafe3b4186f6b6457e060405160405180910390a360008060006101000a81548173ffffffffffffffffffffffffffffffffffffffff021916908373ffffffffffffffffffffffffffffffffffffffff160217905550565b6000610abf610b76565b1515610aca57600080fd5b6004549050816004819055507f1e1fdbd340901d436c69ac3496a4171ebc1b92ef074c5ff964c1b75398e1d28b338284604051808473ffffffffffffffffffffffffffffffffffffffff1673ffffffffffffffffffffffffffffffffffffffff168152602001838152602001828152602001935050505060405180910390a15050565b60008060009054906101000a900473ffffffffffffffffffffffffffffffffffffffff16905090565b60008060009054906101000a900473ffffffffffffffffffffffffffffffffffffffff1673ffffffffffffffffffffffffffffffffffffffff163373ffffffffffffffffffffffffffffffffffffffff1614905090565b600360149054906101000a900460ff1681565b600360009054906101000a900473ffffffffffffffffffffffffffffffffffffffff1681565b6000610c10610b76565b1515610c1b57600080fd5b600160009054906101000a900473ffffffffffffffffffffffffffffffffffffffff16905081600160006101000a81548173ffffffffffffffffffffffffffffffffffffffff021916908373ffffffffffffffffffffffffffffffffffffffff1602179055507f8e50965f27112954dcece2b6acec24689db20cd8a09e23837f4c5cf6bd6a29e8338284604051808473ffffffffffffffffffffffffffffffffffffffff1673ffffffffffffffffffffffffffffffffffffffff1681526020018373ffffffffffffffffffffffffffffffffffffffff1673ffffffffffffffffffffffffffffffffffffffff1681526020018273ffffffffffffffffffffffffffffffffffffffff1673ffffffffffffffffffffffffffffffffffffffff168152602001935050505060405180910390a15050565b6000806000600454600260009054906101000a900473ffffffffffffffffffffffffffffffffffffffff1673ffffffffffffffffffffffffffffffffffffffff163110151515610e2e576040517f08c379a00000000000000000000000000000000000000000000000000000000081526004018080602001828103825260228152602001807f4e6f7420656e6f7567682045544820696e20626f6e64696e6720636f6e74726181526020017f637400000000000000000000000000000000000000000000000000000000000081525060400191505060405180910390fd5b600160009054906101000a900473ffffffffffffffffffffffffffffffffffffffff1673ffffffffffffffffffffffffffffffffffffffff166370a08231336040518263ffffffff167c0100000000000000000000000000000000000000000000000000000000028152600401808273ffffffffffffffffffffffffffffffffffffffff1673ffffffffffffffffffffffffffffffffffffffff168152602001915050602060405180830381600087803b158015610eeb57600080fd5b505af1158015610eff573d6000803e3d6000fd5b505050506040513d6020811015610f1557600080fd5b81019080805190602001909291905050509150600084118015610f385750838210155b1515610fd2576040517f08c379a00000000000000000000000000000000000000000000000000000000081526004018080602001828103825260398152602001807f416d6f756e74206e6565647320746f206265203e203020616e6420746f6b656e81526020017f42616c616e6365203e3d20616d6f756e7420746f2073656c6c0000000000000081525060400191505060405180910390fd5b610fdc84836105a2565b9050600160009054906101000a900473ffffffffffffffffffffffffffffffffffffffff1673ffffffffffffffffffffffffffffffffffffffff16639dc29fac33866040518363ffffffff167c0100000000000000000000000000000000000000000000000000000000028152600401808373ffffffffffffffffffffffffffffffffffffffff1673ffffffffffffffffffffffffffffffffffffffff16815260200182815260200192505050600060405180830381600087803b1580156110a357600080fd5b505af11580156110b7573d6000803e3d6000fd5b50505050600260009054906101000a900473ffffffffffffffffffffffffffffffffffffffff1673ffffffffffffffffffffffffffffffffffffffff16633436860282336040518363ffffffff167c0100000000000000000000000000000000000000000000000000000000028152600401808381526020018273ffffffffffffffffffffffffffffffffffffffff1673ffffffffffffffffffffffffffffffffffffffff16815260200192505050600060405180830381600087803b15801561118057600080fd5b505af1158015611194573d6000803e3d6000fd5b505050505050919050565b600260009054906101000a900473ffffffffffffffffffffffffffffffffffffffff1681565b60008060008060008073ffffffffffffffffffffffffffffffffffffffff16600360009054906101000a900473ffffffffffffffffffffffffffffffffffffffff1673ffffffffffffffffffffffffffffffffffffffff16141515156112b9576040517f08c379a00000000000000000000000000000000000000000000000000000000081526004018080602001828103825260248152602001807f436861726974792061646472657373206973206e6f742073657420636f72726581526020017f63746c790000000000000000000000000000000000000000000000000000000081525060400191505060405180910390fd5b600034111515611331576040517f08c379a000000000000000000000000000000000000000000000000000000000815260040180806020018281038252601f8152602001807f4d75737420696e636c75646520736f6d652045544820746f20646f6e6174650081525060200191505060405180910390fd5b60649350611349605a3461170190919063ffffffff16565b92506113828461137485611366883461170190919063ffffffff16565b61176990919063ffffffff16565b61173f90919063ffffffff16565b915061139f61139a858561173f90919063ffffffff16565b61178a565b600260009054906101000a900473ffffffffffffffffffffffffffffffffffffffff1673ffffffffffffffffffffffffffffffffffffffff166108fc839081150290604051600060405180830381858888f19350505050158015611407573d6000803e3d6000fd5b50600160009054906101000a900473ffffffffffffffffffffffffffffffffffffffff1673ffffffffffffffffffffffffffffffffffffffff166379c650683361145b600a3461170190919063ffffffff16565b6040518363ffffffff167c0100000000000000000000000000000000000000000000000000000000028152600401808373ffffffffffffffffffffffffffffffffffffffff1673ffffffffffffffffffffffffffffffffffffffff16815260200182815260200192505050602060405180830381600087803b1580156114e057600080fd5b505af11580156114f4573d6000803e3d6000fd5b505050506040513d602081101561150a57600080fd5b810190808051906020019092919050505090507fde5c26dd3fd805828d78c07f1efc4c8972ca8efa32679f943954cbba78eccef03334604051808373ffffffffffffffffffffffffffffffffffffffff1673ffffffffffffffffffffffffffffffffffffffff1681526020018281526020019250505060405180910390a18094505050505090565b600061159c610b76565b15156115a757600080fd5b600260009054906101000a900473ffffffffffffffffffffffffffffffffffffffff16905081600260006101000a81548173ffffffffffffffffffffffffffffffffffffffff021916908373ffffffffffffffffffffffffffffffffffffffff1602179055507fb76fee6ff92052ea3e489e660761c1506aac7bc3d6af37a4dba8eb06bc9afd81338284604051808473ffffffffffffffffffffffffffffffffffffffff1673ffffffffffffffffffffffffffffffffffffffff1681526020018373ffffffffffffffffffffffffffffffffffffffff1673ffffffffffffffffffffffffffffffffffffffff1681526020018273ffffffffffffffffffffffffffffffffffffffff1673ffffffffffffffffffffffffffffffffffffffff168152602001935050505060405180910390a15050565b60045481565b6116ea610b76565b15156116f557600080fd5b6116fe81611844565b50565b60008060008414156117165760009150611738565b828402905082848281151561172757fe5b0414151561173457600080fd5b8091505b5092915050565b60008060008311151561175157600080fd5b828481151561175c57fe5b0490508091505092915050565b60008083831115151561177b57600080fd5b82840390508091505092915050565b600360009054906101000a900473ffffffffffffffffffffffffffffffffffffffff1673ffffffffffffffffffffffffffffffffffffffff166108fc829081150290604051600060405180830381858888f193505050501580156117f2573d6000803e3d6000fd5b503373ffffffffffffffffffffffffffffffffffffffff167fcd2309e8e98adc2237be23f4a19fdf149d3046ddc76b6b16423932cb01324f9d826040518082815260200191505060405180910390a250565b600073ffffffffffffffffffffffffffffffffffffffff168173ffffffffffffffffffffffffffffffffffffffff161415151561188057600080fd5b8073ffffffffffffffffffffffffffffffffffffffff166000809054906101000a900473ffffffffffffffffffffffffffffffffffffffff1673ffffffffffffffffffffffffffffffffffffffff167f8be0079c531659141344cd1fd0a4f28419497f9722a3daafe3b4186f6b6457e060405160405180910390a3806000806101000a81548173ffffffffffffffffffffffffffffffffffffffff021916908373ffffffffffffffffffffffffffffffffffffffff160217905550505600a165627a7a723058206214f2d979e6deaf1027887a2eb87b1d060c514a5d896606f1c32a1a48cc28290029",
  "source": "pragma solidity ^0.4.24;\n\nimport \"openzeppelin-solidity/contracts/ownership/Ownable.sol\";\nimport \"openzeppelin-solidity/contracts/math/SafeMath.sol\";\nimport \"./BondingCurve.sol\";\nimport \"./Token.sol\";\n\ncontract Logic is Ownable {\n    using SafeMath for uint256;\n\n    // Keep the balances of ERC20s\n    address public tokenContract;\n\n    // Bonding curve ETH\n    address public bondingContract;\n\n    // Charity address\n    address public charityAddress;\n\n    // KYC flag\n    bool public kycEnabled;\n\n    // Minimum ETH balance for valid bonding curve\n    uint256 public minEth;\n\n    event LogTokenContractChanged\n    (\n        address byWhom,\n        address oldContract,\n        address newContract\n    );\n\n    event LogBondingContractChanged\n    (\n        address byWhom,\n        address oldContract,\n        address newContract\n    );\n\n    event LogMinEthChanged\n    (\n        address byWhom,\n        uint256 oldAmount,\n        uint256 newAmount\n    );\n\n    event LogCharityAddressChanged\n    (\n        address byWhom,\n        address oldAddress,\n        address newAddress\n    );\n\n    event LogDonationReceived\n    (\n        address byWhom,\n        uint256 amount\n    );\n\n    event LogCharityAllocationSent(\n        uint256 amount,\n        address indexed account\n    );\n\n    modifier kycCheck() {\n        if (kycEnabled) {\n            // require whitelisted address (see Bloom docs?)\n        }\n        _;\n    }\n\n    modifier minimumBondingBalance() {\n        require(bondingContract.balance >= minEth, \"Not enough ETH in bonding contract\");\n        _;\n    }\n\n    /**\n    * @dev donation function splits ETH, 90% to charityAddress, 10% to fund bonding curve\n    */\n    function donate() public payable returns (bool) {\n        require(charityAddress != address(0), \"Charity address is not set correctly\");\n        require(msg.value > 0, \"Must include some ETH to donate\");\n\n        // Make ETH distributions\n        uint256 multiplier = 100;\n        uint256 charityAllocation = (msg.value).mul(90); // 90% with multiplier\n        uint256 bondingAllocation = (msg.value.mul(multiplier)).sub(charityAllocation).div(multiplier);\n        sendToCharity(charityAllocation.div(multiplier));\n\n        // sendToCharity(0.9 ether);\n        // uint256 bondingAllocation = 0.1 ether;\n        bondingContract.transfer(bondingAllocation);\n\n        // Mint the tokens - 10:1 ratio (e.g. for every 1 ETH sent, you get 10 tokens)\n        bool minting = Token(tokenContract).mintToken(msg.sender, (msg.value).mul(10));\n        emit LogDonationReceived(msg.sender, msg.value);\n\n        return minting;\n    }\n    \n    // TODO: - DAI integration: buy DAI with ETH, store in charityAddress\n    function sendToCharity(uint256 _amount) internal {\n        // this should auto convert to DAI\n        // look into OasisDEX or Bancor on-chain tx\n        charityAddress.transfer(_amount);\n        emit LogCharityAllocationSent(_amount, msg.sender);\n    }\n\n    /**\n    * @dev sell function for selling tokens to bonding curve\n    */\n    function sell(uint256 _amount) public minimumBondingBalance returns (bool) {\n        uint256 tokenBalanceOfSender = Token(tokenContract).balanceOf(msg.sender);\n        require(_amount > 0 && tokenBalanceOfSender >= _amount, \"Amount needs to be > 0 and tokenBalance >= amount to sell\");\n\n        // calculate sell return\n        uint256 amountOfEth = calculateReturn(_amount, tokenBalanceOfSender);\n\n        // burn tokens\n        Token(tokenContract).burn(msg.sender, _amount);\n\n        // sendEth to msg.sender from bonding curve\n        BondingCurve(bondingContract).sendEth(amountOfEth, msg.sender);\n    }\n\n    /**\n    * @dev calculate how much ETH should be returned for a certain amount of tokens\n    */\n    function calculateReturn(uint256 _sellAmount, uint256 _tokenBalance) public view returns (uint256) {\n        require(_tokenBalance >= _sellAmount, \"User trying to sell more than they have\");\n        uint256 supply = Token(tokenContract).getSupply();\n\n        // For EVM accuracy\n        uint256 multiplier = 10**18;\n\n        if (coolDownPeriod(msg.sender) <= 0) {\n            // Price = (Portion of Supply ^ ((1/4) - Portion of Supply)) * (ETH in Pot / Token supply)\n            uint256 portionOfSupply = (_tokenBalance.mul(multiplier).div(supply));\n            uint256 exponent = ((multiplier.div(multiplier).div(4)).sub(portionOfSupply)).div(multiplier);\n            uint256 price = ((portionOfSupply**exponent).mul((bondingContract.balance).div(supply))).div(multiplier);\n            \n            uint256 redeemableEth = price.mul(_sellAmount);\n            return redeemableEth;\n        } else {\n            return 0;\n        }\n    }\n\n    // !! TODO: - set cooldown time period before selling\n    // returns uint256 in number of hours\n    function coolDownPeriod(address _tokenHolder) public view returns (uint256) {\n        // something like today - (day of buying + 7 days)\n        // todo when minting tokens\n        return 0;\n    }\n\n    // KYC logic - stretch goals\n    // add donator to whitelist\n    // see Bloom docs\n\n    // only owner\n\n    /**\n    * @dev Set both the 'logicContract' and 'bondingContract' to different contract addresses in 1 tx\n    */\n    function setTokenAndBondingContract(address _tokenContract, address _bondingContract) public onlyOwner {\n        setTokenContract(_tokenContract);\n        setBondingContract(_bondingContract);\n    }\n\n    /**\n    * @dev Set the 'logicContract' to a different contract address\n    */\n    function setTokenContract(address _tokenContract) public onlyOwner {\n        address oldContract = tokenContract;\n        tokenContract = _tokenContract;\n        emit LogTokenContractChanged(msg.sender, oldContract, _tokenContract);\n    }\n\n    /**\n    * @dev Set the 'bondingContract' to a different contract address\n    */\n    function setBondingContract(address _bondingContract) public onlyOwner {\n        address oldContract = bondingContract;\n        bondingContract = _bondingContract;\n        emit LogBondingContractChanged(msg.sender, oldContract, _bondingContract);\n    }\n\n    /**\n    * @dev Set the 'minEth' amount\n    */\n    function setMinEth(uint256 _minEth) public onlyOwner {\n        uint256 oldAmount = minEth;\n        minEth = _minEth;\n        emit LogMinEthChanged(msg.sender, oldAmount, _minEth);\n    }\n\n    /**\n    * @dev Set the 'charityAddress' to a different contract address\n    */\n    function setCharityAddress(address _charityAddress) public onlyOwner {\n        address oldAddress = charityAddress;\n        charityAddress = _charityAddress;\n        emit LogCharityAddressChanged(msg.sender, oldAddress, _charityAddress);\n    }\n\n    //allow freezing of everything\n\n}",
  "sourcePath": "/Users/david/Documents/Documents - David’s MacBook Pro/GitHub/BondedDonations/contracts/Logic.sol",
  "compiler": {
    "name": "solc",
    "version": "0.4.25+commit.59dbf8f1.Emscripten.clang"
  },
  "schemaVersion": "3.0.0-beta.1",
  "updatedAt": "2018-10-30T01:42:08.267Z"
}