{
  "contractName": "Logic",
  "abi": [
    {
      "constant": true,
      "inputs": [],
      "name": "tokenContract",
      "outputs": [
        {
          "name": "",
          "type": "address"
        }
      ],
      "payable": false,
      "stateMutability": "view",
      "type": "function"
    },
    {
      "constant": false,
      "inputs": [],
      "name": "renounceOwnership",
      "outputs": [],
      "payable": false,
      "stateMutability": "nonpayable",
      "type": "function"
    },
    {
      "constant": true,
      "inputs": [],
      "name": "owner",
      "outputs": [
        {
          "name": "",
          "type": "address"
        }
      ],
      "payable": false,
      "stateMutability": "view",
      "type": "function"
    },
    {
      "constant": true,
      "inputs": [],
      "name": "isOwner",
      "outputs": [
        {
          "name": "",
          "type": "bool"
        }
      ],
      "payable": false,
      "stateMutability": "view",
      "type": "function"
    },
    {
      "constant": true,
      "inputs": [],
      "name": "bondingVault",
      "outputs": [
        {
          "name": "",
          "type": "address"
        }
      ],
      "payable": false,
      "stateMutability": "view",
      "type": "function"
    },
    {
      "constant": true,
      "inputs": [],
      "name": "minEth",
      "outputs": [
        {
          "name": "",
          "type": "uint256"
        }
      ],
      "payable": false,
      "stateMutability": "view",
      "type": "function"
    },
    {
      "constant": false,
      "inputs": [
        {
          "name": "newOwner",
          "type": "address"
        }
      ],
      "name": "transferOwnership",
      "outputs": [],
      "payable": false,
      "stateMutability": "nonpayable",
      "type": "function"
    },
    {
      "payable": true,
      "stateMutability": "payable",
      "type": "fallback"
    },
    {
      "anonymous": false,
      "inputs": [
        {
          "indexed": false,
          "name": "byWhom",
          "type": "address"
        },
        {
          "indexed": false,
          "name": "oldContract",
          "type": "address"
        },
        {
          "indexed": false,
          "name": "newContract",
          "type": "address"
        }
      ],
      "name": "LogTokenContractChanged",
      "type": "event"
    },
    {
      "anonymous": false,
      "inputs": [
        {
          "indexed": false,
          "name": "byWhom",
          "type": "address"
        },
        {
          "indexed": false,
          "name": "oldContract",
          "type": "address"
        },
        {
          "indexed": false,
          "name": "newContract",
          "type": "address"
        }
      ],
      "name": "LogBondingVaultChanged",
      "type": "event"
    },
    {
      "anonymous": false,
      "inputs": [
        {
          "indexed": false,
          "name": "byWhom",
          "type": "address"
        },
        {
          "indexed": false,
          "name": "oldAmount",
          "type": "uint256"
        },
        {
          "indexed": false,
          "name": "newAmount",
          "type": "uint256"
        }
      ],
      "name": "LogMinEthChanged",
      "type": "event"
    },
    {
      "anonymous": false,
      "inputs": [
        {
          "indexed": true,
          "name": "previousOwner",
          "type": "address"
        },
        {
          "indexed": true,
          "name": "newOwner",
          "type": "address"
        }
      ],
      "name": "OwnershipTransferred",
      "type": "event"
    },
    {
      "constant": false,
      "inputs": [
        {
          "name": "_account",
          "type": "address"
        },
        {
          "name": "_amount",
          "type": "uint256"
        },
        {
          "name": "_ipfsHash",
          "type": "string"
        }
      ],
      "name": "award",
      "outputs": [],
      "payable": false,
      "stateMutability": "nonpayable",
      "type": "function"
    },
    {
      "constant": false,
      "inputs": [
        {
          "name": "_amount",
          "type": "uint256"
        }
      ],
      "name": "sell",
      "outputs": [
        {
          "name": "",
          "type": "bool"
        }
      ],
      "payable": false,
      "stateMutability": "nonpayable",
      "type": "function"
    },
    {
      "constant": true,
      "inputs": [
        {
          "name": "_sellAmount",
          "type": "uint256"
        },
        {
          "name": "_tokenBalance",
          "type": "uint256"
        }
      ],
      "name": "calculateReturn",
      "outputs": [
        {
          "name": "",
          "type": "uint256"
        }
      ],
      "payable": false,
      "stateMutability": "view",
      "type": "function"
    },
    {
      "constant": true,
      "inputs": [
        {
          "name": "_tokenHolder",
          "type": "address"
        }
      ],
      "name": "coolDownPeriod",
      "outputs": [
        {
          "name": "",
          "type": "uint256"
        }
      ],
      "payable": false,
      "stateMutability": "view",
      "type": "function"
    },
    {
      "constant": false,
      "inputs": [
        {
          "name": "_tokenContract",
          "type": "address"
        },
        {
          "name": "_bondingVaultContract",
          "type": "address"
        }
      ],
      "name": "setTokenAndBondingVault",
      "outputs": [],
      "payable": false,
      "stateMutability": "nonpayable",
      "type": "function"
    },
    {
      "constant": false,
      "inputs": [
        {
          "name": "_tokenContract",
          "type": "address"
        }
      ],
      "name": "setTokenContract",
      "outputs": [],
      "payable": false,
      "stateMutability": "nonpayable",
      "type": "function"
    },
    {
      "constant": false,
      "inputs": [
        {
          "name": "_bondingVault",
          "type": "address"
        }
      ],
      "name": "setBondingVault",
      "outputs": [],
      "payable": false,
      "stateMutability": "nonpayable",
      "type": "function"
    },
    {
      "constant": false,
      "inputs": [
        {
          "name": "_minEth",
          "type": "uint256"
        }
      ],
      "name": "setMinEth",
      "outputs": [],
      "payable": false,
      "stateMutability": "nonpayable",
      "type": "function"
    }
  ],
  "bytecode": "0x6080604052336000806101000a81548173ffffffffffffffffffffffffffffffffffffffff021916908373ffffffffffffffffffffffffffffffffffffffff1602179055506000809054906101000a900473ffffffffffffffffffffffffffffffffffffffff1673ffffffffffffffffffffffffffffffffffffffff16600073ffffffffffffffffffffffffffffffffffffffff167f8be0079c531659141344cd1fd0a4f28419497f9722a3daafe3b4186f6b6457e060405160405180910390a361151c806100cf6000396000f3006080604052600436106100db576000357c0100000000000000000000000000000000000000000000000000000000900463ffffffff16806306dd4c4e1461020d57806307c86f94146102585780630c7814f11461029b578063132611f01461032e57806355a373d6146103855780636a017b16146103dc578063715018a61461043f578063854d9ed9146104565780638da5cb5b146104835780638f32d59b146104da578063b67f873814610509578063bbcd5bbe14610560578063e4849b32146105a3578063f1fb3ace146105e8578063f2fde38b14610613575b600073ffffffffffffffffffffffffffffffffffffffff16600260009054906101000a900473ffffffffffffffffffffffffffffffffffffffff1673ffffffffffffffffffffffffffffffffffffffff16141515156101a2576040517f08c379a00000000000000000000000000000000000000000000000000000000081526004018080602001828103825260108152602001807f5661756c74206973206d697373696e670000000000000000000000000000000081525060200191505060405180910390fd5b600260009054906101000a900473ffffffffffffffffffffffffffffffffffffffff1673ffffffffffffffffffffffffffffffffffffffff166108fc349081150290604051600060405180830381858888f1935050505015801561020a573d6000803e3d6000fd5b50005b34801561021957600080fd5b506102426004803603810190808035906020019092919080359060200190929190505050610656565b6040518082815260200191505060405180910390f35b34801561026457600080fd5b50610299600480360381019080803573ffffffffffffffffffffffffffffffffffffffff1690602001909291905050506108f6565b005b3480156102a757600080fd5b5061032c600480360381019080803573ffffffffffffffffffffffffffffffffffffffff16906020019092919080359060200190929190803590602001908201803590602001908080601f0160208091040260200160405190810160405280939291908181526020018383808284378201915050505050509192919290505050610a40565b005b34801561033a57600080fd5b5061036f600480360381019080803573ffffffffffffffffffffffffffffffffffffffff169060200190929190505050610b46565b6040518082815260200191505060405180910390f35b34801561039157600080fd5b5061039a610b50565b604051808273ffffffffffffffffffffffffffffffffffffffff1673ffffffffffffffffffffffffffffffffffffffff16815260200191505060405180910390f35b3480156103e857600080fd5b5061043d600480360381019080803573ffffffffffffffffffffffffffffffffffffffff169060200190929190803573ffffffffffffffffffffffffffffffffffffffff169060200190929190505050610b76565b005b34801561044b57600080fd5b50610454610b9f565b005b34801561046257600080fd5b5061048160048036038101908080359060200190929190505050610c71565b005b34801561048f57600080fd5b50610498610d09565b604051808273ffffffffffffffffffffffffffffffffffffffff1673ffffffffffffffffffffffffffffffffffffffff16815260200191505060405180910390f35b3480156104e657600080fd5b506104ef610d32565b604051808215151515815260200191505060405180910390f35b34801561051557600080fd5b5061051e610d89565b604051808273ffffffffffffffffffffffffffffffffffffffff1673ffffffffffffffffffffffffffffffffffffffff16815260200191505060405180910390f35b34801561056c57600080fd5b506105a1600480360381019080803573ffffffffffffffffffffffffffffffffffffffff169060200190929190505050610daf565b005b3480156105af57600080fd5b506105ce60048036038101908080359060200190929190505050610ef9565b604051808215151515815260200191505060405180910390f35b3480156105f457600080fd5b506105fd611348565b6040518082815260200191505060405180910390f35b34801561061f57600080fd5b50610654600480360381019080803573ffffffffffffffffffffffffffffffffffffffff16906020019092919050505061134e565b005b60008060008060008060008888101515156106ff576040517f08c379a00000000000000000000000000000000000000000000000000000000081526004018080602001828103825260278152602001807f5573657220747279696e6720746f2073656c6c206d6f7265207468616e20746881526020017f657920686176650000000000000000000000000000000000000000000000000081525060400191505060405180910390fd5b600160009054906101000a900473ffffffffffffffffffffffffffffffffffffffff1673ffffffffffffffffffffffffffffffffffffffff16636c9c2faf6040518163ffffffff167c0100000000000000000000000000000000000000000000000000000000028152600401602060405180830381600087803b15801561078557600080fd5b505af1158015610799573d6000803e3d6000fd5b505050506040513d60208110156107af57600080fd5b81019080805190602001909291905050509550670de0b6b3a7640000945060006107d833610b46565b1115156108e557610804866107f6878b61136d90919063ffffffff16565b6113ab90919063ffffffff16565b93506108528561084486610836896004026108288b8c6113ab90919063ffffffff16565b6113ab90919063ffffffff16565b6113d590919063ffffffff16565b6113ab90919063ffffffff16565b92506108c6856108b86108a789600260009054906101000a900473ffffffffffffffffffffffffffffffffffffffff1673ffffffffffffffffffffffffffffffffffffffff16316113ab90919063ffffffff16565b86880a61136d90919063ffffffff16565b6113ab90919063ffffffff16565b91506108db898361136d90919063ffffffff16565b90508096506108ea565b600096505b50505050505092915050565b6000610900610d32565b151561090b57600080fd5b600260009054906101000a900473ffffffffffffffffffffffffffffffffffffffff16905081600260006101000a81548173ffffffffffffffffffffffffffffffffffffffff021916908373ffffffffffffffffffffffffffffffffffffffff1602179055507f234aa0a04118cb90f26f79b5f7b16f8385cf79fb0420a60d26478d6998179750338284604051808473ffffffffffffffffffffffffffffffffffffffff1673ffffffffffffffffffffffffffffffffffffffff1681526020018373ffffffffffffffffffffffffffffffffffffffff1673ffffffffffffffffffffffffffffffffffffffff1681526020018273ffffffffffffffffffffffffffffffffffffffff1673ffffffffffffffffffffffffffffffffffffffff168152602001935050505060405180910390a15050565b600160009054906101000a900473ffffffffffffffffffffffffffffffffffffffff1673ffffffffffffffffffffffffffffffffffffffff166379c6506884846040518363ffffffff167c0100000000000000000000000000000000000000000000000000000000028152600401808373ffffffffffffffffffffffffffffffffffffffff1673ffffffffffffffffffffffffffffffffffffffff16815260200182815260200192505050602060405180830381600087803b158015610b0557600080fd5b505af1158015610b19573d6000803e3d6000fd5b505050506040513d6020811015610b2f57600080fd5b810190808051906020019092919050505050505050565b6000809050919050565b600160009054906101000a900473ffffffffffffffffffffffffffffffffffffffff1681565b610b7e610d32565b1515610b8957600080fd5b610b9282610daf565b610b9b816108f6565b5050565b610ba7610d32565b1515610bb257600080fd5b600073ffffffffffffffffffffffffffffffffffffffff166000809054906101000a900473ffffffffffffffffffffffffffffffffffffffff1673ffffffffffffffffffffffffffffffffffffffff167f8be0079c531659141344cd1fd0a4f28419497f9722a3daafe3b4186f6b6457e060405160405180910390a360008060006101000a81548173ffffffffffffffffffffffffffffffffffffffff021916908373ffffffffffffffffffffffffffffffffffffffff160217905550565b6000610c7b610d32565b1515610c8657600080fd5b6003549050816003819055507f1e1fdbd340901d436c69ac3496a4171ebc1b92ef074c5ff964c1b75398e1d28b338284604051808473ffffffffffffffffffffffffffffffffffffffff1673ffffffffffffffffffffffffffffffffffffffff168152602001838152602001828152602001935050505060405180910390a15050565b60008060009054906101000a900473ffffffffffffffffffffffffffffffffffffffff16905090565b60008060009054906101000a900473ffffffffffffffffffffffffffffffffffffffff1673ffffffffffffffffffffffffffffffffffffffff163373ffffffffffffffffffffffffffffffffffffffff1614905090565b600260009054906101000a900473ffffffffffffffffffffffffffffffffffffffff1681565b6000610db9610d32565b1515610dc457600080fd5b600160009054906101000a900473ffffffffffffffffffffffffffffffffffffffff16905081600160006101000a81548173ffffffffffffffffffffffffffffffffffffffff021916908373ffffffffffffffffffffffffffffffffffffffff1602179055507f8e50965f27112954dcece2b6acec24689db20cd8a09e23837f4c5cf6bd6a29e8338284604051808473ffffffffffffffffffffffffffffffffffffffff1673ffffffffffffffffffffffffffffffffffffffff1681526020018373ffffffffffffffffffffffffffffffffffffffff1673ffffffffffffffffffffffffffffffffffffffff1681526020018273ffffffffffffffffffffffffffffffffffffffff1673ffffffffffffffffffffffffffffffffffffffff168152602001935050505060405180910390a15050565b6000806000600354600260009054906101000a900473ffffffffffffffffffffffffffffffffffffffff1673ffffffffffffffffffffffffffffffffffffffff163110151515610fd7576040517f08c379a00000000000000000000000000000000000000000000000000000000081526004018080602001828103825260288152602001807f4e6f7420656e6f7567682045544820696e20626f6e64696e67207661756c742081526020017f636f6e747261637400000000000000000000000000000000000000000000000081525060400191505060405180910390fd5b600160009054906101000a900473ffffffffffffffffffffffffffffffffffffffff1673ffffffffffffffffffffffffffffffffffffffff166370a08231336040518263ffffffff167c0100000000000000000000000000000000000000000000000000000000028152600401808273ffffffffffffffffffffffffffffffffffffffff1673ffffffffffffffffffffffffffffffffffffffff168152602001915050602060405180830381600087803b15801561109457600080fd5b505af11580156110a8573d6000803e3d6000fd5b505050506040513d60208110156110be57600080fd5b810190808051906020019092919050505091506000841180156110e15750838210155b151561117b576040517f08c379a00000000000000000000000000000000000000000000000000000000081526004018080602001828103825260398152602001807f416d6f756e74206e6565647320746f206265203e203020616e6420746f6b656e81526020017f42616c616e6365203e3d20616d6f756e7420746f2073656c6c0000000000000081525060400191505060405180910390fd5b6111858483610656565b9050600160009054906101000a900473ffffffffffffffffffffffffffffffffffffffff1673ffffffffffffffffffffffffffffffffffffffff16639dc29fac33866040518363ffffffff167c0100000000000000000000000000000000000000000000000000000000028152600401808373ffffffffffffffffffffffffffffffffffffffff1673ffffffffffffffffffffffffffffffffffffffff16815260200182815260200192505050600060405180830381600087803b15801561124c57600080fd5b505af1158015611260573d6000803e3d6000fd5b50505050600260009054906101000a900473ffffffffffffffffffffffffffffffffffffffff1673ffffffffffffffffffffffffffffffffffffffff16633436860282336040518363ffffffff167c0100000000000000000000000000000000000000000000000000000000028152600401808381526020018273ffffffffffffffffffffffffffffffffffffffff1673ffffffffffffffffffffffffffffffffffffffff16815260200192505050600060405180830381600087803b15801561132957600080fd5b505af115801561133d573d6000803e3d6000fd5b505050505050919050565b60035481565b611356610d32565b151561136157600080fd5b61136a816113f6565b50565b600080600084141561138257600091506113a4565b828402905082848281151561139357fe5b041415156113a057600080fd5b8091505b5092915050565b6000806000831115156113bd57600080fd5b82848115156113c857fe5b0490508091505092915050565b6000808383111515156113e757600080fd5b82840390508091505092915050565b600073ffffffffffffffffffffffffffffffffffffffff168173ffffffffffffffffffffffffffffffffffffffff161415151561143257600080fd5b8073ffffffffffffffffffffffffffffffffffffffff166000809054906101000a900473ffffffffffffffffffffffffffffffffffffffff1673ffffffffffffffffffffffffffffffffffffffff167f8be0079c531659141344cd1fd0a4f28419497f9722a3daafe3b4186f6b6457e060405160405180910390a3806000806101000a81548173ffffffffffffffffffffffffffffffffffffffff021916908373ffffffffffffffffffffffffffffffffffffffff160217905550505600a165627a7a7230582006ebeee25229a2db4b431ae4ecd1c7baadcd9f1f83fab1ecbcf86977b050dfee0029",
  "source": "pragma solidity ^0.4.24;\n\nimport \"openzeppelin-solidity/contracts/ownership/Ownable.sol\";\nimport \"openzeppelin-solidity/contracts/math/SafeMath.sol\";\n\ncontract Logic is Ownable {\n    using SafeMath for uint256;\n\n    // Keep the balances of ERC20s\n    TokenInterface public tokenContract;\n\n    // Bonding curve ETH\n    VaultInterface public bondingVault;\n\n    // Minimum ETH balance for valid bonding curve\n    uint256 public minEth;\n\n    event LogTokenContractChanged\n    (\n        address byWhom,\n        address oldContract,\n        address newContract\n    );\n\n    event LogBondingVaultChanged\n    (\n        address byWhom,\n        address oldContract,\n        address newContract\n    );\n\n    event LogMinEthChanged\n    (\n        address byWhom,\n        uint256 oldAmount,\n        uint256 newAmount\n    );\n\n    modifier minimumBondingBalance() {\n        require(address(bondingVault).balance >= minEth, \"Not enough ETH in bonding vault contract\");\n        _;\n    }\n\n    /**\n     * @dev The fallback function, which is used to 'fund' the Vault\n     * TODO: To take from Khana Framework\n     */\n    function () public payable {\n        require(address(bondingVault) != address(0), \"Vault is missing\");\n        address(bondingVault).transfer(msg.value);\n    }\n\n    /**\n    * @dev this is a 'general' award method for the Bonding Curve, to be taken from Khana Framework.\n    * TODO: This method is supposed to be called by authorized accounts only (i.e. 'admins')\n    * which might be not a case for custmomizations, like 'Donations' where an 'external' action (donation) must be awarded.\n    * For such cases the sub-contract must be added to the authorized accounts list\n    */\n    function award(\n        address _account,\n        uint256 _amount,\n        string _ipfsHash\n    )\n    public\n    {\n        tokenContract.mintToken(_account, _amount);\n    }\n\n    /**\n    * @dev sell function for selling tokens to bonding curve\n    */\n    function sell(uint256 _amount) public minimumBondingBalance returns (bool) {\n        uint256 tokenBalanceOfSender = tokenContract.balanceOf(msg.sender);\n        require(_amount > 0 && tokenBalanceOfSender >= _amount, \"Amount needs to be > 0 and tokenBalance >= amount to sell\");\n\n        // calculate sell return\n        uint256 amountOfEth = calculateReturn(_amount, tokenBalanceOfSender);\n\n        // burn tokens\n        tokenContract.burn(msg.sender, _amount);\n\n        // sendEth to msg.sender from bonding curve\n        bondingVault.sendEth(amountOfEth, msg.sender);\n    }\n\n    /**\n    * @dev calculate how much ETH should be returned for a certain amount of tokens\n    */\n    function calculateReturn(uint256 _sellAmount, uint256 _tokenBalance) public view returns (uint256) {\n        require(_tokenBalance >= _sellAmount, \"User trying to sell more than they have\");\n        uint256 supply = tokenContract.getSupply();\n\n        // For EVM accuracy\n        uint256 multiplier = 10**18;\n\n        if (coolDownPeriod(msg.sender) <= 0) {\n            // Price = (Portion of Supply ^ ((1/4) - Portion of Supply)) * (ETH in Pot / Token supply)\n            // NOT YET WORKING (problem with decimal precision for exponent)\n            uint256 portionOfSupply = (_tokenBalance.mul(multiplier).div(supply));\n            uint256 exponent = ((multiplier.div(multiplier).div(4*multiplier)).sub(portionOfSupply)).div(multiplier);\n            uint256 price = ((portionOfSupply**exponent).mul((address(bondingVault).balance).div(supply))).div(multiplier);\n            \n            uint256 redeemableEth = price.mul(_sellAmount);\n            return redeemableEth;\n        } else {\n            return 0;\n        }\n    }\n\n    // !! TODO: - set cooldown time period before selling\n    // returns uint256 in number of hours\n    function coolDownPeriod(address _tokenHolder) public view returns (uint256) {\n        // something like today - (day of buying + 7 days)\n        // todo when minting tokens\n        return 0;\n    }\n\n    /**\n    * @dev Set both the 'logicContract' and 'bondingVault' to different contract addresses in 1 tx\n    */\n    function setTokenAndBondingVault(address _tokenContract, address _bondingVaultContract) public onlyOwner {\n        setTokenContract(_tokenContract);\n        setBondingVault(_bondingVaultContract);\n    }\n\n    /**\n    * @dev Set the 'logicContract' to a different contract address\n    */\n    function setTokenContract(address _tokenContract) public onlyOwner {\n        address oldContract = tokenContract;\n        tokenContract = TokenInterface(_tokenContract);\n        emit LogTokenContractChanged(msg.sender, oldContract, _tokenContract);\n    }\n\n    /**\n    * @dev Set the 'bondingVault' to a different contract address\n    */\n    function setBondingVault(address _bondingVault) public onlyOwner {\n        address oldContract = bondingVault;\n        bondingVault = VaultInterface(_bondingVault);\n        emit LogBondingVaultChanged(msg.sender, oldContract, _bondingVault);\n    }\n\n    /**\n    * @dev Set the 'minEth' amount\n    */\n    function setMinEth(uint256 _minEth) public onlyOwner {\n        uint256 oldAmount = minEth;\n        minEth = _minEth;\n        emit LogMinEthChanged(msg.sender, oldAmount, _minEth);\n    }\n\n    //allow freezing of everything\n\n}\n\n/**\n * @title Abstraction, used to interact with the Bonding Curve Vault\n */\ninterface VaultInterface {\n\n    function sendEth(uint256 _amount, address _account) external;\n\n}\n\n/**\n * @title Abstraction, used to interact with the Bonding Curve Token\n */\ninterface TokenInterface {\n\n    function mintToken(address _who, uint256 _amount) external returns (bool);\n\n    function balanceOf(address owner) external view returns (uint256);\n\n    function burn(address _who, uint256 _value) external;\n\n    function getSupply() external view returns (uint256);\n\n}",
  "sourcePath": "/Users/kirilivanov/DEV/BondedDonations/contracts/Logic.sol",
  "compiler": {
    "name": "solc",
    "version": "0.4.25+commit.59dbf8f1.Emscripten.clang"
  },
  "schemaVersion": "3.0.0-beta.1",
  "updatedAt": "2018-11-05T15:51:27.817Z"
}